{
  "address": "0xF0cE68bfE5B9B8470C99fE66E4bAfa31e178C0f0",
  "abi": [
    {
      "anonymous": false,
      "inputs": [
        {
          "indexed": true,
          "internalType": "address",
          "name": "executor",
          "type": "address"
        },
        {
          "indexed": false,
          "internalType": "uint256",
          "name": "at",
          "type": "uint256"
        }
      ],
      "name": "Initialized",
      "type": "event"
    },
    {
      "anonymous": false,
      "inputs": [
        {
          "indexed": true,
          "internalType": "address",
          "name": "user",
          "type": "address"
        },
        {
          "indexed": false,
          "internalType": "uint256",
          "name": "reward",
          "type": "uint256"
        }
      ],
      "name": "RewardAdded",
      "type": "event"
    },
    {
      "anonymous": false,
      "inputs": [
        {
          "indexed": true,
          "internalType": "address",
          "name": "user",
          "type": "address"
        },
        {
          "indexed": false,
          "internalType": "uint256",
          "name": "reward",
          "type": "uint256"
        }
      ],
      "name": "RewardPaid",
      "type": "event"
    },
    {
      "anonymous": false,
      "inputs": [
        {
          "indexed": true,
          "internalType": "address",
          "name": "user",
          "type": "address"
        },
        {
          "indexed": false,
          "internalType": "uint256",
          "name": "amount",
          "type": "uint256"
        }
      ],
      "name": "Staked",
      "type": "event"
    },
    {
      "anonymous": false,
      "inputs": [
        {
          "indexed": true,
          "internalType": "address",
          "name": "user",
          "type": "address"
        },
        {
          "indexed": false,
          "internalType": "uint256",
          "name": "amount",
          "type": "uint256"
        }
      ],
      "name": "Withdrawn",
      "type": "event"
    },
    {
      "inputs": [
        {
          "internalType": "uint256",
          "name": "amount",
          "type": "uint256"
        }
      ],
      "name": "allocateSeigniorage",
      "outputs": [],
      "stateMutability": "nonpayable",
      "type": "function"
    },
    {
      "inputs": [
        {
          "internalType": "address",
          "name": "account",
          "type": "address"
        }
      ],
      "name": "balanceOf",
      "outputs": [
        {
          "internalType": "uint256",
          "name": "",
          "type": "uint256"
        }
      ],
      "stateMutability": "view",
      "type": "function"
    },
    {
      "inputs": [
        {
          "internalType": "uint256",
          "name": "",
          "type": "uint256"
        }
      ],
      "name": "boardroomHistory",
      "outputs": [
        {
          "internalType": "uint256",
          "name": "time",
          "type": "uint256"
        },
        {
          "internalType": "uint256",
          "name": "rewardReceived",
          "type": "uint256"
        },
        {
          "internalType": "uint256",
          "name": "rewardPerShare",
          "type": "uint256"
        }
      ],
      "stateMutability": "view",
      "type": "function"
    },
    {
      "inputs": [
        {
          "internalType": "address",
          "name": "member",
          "type": "address"
        }
      ],
      "name": "canClaimReward",
      "outputs": [
        {
          "internalType": "bool",
          "name": "",
          "type": "bool"
        }
      ],
      "stateMutability": "view",
      "type": "function"
    },
    {
      "inputs": [
        {
          "internalType": "address",
          "name": "member",
          "type": "address"
        }
      ],
      "name": "canWithdraw",
      "outputs": [
        {
          "internalType": "bool",
          "name": "",
          "type": "bool"
        }
      ],
      "stateMutability": "view",
      "type": "function"
    },
    {
      "inputs": [],
      "name": "claimReward",
      "outputs": [],
      "stateMutability": "nonpayable",
      "type": "function"
    },
    {
      "inputs": [
        {
          "internalType": "address",
          "name": "member",
          "type": "address"
        }
      ],
      "name": "earned",
      "outputs": [
        {
          "internalType": "uint256",
          "name": "",
          "type": "uint256"
        }
      ],
      "stateMutability": "view",
      "type": "function"
    },
    {
      "inputs": [],
      "name": "epoch",
      "outputs": [
        {
          "internalType": "uint256",
          "name": "",
          "type": "uint256"
        }
      ],
      "stateMutability": "view",
      "type": "function"
    },
    {
      "inputs": [],
      "name": "exit",
      "outputs": [],
      "stateMutability": "nonpayable",
      "type": "function"
    },
    {
      "inputs": [
        {
          "internalType": "address",
          "name": "member",
          "type": "address"
        }
      ],
      "name": "getLastSnapshotIndexOf",
      "outputs": [
        {
          "internalType": "uint256",
          "name": "",
          "type": "uint256"
        }
      ],
      "stateMutability": "view",
      "type": "function"
    },
    {
      "inputs": [],
      "name": "getTokenPrice",
      "outputs": [
        {
          "internalType": "uint256",
          "name": "",
          "type": "uint256"
        }
      ],
      "stateMutability": "view",
      "type": "function"
    },
    {
      "inputs": [
        {
          "internalType": "contract IERC20",
          "name": "_token",
          "type": "address"
        },
        {
          "internalType": "uint256",
          "name": "_amount",
          "type": "uint256"
        },
        {
          "internalType": "address",
          "name": "_to",
          "type": "address"
        }
      ],
      "name": "governanceRecoverUnsupported",
      "outputs": [],
      "stateMutability": "nonpayable",
      "type": "function"
    },
    {
      "inputs": [
        {
          "internalType": "contract IERC20",
          "name": "_token",
          "type": "address"
        },
        {
          "internalType": "contract IERC20",
          "name": "_share",
          "type": "address"
        },
        {
          "internalType": "contract ITreasury",
          "name": "_treasury",
          "type": "address"
        }
      ],
      "name": "initialize",
      "outputs": [],
      "stateMutability": "nonpayable",
      "type": "function"
    },
    {
      "inputs": [],
      "name": "initialized",
      "outputs": [
        {
          "internalType": "bool",
          "name": "",
          "type": "bool"
        }
      ],
      "stateMutability": "view",
      "type": "function"
    },
    {
      "inputs": [],
      "name": "latestSnapshotIndex",
      "outputs": [
        {
          "internalType": "uint256",
          "name": "",
          "type": "uint256"
        }
      ],
      "stateMutability": "view",
      "type": "function"
    },
    {
      "inputs": [
        {
          "internalType": "address",
          "name": "",
          "type": "address"
        }
      ],
      "name": "members",
      "outputs": [
        {
          "internalType": "uint256",
          "name": "lastSnapshotIndex",
          "type": "uint256"
        },
        {
          "internalType": "uint256",
          "name": "rewardEarned",
          "type": "uint256"
        },
        {
          "internalType": "uint256",
          "name": "epochTimerStart",
          "type": "uint256"
        }
      ],
      "stateMutability": "view",
      "type": "function"
    },
    {
      "inputs": [],
      "name": "nextEpochPoint",
      "outputs": [
        {
          "internalType": "uint256",
          "name": "",
          "type": "uint256"
        }
      ],
      "stateMutability": "view",
      "type": "function"
    },
    {
      "inputs": [],
      "name": "operator",
      "outputs": [
        {
          "internalType": "address",
          "name": "",
          "type": "address"
        }
      ],
      "stateMutability": "view",
      "type": "function"
    },
    {
      "inputs": [],
      "name": "reserveFund",
      "outputs": [
        {
          "internalType": "address",
          "name": "",
          "type": "address"
        }
      ],
      "stateMutability": "view",
      "type": "function"
    },
    {
      "inputs": [],
      "name": "rewardLockupEpochs",
      "outputs": [
        {
          "internalType": "uint256",
          "name": "",
          "type": "uint256"
        }
      ],
      "stateMutability": "view",
      "type": "function"
    },
    {
      "inputs": [],
      "name": "rewardPerShare",
      "outputs": [
        {
          "internalType": "uint256",
          "name": "",
          "type": "uint256"
        }
      ],
      "stateMutability": "view",
      "type": "function"
    },
    {
      "inputs": [
        {
          "internalType": "uint256",
          "name": "_withdrawLockupEpochs",
          "type": "uint256"
        },
        {
          "internalType": "uint256",
          "name": "_rewardLockupEpochs",
          "type": "uint256"
        }
      ],
      "name": "setLockUp",
      "outputs": [],
      "stateMutability": "nonpayable",
      "type": "function"
    },
    {
      "inputs": [
        {
          "internalType": "address",
          "name": "_operator",
          "type": "address"
        }
      ],
      "name": "setOperator",
      "outputs": [],
      "stateMutability": "nonpayable",
      "type": "function"
    },
    {
      "inputs": [
        {
          "internalType": "address",
          "name": "_reserveFund",
          "type": "address"
        }
      ],
      "name": "setReserveFund",
      "outputs": [],
      "stateMutability": "nonpayable",
      "type": "function"
    },
    {
      "inputs": [
        {
          "internalType": "uint256",
          "name": "_stakeFee",
          "type": "uint256"
        }
      ],
      "name": "setStakeFee",
      "outputs": [],
      "stateMutability": "nonpayable",
      "type": "function"
    },
    {
      "inputs": [
        {
          "internalType": "uint256",
          "name": "_withdrawFee",
          "type": "uint256"
        }
      ],
      "name": "setWithdrawFee",
      "outputs": [],
      "stateMutability": "nonpayable",
      "type": "function"
    },
    {
      "inputs": [
        {
          "internalType": "uint256",
          "name": "_withdrawFeeMultiplier",
          "type": "uint256"
        }
      ],
      "name": "setWithdrawFeeMultiplier",
      "outputs": [],
      "stateMutability": "nonpayable",
      "type": "function"
    },
    {
      "inputs": [],
      "name": "share",
      "outputs": [
        {
          "internalType": "contract IERC20",
          "name": "",
          "type": "address"
        }
      ],
      "stateMutability": "view",
      "type": "function"
    },
    {
      "inputs": [
        {
          "internalType": "uint256",
          "name": "amount",
          "type": "uint256"
        }
      ],
      "name": "stake",
      "outputs": [],
      "stateMutability": "nonpayable",
      "type": "function"
    },
    {
      "inputs": [],
      "name": "stakeFee",
      "outputs": [
        {
          "internalType": "uint256",
          "name": "",
          "type": "uint256"
        }
      ],
      "stateMutability": "view",
      "type": "function"
    },
    {
      "inputs": [],
      "name": "token",
      "outputs": [
        {
          "internalType": "contract IERC20",
          "name": "",
          "type": "address"
        }
      ],
      "stateMutability": "view",
      "type": "function"
    },
    {
      "inputs": [],
      "name": "totalSupply",
      "outputs": [
        {
          "internalType": "uint256",
          "name": "",
          "type": "uint256"
        }
      ],
      "stateMutability": "view",
      "type": "function"
    },
    {
      "inputs": [],
      "name": "treasury",
      "outputs": [
        {
          "internalType": "contract ITreasury",
          "name": "",
          "type": "address"
        }
      ],
      "stateMutability": "view",
      "type": "function"
    },
    {
      "inputs": [
        {
          "internalType": "uint256",
          "name": "amount",
          "type": "uint256"
        }
      ],
      "name": "withdraw",
      "outputs": [],
      "stateMutability": "nonpayable",
      "type": "function"
    },
    {
      "inputs": [],
      "name": "withdrawFee",
      "outputs": [
        {
          "internalType": "uint256",
          "name": "",
          "type": "uint256"
        }
      ],
      "stateMutability": "view",
      "type": "function"
    },
    {
      "inputs": [],
      "name": "withdrawFeeMultiplier",
      "outputs": [
        {
          "internalType": "uint256",
          "name": "",
          "type": "uint256"
        }
      ],
      "stateMutability": "view",
      "type": "function"
    },
    {
      "inputs": [],
      "name": "withdrawLockupEpochs",
      "outputs": [
        {
          "internalType": "uint256",
          "name": "",
          "type": "uint256"
        }
      ],
      "stateMutability": "view",
      "type": "function"
    }
  ],
  "transactionHash": "0x2cb4310c2492a4756f2a44d77818a0d80d92c249132abfef85c2b6c2dd4f90a7",
  "args": [],
  "numDeployments": 1,
  "solcInputHash": "29006ffab887000d5e78f0c1a6133d12",
  "bytecode": "0x60806040526004805460ff60a01b1916905534801561001d57600080fd5b5061254b8061002d6000396000f3fe608060405234801561001057600080fd5b50600436106102265760003560e01c806361d027b311610130578063b7f92b71116100b8578063e2d7bee41161007c578063e2d7bee414610556578063e941fa7814610573578063e9fad8ee1461057b578063f498d8a614610583578063fc0c546a146105a957610226565b8063b7f92b71146104e9578063b88a802f146104f1578063c0c53b8b146104f9578063c58e384314610531578063c5967c261461054e57610226565b806397ffe1d7116100ff57806397ffe1d714610464578063a694fc3a14610481578063a8d5fd651461049e578063b3ab15fb146104a6578063b6ac642a146104cc57610226565b806361d027b31461040857806370a0823114610410578063714b465814610436578063900cf0cf1461045c57610226565b80631e85cd65116101b35780633f9e3f04116101825780633f9e3f0414610396578063446a2ec81461039e5780634b94f50e146103a657806354575af4146103ae578063570ca735146103e457610226565b80631e85cd6514610346578063222c97771461034e5780632e1a7d4d146103565780632ffaaa091461037357610226565b80630882a79b116101fa5780630882a79b146102c457806308ae4b0c146102cc578063158ef93e1461031057806318160ddd1461031857806319262d301461032057610226565b80628cc2621461022b578063022ba18d14610263578063046335d01461026b57806307178c22146102a5575b600080fd5b6102516004803603602081101561024157600080fd5b50356001600160a01b03166105b1565b60408051918252519081900360200190f35b610251610632565b6102916004803603602081101561028157600080fd5b50356001600160a01b0316610638565b604080519115158252519081900360200190f35b6102c2600480360360208110156102bb57600080fd5b50356106d9565b005b610251610775565b6102f2600480360360208110156102e257600080fd5b50356001600160a01b031661077b565b60408051938452602084019290925282820152519081900360600190f35b61029161079c565b6102516107ac565b6102916004803603602081101561033657600080fd5b50356001600160a01b03166107b2565b61025161084b565b610251610851565b6102c26004803603602081101561036c57600080fd5b5035610857565b6102c26004803603604081101561038957600080fd5b5080359060200135610d5d565b610251610dfd565b610251610e13565b610251610e26565b6102c2600480360360608110156103c457600080fd5b506001600160a01b03813581169160208101359160409091013516610e9c565b6103ec610f94565b604080516001600160a01b039092168252519081900360200190f35b6103ec610fa3565b6102516004803603602081101561042657600080fd5b50356001600160a01b0316610fb2565b6102516004803603602081101561044c57600080fd5b50356001600160a01b0316610fcd565b610251610fe8565b6102c26004803603602081101561047a57600080fd5b503561102d565b6102c26004803603602081101561049757600080fd5b503561130f565b6103ec611624565b6102c2600480360360208110156104bc57600080fd5b50356001600160a01b0316611633565b6102c2600480360360208110156104e257600080fd5b503561169e565b6103ec611742565b6102c2611751565b6102c26004803603606081101561050f57600080fd5b506001600160a01b0381358116916020810135821691604090910135166119c8565b6102f26004803603602081101561054757600080fd5b5035611b8f565b610251611bbf565b6102c26004803603602081101561056c57600080fd5b5035611c04565b610251611c9e565b6102c2611ca4565b6102c26004803603602081101561059957600080fd5b50356001600160a01b0316611cb7565b6103ec611d67565b6000806105bc611d76565b60400151905060006105cd84611dce565b6040908101516001600160a01b03861660009081526007602052919091206001015490915061062a90610624670de0b6b3a764000061061e61060f8787611e29565b6106188a610fb2565b90611e8b565b90611eeb565b90611f52565b949350505050565b600a5481565b6006546040805163900cf0cf60e01b815290516000926001600160a01b03169163900cf0cf916004808301926020929190829003018186803b15801561067d57600080fd5b505afa158015610691573d6000803e3d6000fd5b505050506040513d60208110156106a757600080fd5b5051600a546001600160a01b0384166000908152600760205260409020600201546106d191611f52565b111592915050565b6004546001600160a01b031633146107225760405162461bcd60e51b81526004018080602001828103825260258152602001806124486025913960400191505060405180910390fd5b6064811015801561073557506103e88111155b6107705760405162461bcd60e51b815260040180806020018281038252602981526020018061233f6029913960400191505060405180910390fd5b600e55565b600e5481565b60076020526000908152604090208054600182015460029092015490919083565b600454600160a01b900460ff1681565b60025490565b6006546040805163900cf0cf60e01b815290516000926001600160a01b03169163900cf0cf916004808301926020929190829003018186803b1580156107f757600080fd5b505afa15801561080b573d6000803e3d6000fd5b505050506040513d602081101561082157600080fd5b50516009546001600160a01b0384166000908152600760205260409020600201546106d191611f52565b60095481565b600d5481565b61085f611fac565b1561089b5760405162461bcd60e51b81526004018080602001828103825260268152602001806124ba6026913960400191505060405180910390fd5b6108a3611fcb565b156108df5760405162461bcd60e51b81526004018080602001828103825260268152602001806124ba6026913960400191505060405180910390fd5b60006108ea33610fb2565b116109265760405162461bcd60e51b81526004018080602001828103825260248152602001806123686024913960400191505060405180910390fd5b3380156109c05761093561231d565b506001600160a01b038116600090815260076020908152604091829020825160608101845281548152600182015492810192909252600201549181019190915261097e826105b1565b602082015261098b610dfd565b81526001600160a01b038216600090815260076020908152604091829020835181559083015160018201559101516002909101555b60008211610a15576040805162461bcd60e51b815260206004820152601c60248201527f426f617264726f6f6d3a2043616e6e6f74207769746864726177203000000000604482015290519081900360640190fd5b600660009054906101000a90046001600160a01b03166001600160a01b031663900cf0cf6040518163ffffffff1660e01b815260040160206040518083038186803b158015610a6357600080fd5b505afa158015610a77573d6000803e3d6000fd5b505050506040513d6020811015610a8d57600080fd5b505160095433600090815260076020526040902060020154610aae91611f52565b1115610aeb5760405162461bcd60e51b815260040180806020018281038252602381526020018061246d6023913960400191505060405180910390fd5b610af3611751565b3360009081526003602052604090205482811015610b425760405162461bcd60e51b81526004018080602001828103825260368152602001806124e06036913960400191505060405180910390fd5b600254610b4f9084611e29565b600255610b5c8184611e29565b33600090815260036020526040902055600c5415610cd257600654604080516325ca7a8760e11b815290516000926001600160a01b031691634b94f50e916004808301926020929190829003018186803b158015610bb957600080fd5b505afa158015610bcd573d6000803e3d6000fd5b505050506040513d6020811015610be357600080fd5b505160065460408051631eef93fb60e31b815290519293506000926001600160a01b039092169163f77c9fd891600480820192602092909190829003018186803b158015610c3057600080fd5b505afa158015610c44573d6000803e3d6000fd5b505050506040513d6020811015610c5a57600080fd5b5051905080821015610c8657610c82606461061e600e54600c54611e8b90919063ffffffff16565b600c555b6000610ca2606461061e600c5489611e8b90919063ffffffff16565b600b54600154919250610cc2916001600160a01b03908116911683611fea565b610ccc8682611e29565b95505050505b600154610ce9906001600160a01b03163385611fea565b60408051848152905133917f7084f5476618d8e60b11ef0d7d3f06914655adb8793e28ff7f018d4c76d505d5919081900360200190a25050436000908152602081815260408083203284529091528082208054600160ff199182168117909255338452919092208054909116909117905550565b6004546001600160a01b03163314610da65760405162461bcd60e51b81526004018080602001828103825260258152602001806124486025913960400191505060405180910390fd5b808210158015610db75750602a8211155b610df25760405162461bcd60e51b81526004018080602001828103825260238152602001806124256023913960400191505060405180910390fd5b600991909155600a55565b600854600090610e0e906001611e29565b905090565b6000610e1d611d76565b60400151905090565b600654604080516325ca7a8760e11b815290516000926001600160a01b031691634b94f50e916004808301926020929190829003018186803b158015610e6b57600080fd5b505afa158015610e7f573d6000803e3d6000fd5b505050506040513d6020811015610e9557600080fd5b5051905090565b6004546001600160a01b03163314610ee55760405162461bcd60e51b81526004018080602001828103825260258152602001806124486025913960400191505060405180910390fd5b6005546001600160a01b0384811691161415610f30576040805162461bcd60e51b81526020600482015260056024820152643a37b5b2b760d91b604482015290519081900360640190fd5b6001546001600160a01b0384811691161415610f7b576040805162461bcd60e51b8152602060048201526005602482015264736861726560d81b604482015290519081900360640190fd5b610f8f6001600160a01b0384168284611fea565b505050565b6004546001600160a01b031681565b6006546001600160a01b031681565b6001600160a01b031660009081526003602052604090205490565b6001600160a01b031660009081526007602052604090205490565b6006546040805163900cf0cf60e01b815290516000926001600160a01b03169163900cf0cf916004808301926020929190829003018186803b158015610e6b57600080fd5b611035611fac565b156110715760405162461bcd60e51b81526004018080602001828103825260268152602001806124ba6026913960400191505060405180910390fd5b611079611fcb565b156110b55760405162461bcd60e51b81526004018080602001828103825260268152602001806124ba6026913960400191505060405180910390fd5b6004546001600160a01b031633146110fe5760405162461bcd60e51b81526004018080602001828103825260258152602001806124486025913960400191505060405180910390fd5b60008111611153576040805162461bcd60e51b815260206004820152601c60248201527f426f617264726f6f6d3a2043616e6e6f7420616c6c6f63617465203000000000604482015290519081900360640190fd5b600061115d6107ac565b116111995760405162461bcd60e51b815260040180806020018281038252603081526020018061238c6030913960400191505060405180910390fd5b60006111a3611d76565b60400151905060006111d26111cb6111b96107ac565b61061e86670de0b6b3a7640000611e8b565b8390611f52565b90506111dc61231d565b5060408051606081018252438152602081018581529181018381526008805460018101825560009190915282517ff3f7a9fe364faab93b216da50a3214154f22a0a2b415b23a84c8169e8b636ee360039092029182015592517ff3f7a9fe364faab93b216da50a3214154f22a0a2b415b23a84c8169e8b636ee4840155517ff3f7a9fe364faab93b216da50a3214154f22a0a2b415b23a84c8169e8b636ee59092019190915560055461129a906001600160a01b031633308761203c565b60408051858152905133917fac24935fd910bc682b5ccb1a07b718cadf8cf2f6d1404c4f3ddc3662dae40e29919081900360200190a25050436000908152602081815260408083203284529091528082208054600160ff19918216811790925533845291909220805490911690911790555050565b611317611fac565b156113535760405162461bcd60e51b81526004018080602001828103825260268152602001806124ba6026913960400191505060405180910390fd5b61135b611fcb565b156113975760405162461bcd60e51b81526004018080602001828103825260268152602001806124ba6026913960400191505060405180910390fd5b338015611431576113a661231d565b506001600160a01b03811660009081526007602090815260409182902082516060810184528154815260018201549281019290925260020154918101919091526113ef826105b1565b60208201526113fc610dfd565b81526001600160a01b038216600090815260076020908152604091829020835181559083015160018201559101516002909101555b60008211611486576040805162461bcd60e51b815260206004820152601960248201527f426f617264726f6f6d3a2043616e6e6f74207374616b65203000000000000000604482015290519081900360640190fd5b60015461149e906001600160a01b031633308561203c565b600d54156114f05760006114c2606461061e600d5486611e8b90919063ffffffff16565b600b546001549192506114e2916001600160a01b03908116911683611fea565b6114ec8382611e29565b9250505b6002546114fd9083611f52565b6002553360009081526003602052604090205461151a9083611f52565b3360009081526003602090815260409182902092909255600654815163900cf0cf60e01b815291516001600160a01b039091169263900cf0cf9260048082019391829003018186803b15801561156f57600080fd5b505afa158015611583573d6000803e3d6000fd5b505050506040513d602081101561159957600080fd5b505133600081815260076020908152604091829020600201939093558051858152905191927f9e71bc8eea02a63969f509818f2dafb9254532904319f9dbda79b67bd34a5f3d92918290030190a25050436000908152602081815260408083203284529091528082208054600160ff1991821681179092553384529190922080549091169091179055565b6001546001600160a01b031681565b6004546001600160a01b0316331461167c5760405162461bcd60e51b81526004018080602001828103825260258152602001806124486025913960400191505060405180910390fd5b600480546001600160a01b0319166001600160a01b0392909216919091179055565b6004546001600160a01b031633146116e75760405162461bcd60e51b81526004018080602001828103825260258152602001806124486025913960400191505060405180910390fd5b601481111561173d576040805162461bcd60e51b815260206004820152601760248201527f4d61782077697468647261772066656520697320323025000000000000000000604482015290519081900360640190fd5b600c55565b600b546001600160a01b031681565b3380156117eb5761176061231d565b506001600160a01b03811660009081526007602090815260409182902082516060810184528154815260018201549281019290925260020154918101919091526117a9826105b1565b60208201526117b6610dfd565b81526001600160a01b038216600090815260076020908152604091829020835181559083015160018201559101516002909101555b3360009081526007602052604090206001015480156119c457600660009054906101000a90046001600160a01b03166001600160a01b031663900cf0cf6040518163ffffffff1660e01b815260040160206040518083038186803b15801561185257600080fd5b505afa158015611866573d6000803e3d6000fd5b505050506040513d602081101561187c57600080fd5b5051600a543360009081526007602052604090206002015461189d91611f52565b11156118da5760405162461bcd60e51b81526004018080602001828103825260218152602001806124046021913960400191505060405180910390fd5b600660009054906101000a90046001600160a01b03166001600160a01b031663900cf0cf6040518163ffffffff1660e01b815260040160206040518083038186803b15801561192857600080fd5b505afa15801561193c573d6000803e3d6000fd5b505050506040513d602081101561195257600080fd5b5051336000818152600760205260408120600281019390935560019092019190915560055461198d916001600160a01b039091169083611fea565b60408051828152905133917fe2403640ba68fed3a2f88b7557551d1993f84b99bb10ff833f0cf8db0c5e0486919081900360200190a25b5050565b600454600160a01b900460ff1615611a27576040805162461bcd60e51b815260206004820152601e60248201527f426f617264726f6f6d3a20616c726561647920696e697469616c697a65640000604482015290519081900360640190fd5b600580546001600160a01b038086166001600160a01b0319928316179092556001805485841690831617905560068054928416929091169190911790556002600d819055600c5560c8600e55611a7b61231d565b50604080516060810182524380825260006020808401828152848601838152600880546001818101835591909552865160039095027ff3f7a9fe364faab93b216da50a3214154f22a0a2b415b23a84c8169e8b636ee381019590955591517ff3f7a9fe364faab93b216da50a3214154f22a0a2b415b23a84c8169e8b636ee4850155517ff3f7a9fe364faab93b216da50a3214154f22a0a2b415b23a84c8169e8b636ee5909301929092556002600955600a91909155600480546001600160a01b031960ff60a01b19909116600160a01b171633908117909155845192835293519293927f25ff68dd81b34665b5ba7e553ee5511bf6812e12adb4a7e2c0d9e26b3099ce799281900390910190a250505050565b60088181548110611b9c57fe5b600091825260209091206003909102018054600182015460029092015490925083565b600654604080516362cb3e1360e11b815290516000926001600160a01b03169163c5967c26916004808301926020929190829003018186803b158015610e6b57600080fd5b6004546001600160a01b03163314611c4d5760405162461bcd60e51b81526004018080602001828103825260258152602001806124486025913960400191505060405180910390fd5b6005811115611c99576040805162461bcd60e51b81526020600482015260136024820152724d6178207374616b652066656520697320352560681b604482015290519081900360640190fd5b600d55565b600c5481565b611cb5611cb033610fb2565b610857565b565b6004546001600160a01b03163314611d005760405162461bcd60e51b81526004018080602001828103825260258152602001806124486025913960400191505060405180910390fd5b6001600160a01b038116611d455760405162461bcd60e51b81526004018080602001828103825260278152602001806123bc6027913960400191505060405180910390fd5b600b80546001600160a01b0319166001600160a01b0392909216919091179055565b6005546001600160a01b031681565b611d7e61231d565b6008611d88610dfd565b81548110611d9257fe5b90600052602060002090600302016040518060600160405290816000820154815260200160018201548152602001600282015481525050905090565b611dd661231d565b6008611de183610fcd565b81548110611deb57fe5b906000526020600020906003020160405180606001604052908160008201548152602001600182015481526020016002820154815250509050919050565b600082821115611e80576040805162461bcd60e51b815260206004820152601e60248201527f536166654d6174683a207375627472616374696f6e206f766572666c6f770000604482015290519081900360640190fd5b508082035b92915050565b600082611e9a57506000611e85565b82820282848281611ea757fe5b0414611ee45760405162461bcd60e51b81526004018080602001828103825260218152602001806123e36021913960400191505060405180910390fd5b9392505050565b6000808211611f41576040805162461bcd60e51b815260206004820152601a60248201527f536166654d6174683a206469766973696f6e206279207a65726f000000000000604482015290519081900360640190fd5b818381611f4a57fe5b049392505050565b600082820183811015611ee4576040805162461bcd60e51b815260206004820152601b60248201527f536166654d6174683a206164646974696f6e206f766572666c6f770000000000604482015290519081900360640190fd5b4360009081526020818152604080832032845290915290205460ff1690565b4360009081526020818152604080832033845290915290205460ff1690565b604080516001600160a01b038416602482015260448082018490528251808303909101815260649091019091526020810180516001600160e01b031663a9059cbb60e01b179052610f8f90849061209c565b604080516001600160a01b0380861660248301528416604482015260648082018490528251808303909101815260849091019091526020810180516001600160e01b03166323b872dd60e01b17905261209690859061209c565b50505050565b60606120f1826040518060400160405280602081526020017f5361666545524332303a206c6f772d6c6576656c2063616c6c206661696c6564815250856001600160a01b031661214d9092919063ffffffff16565b805190915015610f8f5780806020019051602081101561211057600080fd5b5051610f8f5760405162461bcd60e51b815260040180806020018281038252602a815260200180612490602a913960400191505060405180910390fd5b606061062a84846000858561216185612273565b6121b2576040805162461bcd60e51b815260206004820152601d60248201527f416464726573733a2063616c6c20746f206e6f6e2d636f6e7472616374000000604482015290519081900360640190fd5b60006060866001600160a01b031685876040518082805190602001908083835b602083106121f15780518252601f1990920191602091820191016121d2565b6001836020036101000a03801982511681845116808217855250505050505090500191505060006040518083038185875af1925050503d8060008114612253576040519150601f19603f3d011682016040523d82523d6000602084013e612258565b606091505b5091509150612268828286612279565b979650505050505050565b3b151590565b60608315612288575081611ee4565b8251156122985782518084602001fd5b8160405162461bcd60e51b81526004018080602001828103825283818151815260200191508051906020019080838360005b838110156122e25781810151838201526020016122ca565b50505050905090810190601f16801561230f5780820380516001836020036101000a031916815260200191505b509250505060405180910390fd5b6040518060600160405280600081526020016000815260200160008152509056fe776974686472617720666565206d756c7469706c696572206d75737420626520317820746f20313078426f617264726f6f6d3a20546865206d656d62657220646f6573206e6f74206578697374426f617264726f6f6d3a2043616e6e6f7420616c6c6f63617465207768656e20746f74616c537570706c7920697320307265736572766546756e6420616464726573732063616e6e6f7420626520302061646472657373536166654d6174683a206d756c7469706c69636174696f6e206f766572666c6f77426f617264726f6f6d3a207374696c6c20696e20726577617264206c6f636b75705f77697468647261774c6f636b757045706f6368733a206f7574206f662072616e6765426f617264726f6f6d3a2063616c6c6572206973206e6f7420746865206f70657261746f72426f617264726f6f6d3a207374696c6c20696e207769746864726177206c6f636b75705361666545524332303a204552433230206f7065726174696f6e20646964206e6f742073756363656564436f6e747261637447756172643a206f6e6520626c6f636b2c206f6e652066756e6374696f6e426f617264726f6f6d3a20776974686472617720726571756573742067726561746572207468616e207374616b656420616d6f756e74a26469706673582212200b45af45c26545778eb60f1fa328a363e27da1dfdd52164654b5892db7d871fa64736f6c634300060c0033",
  "devdoc": {
    "kind": "dev",
    "methods": {},
    "version": 1
  },
  "userdoc": {
    "kind": "user",
    "methods": {},
    "version": 1
  },
  "storageLayout": {
    "storage": [
      {
        "astId": 27761,
        "contract": "contracts/Boardroom/BoardroomBOMB.sol:BoardroomBOMB",
        "label": "_status",
        "offset": 0,
        "slot": "0",
        "type": "t_mapping(t_uint256,t_mapping(t_address,t_bool))"
      },
      {
        "astId": 4046,
        "contract": "contracts/Boardroom/BoardroomBOMB.sol:BoardroomBOMB",
        "label": "share",
        "offset": 0,
        "slot": "1",
        "type": "t_contract(IERC20)1430"
      },
      {
        "astId": 4048,
        "contract": "contracts/Boardroom/BoardroomBOMB.sol:BoardroomBOMB",
        "label": "_totalSupply",
        "offset": 0,
        "slot": "2",
        "type": "t_uint256"
      },
      {
        "astId": 4052,
        "contract": "contracts/Boardroom/BoardroomBOMB.sol:BoardroomBOMB",
        "label": "_balances",
        "offset": 0,
        "slot": "3",
        "type": "t_mapping(t_address,t_uint256)"
      },
      {
        "astId": 4054,
        "contract": "contracts/Boardroom/BoardroomBOMB.sol:BoardroomBOMB",
        "label": "operator",
        "offset": 0,
        "slot": "4",
        "type": "t_address"
      },
      {
        "astId": 4057,
        "contract": "contracts/Boardroom/BoardroomBOMB.sol:BoardroomBOMB",
        "label": "initialized",
        "offset": 20,
        "slot": "4",
        "type": "t_bool"
      },
      {
        "astId": 4059,
        "contract": "contracts/Boardroom/BoardroomBOMB.sol:BoardroomBOMB",
        "label": "token",
        "offset": 0,
        "slot": "5",
        "type": "t_contract(IERC20)1430"
      },
      {
        "astId": 4061,
        "contract": "contracts/Boardroom/BoardroomBOMB.sol:BoardroomBOMB",
        "label": "treasury",
        "offset": 0,
        "slot": "6",
        "type": "t_contract(ITreasury)26315"
      },
      {
        "astId": 4065,
        "contract": "contracts/Boardroom/BoardroomBOMB.sol:BoardroomBOMB",
        "label": "members",
        "offset": 0,
        "slot": "7",
        "type": "t_mapping(t_address,t_struct(Memberseat)4037_storage)"
      },
      {
        "astId": 4068,
        "contract": "contracts/Boardroom/BoardroomBOMB.sol:BoardroomBOMB",
        "label": "boardroomHistory",
        "offset": 0,
        "slot": "8",
        "type": "t_array(t_struct(BoardroomSnapshot)4044_storage)dyn_storage"
      },
      {
        "astId": 4070,
        "contract": "contracts/Boardroom/BoardroomBOMB.sol:BoardroomBOMB",
        "label": "withdrawLockupEpochs",
        "offset": 0,
        "slot": "9",
        "type": "t_uint256"
      },
      {
        "astId": 4072,
        "contract": "contracts/Boardroom/BoardroomBOMB.sol:BoardroomBOMB",
        "label": "rewardLockupEpochs",
        "offset": 0,
        "slot": "10",
        "type": "t_uint256"
      },
      {
        "astId": 4074,
        "contract": "contracts/Boardroom/BoardroomBOMB.sol:BoardroomBOMB",
        "label": "reserveFund",
        "offset": 0,
        "slot": "11",
        "type": "t_address"
      },
      {
        "astId": 4076,
        "contract": "contracts/Boardroom/BoardroomBOMB.sol:BoardroomBOMB",
        "label": "withdrawFee",
        "offset": 0,
        "slot": "12",
        "type": "t_uint256"
      },
      {
        "astId": 4078,
        "contract": "contracts/Boardroom/BoardroomBOMB.sol:BoardroomBOMB",
        "label": "stakeFee",
        "offset": 0,
        "slot": "13",
        "type": "t_uint256"
      },
      {
        "astId": 4080,
        "contract": "contracts/Boardroom/BoardroomBOMB.sol:BoardroomBOMB",
        "label": "withdrawFeeMultiplier",
        "offset": 0,
        "slot": "14",
        "type": "t_uint256"
      }
    ],
    "types": {
      "t_address": {
        "encoding": "inplace",
        "label": "address",
        "numberOfBytes": "20"
      },
      "t_array(t_struct(BoardroomSnapshot)4044_storage)dyn_storage": {
        "base": "t_struct(BoardroomSnapshot)4044_storage",
        "encoding": "dynamic_array",
        "label": "struct BoardroomBOMB.BoardroomSnapshot[]",
        "numberOfBytes": "32"
      },
      "t_bool": {
        "encoding": "inplace",
        "label": "bool",
        "numberOfBytes": "1"
      },
      "t_contract(IERC20)1430": {
        "encoding": "inplace",
        "label": "contract IERC20",
        "numberOfBytes": "20"
      },
      "t_contract(ITreasury)26315": {
        "encoding": "inplace",
        "label": "contract ITreasury",
        "numberOfBytes": "20"
      },
      "t_mapping(t_address,t_bool)": {
        "encoding": "mapping",
        "key": "t_address",
        "label": "mapping(address => bool)",
        "numberOfBytes": "32",
        "value": "t_bool"
      },
      "t_mapping(t_address,t_struct(Memberseat)4037_storage)": {
        "encoding": "mapping",
        "key": "t_address",
        "label": "mapping(address => struct BoardroomBOMB.Memberseat)",
        "numberOfBytes": "32",
        "value": "t_struct(Memberseat)4037_storage"
      },
      "t_mapping(t_address,t_uint256)": {
        "encoding": "mapping",
        "key": "t_address",
        "label": "mapping(address => uint256)",
        "numberOfBytes": "32",
        "value": "t_uint256"
      },
      "t_mapping(t_uint256,t_mapping(t_address,t_bool))": {
        "encoding": "mapping",
        "key": "t_uint256",
        "label": "mapping(uint256 => mapping(address => bool))",
        "numberOfBytes": "32",
        "value": "t_mapping(t_address,t_bool)"
      },
      "t_struct(BoardroomSnapshot)4044_storage": {
        "encoding": "inplace",
        "label": "struct BoardroomBOMB.BoardroomSnapshot",
        "members": [
          {
            "astId": 4039,
            "contract": "contracts/Boardroom/BoardroomBOMB.sol:BoardroomBOMB",
            "label": "time",
            "offset": 0,
            "slot": "0",
            "type": "t_uint256"
          },
          {
            "astId": 4041,
            "contract": "contracts/Boardroom/BoardroomBOMB.sol:BoardroomBOMB",
            "label": "rewardReceived",
            "offset": 0,
            "slot": "1",
            "type": "t_uint256"
          },
          {
            "astId": 4043,
            "contract": "contracts/Boardroom/BoardroomBOMB.sol:BoardroomBOMB",
            "label": "rewardPerShare",
            "offset": 0,
            "slot": "2",
            "type": "t_uint256"
          }
        ],
        "numberOfBytes": "96"
      },
      "t_struct(Memberseat)4037_storage": {
        "encoding": "inplace",
        "label": "struct BoardroomBOMB.Memberseat",
        "members": [
          {
            "astId": 4032,
            "contract": "contracts/Boardroom/BoardroomBOMB.sol:BoardroomBOMB",
            "label": "lastSnapshotIndex",
            "offset": 0,
            "slot": "0",
            "type": "t_uint256"
          },
          {
            "astId": 4034,
            "contract": "contracts/Boardroom/BoardroomBOMB.sol:BoardroomBOMB",
            "label": "rewardEarned",
            "offset": 0,
            "slot": "1",
            "type": "t_uint256"
          },
          {
            "astId": 4036,
            "contract": "contracts/Boardroom/BoardroomBOMB.sol:BoardroomBOMB",
            "label": "epochTimerStart",
            "offset": 0,
            "slot": "2",
            "type": "t_uint256"
          }
        ],
        "numberOfBytes": "96"
      },
      "t_uint256": {
        "encoding": "inplace",
        "label": "uint256",
        "numberOfBytes": "32"
      }
    }
  }
}