{
  "address": "0x6dDb381481c4282CCe9b64241f0bcB17C562744D",
  "abi": [
    {
      "inputs": [
        {
          "internalType": "address",
          "name": "_share",
          "type": "address"
        },
        {
          "internalType": "uint256",
          "name": "_poolStartTime",
          "type": "uint256"
        }
      ],
      "stateMutability": "nonpayable",
      "type": "constructor"
    },
    {
      "anonymous": false,
      "inputs": [
        {
          "indexed": true,
          "internalType": "address",
          "name": "user",
          "type": "address"
        },
        {
          "indexed": true,
          "internalType": "uint256",
          "name": "pid",
          "type": "uint256"
        },
        {
          "indexed": false,
          "internalType": "uint256",
          "name": "amount",
          "type": "uint256"
        }
      ],
      "name": "Deposit",
      "type": "event"
    },
    {
      "anonymous": false,
      "inputs": [
        {
          "indexed": true,
          "internalType": "address",
          "name": "user",
          "type": "address"
        },
        {
          "indexed": true,
          "internalType": "uint256",
          "name": "pid",
          "type": "uint256"
        },
        {
          "indexed": false,
          "internalType": "uint256",
          "name": "amount",
          "type": "uint256"
        }
      ],
      "name": "EmergencyWithdraw",
      "type": "event"
    },
    {
      "anonymous": false,
      "inputs": [
        {
          "indexed": true,
          "internalType": "address",
          "name": "user",
          "type": "address"
        },
        {
          "indexed": false,
          "internalType": "uint256",
          "name": "amount",
          "type": "uint256"
        }
      ],
      "name": "RewardPaid",
      "type": "event"
    },
    {
      "anonymous": false,
      "inputs": [
        {
          "indexed": true,
          "internalType": "address",
          "name": "user",
          "type": "address"
        },
        {
          "indexed": true,
          "internalType": "uint256",
          "name": "pid",
          "type": "uint256"
        },
        {
          "indexed": false,
          "internalType": "uint256",
          "name": "amount",
          "type": "uint256"
        }
      ],
      "name": "Withdraw",
      "type": "event"
    },
    {
      "inputs": [],
      "name": "TOTAL_REWARDS",
      "outputs": [
        {
          "internalType": "uint256",
          "name": "",
          "type": "uint256"
        }
      ],
      "stateMutability": "view",
      "type": "function"
    },
    {
      "inputs": [
        {
          "internalType": "uint256",
          "name": "_allocPoint",
          "type": "uint256"
        },
        {
          "internalType": "contract IERC20",
          "name": "_token",
          "type": "address"
        },
        {
          "internalType": "bool",
          "name": "_withUpdate",
          "type": "bool"
        },
        {
          "internalType": "uint256",
          "name": "_lastRewardTime",
          "type": "uint256"
        }
      ],
      "name": "add",
      "outputs": [],
      "stateMutability": "nonpayable",
      "type": "function"
    },
    {
      "inputs": [
        {
          "internalType": "uint256",
          "name": "_pid",
          "type": "uint256"
        },
        {
          "internalType": "uint256",
          "name": "_amount",
          "type": "uint256"
        }
      ],
      "name": "deposit",
      "outputs": [],
      "stateMutability": "nonpayable",
      "type": "function"
    },
    {
      "inputs": [
        {
          "internalType": "uint256",
          "name": "_pid",
          "type": "uint256"
        }
      ],
      "name": "emergencyWithdraw",
      "outputs": [],
      "stateMutability": "nonpayable",
      "type": "function"
    },
    {
      "inputs": [
        {
          "internalType": "uint256",
          "name": "_fromTime",
          "type": "uint256"
        },
        {
          "internalType": "uint256",
          "name": "_toTime",
          "type": "uint256"
        }
      ],
      "name": "getGeneratedReward",
      "outputs": [
        {
          "internalType": "uint256",
          "name": "",
          "type": "uint256"
        }
      ],
      "stateMutability": "view",
      "type": "function"
    },
    {
      "inputs": [
        {
          "internalType": "contract IERC20",
          "name": "_token",
          "type": "address"
        },
        {
          "internalType": "uint256",
          "name": "amount",
          "type": "uint256"
        },
        {
          "internalType": "address",
          "name": "to",
          "type": "address"
        }
      ],
      "name": "governanceRecoverUnsupported",
      "outputs": [],
      "stateMutability": "nonpayable",
      "type": "function"
    },
    {
      "inputs": [],
      "name": "massUpdatePools",
      "outputs": [],
      "stateMutability": "nonpayable",
      "type": "function"
    },
    {
      "inputs": [],
      "name": "operator",
      "outputs": [
        {
          "internalType": "address",
          "name": "",
          "type": "address"
        }
      ],
      "stateMutability": "view",
      "type": "function"
    },
    {
      "inputs": [
        {
          "internalType": "uint256",
          "name": "_pid",
          "type": "uint256"
        },
        {
          "internalType": "address",
          "name": "_user",
          "type": "address"
        }
      ],
      "name": "pendingShare",
      "outputs": [
        {
          "internalType": "uint256",
          "name": "",
          "type": "uint256"
        }
      ],
      "stateMutability": "view",
      "type": "function"
    },
    {
      "inputs": [],
      "name": "poolEndTime",
      "outputs": [
        {
          "internalType": "uint256",
          "name": "",
          "type": "uint256"
        }
      ],
      "stateMutability": "view",
      "type": "function"
    },
    {
      "inputs": [
        {
          "internalType": "uint256",
          "name": "",
          "type": "uint256"
        }
      ],
      "name": "poolInfo",
      "outputs": [
        {
          "internalType": "contract IERC20",
          "name": "token",
          "type": "address"
        },
        {
          "internalType": "uint256",
          "name": "allocPoint",
          "type": "uint256"
        },
        {
          "internalType": "uint256",
          "name": "lastRewardTime",
          "type": "uint256"
        },
        {
          "internalType": "uint256",
          "name": "accSharePerShare",
          "type": "uint256"
        },
        {
          "internalType": "bool",
          "name": "isStarted",
          "type": "bool"
        }
      ],
      "stateMutability": "view",
      "type": "function"
    },
    {
      "inputs": [],
      "name": "poolStartTime",
      "outputs": [
        {
          "internalType": "uint256",
          "name": "",
          "type": "uint256"
        }
      ],
      "stateMutability": "view",
      "type": "function"
    },
    {
      "inputs": [],
      "name": "runningTime",
      "outputs": [
        {
          "internalType": "uint256",
          "name": "",
          "type": "uint256"
        }
      ],
      "stateMutability": "view",
      "type": "function"
    },
    {
      "inputs": [
        {
          "internalType": "uint256",
          "name": "_pid",
          "type": "uint256"
        },
        {
          "internalType": "uint256",
          "name": "_allocPoint",
          "type": "uint256"
        }
      ],
      "name": "set",
      "outputs": [],
      "stateMutability": "nonpayable",
      "type": "function"
    },
    {
      "inputs": [
        {
          "internalType": "address",
          "name": "_operator",
          "type": "address"
        }
      ],
      "name": "setOperator",
      "outputs": [],
      "stateMutability": "nonpayable",
      "type": "function"
    },
    {
      "inputs": [],
      "name": "share",
      "outputs": [
        {
          "internalType": "contract IERC20",
          "name": "",
          "type": "address"
        }
      ],
      "stateMutability": "view",
      "type": "function"
    },
    {
      "inputs": [],
      "name": "sharePerSecond",
      "outputs": [
        {
          "internalType": "uint256",
          "name": "",
          "type": "uint256"
        }
      ],
      "stateMutability": "view",
      "type": "function"
    },
    {
      "inputs": [],
      "name": "totalAllocPoint",
      "outputs": [
        {
          "internalType": "uint256",
          "name": "",
          "type": "uint256"
        }
      ],
      "stateMutability": "view",
      "type": "function"
    },
    {
      "inputs": [
        {
          "internalType": "uint256",
          "name": "_pid",
          "type": "uint256"
        }
      ],
      "name": "updatePool",
      "outputs": [],
      "stateMutability": "nonpayable",
      "type": "function"
    },
    {
      "inputs": [
        {
          "internalType": "uint256",
          "name": "",
          "type": "uint256"
        },
        {
          "internalType": "address",
          "name": "",
          "type": "address"
        }
      ],
      "name": "userInfo",
      "outputs": [
        {
          "internalType": "uint256",
          "name": "amount",
          "type": "uint256"
        },
        {
          "internalType": "uint256",
          "name": "rewardDebt",
          "type": "uint256"
        }
      ],
      "stateMutability": "view",
      "type": "function"
    },
    {
      "inputs": [
        {
          "internalType": "uint256",
          "name": "_pid",
          "type": "uint256"
        },
        {
          "internalType": "uint256",
          "name": "_amount",
          "type": "uint256"
        }
      ],
      "name": "withdraw",
      "outputs": [],
      "stateMutability": "nonpayable",
      "type": "function"
    }
  ],
  "transactionHash": "0xeccd6841aee710bd59a2b1f723aece676dc71c8b9e7faa24a251d92e06c0aca3",
  "args": [
    "0x8169a36EC368882207515D6F509A2E7Fc74203d3",
    1653588000
  ],
  "numDeployments": 1,
  "solcInputHash": "5fe81645a873c7b3a59d89eb238a8ff0",
  "bytecode": "0x6080604052600060045566041ca7d11876006007556303c2670060085534801561002857600080fd5b506040516118563803806118568339818101604052604081101561004b57600080fd5b508051602090910151428111610091576040805162461bcd60e51b815260206004808301919091526024820152636c61746560e01b604482015290519081900360640190fd5b6001600160a01b038216156100bc57600180546001600160a01b0319166001600160a01b0384161790555b60058190556008540160065550600080546001600160a01b0319163317905561176c806100ea6000396000f3fe608060405234801561001057600080fd5b50600436106101375760003560e01c80635752933a116100b8578063943f013d1161007c578063943f013d1461031657806396805e541461031e578063a8d5fd6514610358578063b3ab15fb14610360578063cf4b55cb14610386578063e2bbb158146103b257610137565b80635752933a146102b15780635f96dc11146102b9578063630b5ba1146102c15780636e271dd5146102c957806393f1a40b146102d157610137565b8063441a3e70116100ff578063441a3e70146101fa57806351eb05a61461021d5780635312ea8e1461023a57806354575af414610257578063570ca7351461028d57610137565b806309cf60911461013c5780631526fe271461015657806317caf6f1146101aa5780631ab06ee5146101b2578063231f0c6a146101d7575b600080fd5b6101446103d5565b60408051918252519081900360200190f35b6101736004803603602081101561016c57600080fd5b50356103e3565b604080516001600160a01b039096168652602086019490945284840192909252606084015215156080830152519081900360a00190f35b61014461042e565b6101d5600480360360408110156101c857600080fd5b5080359060200135610434565b005b610144600480360360408110156101ed57600080fd5b50803590602001356104e2565b6101d56004803603604081101561021057600080fd5b50803590602001356105a7565b6101d56004803603602081101561023357600080fd5b5035610764565b6101d56004803603602081101561025057600080fd5b50356108c2565b6101d56004803603606081101561026d57600080fd5b506001600160a01b0381358116916020810135916040909101351661095e565b610295610aa5565b604080516001600160a01b039092168252519081900360200190f35b610144610ab4565b610144610aba565b6101d5610ac0565b610144610ae3565b6102fd600480360360408110156102e757600080fd5b50803590602001356001600160a01b0316610ae9565b6040805192835260208301919091528051918290030190f35b610144610b0d565b6101d56004803603608081101561033457600080fd5b508035906001600160a01b0360208201351690604081013515159060600135610b13565b610295610d10565b6101d56004803603602081101561037657600080fd5b50356001600160a01b0316610d1f565b6101446004803603604081101561039c57600080fd5b50803590602001356001600160a01b0316610d8a565b6101d5600480360360408110156103c857600080fd5b5080359060200135610ee6565b690f7556828d6c7ba0000081565b600281815481106103f057fe5b6000918252602090912060059091020180546001820154600283015460038401546004909401546001600160a01b0390931694509092909160ff1685565b60045481565b6000546001600160a01b0316331461047d5760405162461bcd60e51b815260040180806020018281038252602c8152602001806116e1602c913960400191505060405180910390fd5b610485610ac0565b60006002838154811061049457fe5b60009182526020909120600590910201600481015490915060ff16156104db576104d7826104d1836001015460045461105690919063ffffffff16565b906110b3565b6004555b6001015550565b60008183106104f3575060006105a1565b600654821061055b57600654831061050d575060006105a1565b60055483116105405761053960075461053360055460065461105690919063ffffffff16565b90611114565b90506105a1565b6105396007546105338560065461105690919063ffffffff16565b600554821161056c575060006105a1565b6005548311610590576105396007546105336005548561105690919063ffffffff16565b600754610539906105338486611056565b92915050565b60003390506000600284815481106105bb57fe5b600091825260208083208784526003825260408085206001600160a01b03881686529092529220805460059092029092019250841115610637576040805162461bcd60e51b81526020600482015260126024820152711dda5d1a191c985dce881b9bdd0819dbdbd960721b604482015290519081900360640190fd5b61064085610764565b600061067d8260010154610677670de0b6b3a76400006106718760030154876000015461111490919063ffffffff16565b9061116d565b90611056565b905080156106cf5761068f84826111d4565b6040805182815290516001600160a01b038616917fe2403640ba68fed3a2f88b7557551d1993f84b99bb10ff833f0cf8db0c5e0486919081900360200190a25b84156106f95781546106e19086611056565b825582546106f9906001600160a01b0316858761128a565b6003830154825461071791670de0b6b3a76400009161067191611114565b600183015560408051868152905187916001600160a01b038716917ff279e6a1f5e320cca91135676d9cb6e44ca8a08c0b88342bcdb1144f6511b5689181900360200190a3505050505050565b60006002828154811061077357fe5b906000526020600020906005020190508060020154421161079457506108bf565b8054604080516370a0823160e01b815230600482015290516000926001600160a01b0316916370a08231916024808301926020929190829003018186803b1580156107de57600080fd5b505afa1580156107f2573d6000803e3d6000fd5b505050506040513d602081101561080857600080fd5b505190508061081e5750426002909101556108bf565b600482015460ff1661084f576004808301805460ff19166001908117909155830154905461084b916110b3565b6004555b600454156108b65760006108678360020154426104e2565b9050600061088860045461067186600101548561111490919063ffffffff16565b90506108ae6108a38461067184670de0b6b3a7640000611114565b6003860154906110b3565b600385015550505b50426002909101555b50565b6000600282815481106108d157fe5b600091825260208083208584526003825260408085203380875293528420805485825560018201959095556005909302018054909450919291610921916001600160a01b0391909116908361128a565b604080518281529051859133917fbb757047c2b5f3974fe26b7c10f732e7bce710b0952a71082702781e62ae05959181900360200190a350505050565b6000546001600160a01b031633146109a75760405162461bcd60e51b815260040180806020018281038252602c8152602001806116e1602c913960400191505060405180910390fd5b6006546276a70001421015610a8c576001546001600160a01b0384811691161415610a01576040805162461bcd60e51b8152602060048201526005602482015264736861726560d81b604482015290519081900360640190fd5b60025460005b81811015610a8957600060028281548110610a1e57fe5b6000918252602090912060059091020180549091506001600160a01b0387811691161415610a80576040805162461bcd60e51b815260206004820152600a6024820152693837b7b6173a37b5b2b760b11b604482015290519081900360640190fd5b50600101610a07565b50505b610aa06001600160a01b038416828461128a565b505050565b6000546001600160a01b031681565b60075481565b60055481565b60025460005b81811015610adf57610ad781610764565b600101610ac6565b5050565b60065481565b60036020908152600092835260408084209091529082529020805460019091015482565b60085481565b6000546001600160a01b03163314610b5c5760405162461bcd60e51b815260040180806020018281038252602c8152602001806116e1602c913960400191505060405180910390fd5b610b65836112dc565b8115610b7357610b73610ac0565b600554421015610b9f5780610b8b5750600554610b9a565b600554811015610b9a57506005545b610bb3565b801580610bab57504281105b15610bb35750425b600060055482111580610bc65750428211155b6040805160a0810182526001600160a01b03878116825260208201898152928201868152600060608401818152861580156080870190815260028054600181018255945295517f405787fa12a823e0f2b7631cc41b3ba8828b3321ca811111fa75cd3aa3bb5ace600590940293840180546001600160a01b031916919096161790945594517f405787fa12a823e0f2b7631cc41b3ba8828b3321ca811111fa75cd3aa3bb5acf82015590517f405787fa12a823e0f2b7631cc41b3ba8828b3321ca811111fa75cd3aa3bb5ad082015592517f405787fa12a823e0f2b7631cc41b3ba8828b3321ca811111fa75cd3aa3bb5ad184015590517f405787fa12a823e0f2b7631cc41b3ba8828b3321ca811111fa75cd3aa3bb5ad2909201805460ff191692151592909217909155909150610d0957600454610d0590866110b3565b6004555b5050505050565b6001546001600160a01b031681565b6000546001600160a01b03163314610d685760405162461bcd60e51b815260040180806020018281038252602c8152602001806116e1602c913960400191505060405180910390fd5b600080546001600160a01b0319166001600160a01b0392909216919091179055565b60008060028481548110610d9a57fe5b60009182526020808320878452600380835260408086206001600160a01b03808b168852908552818720600590960290930191820154825482516370a0823160e01b815230600482015292519398509596909590949316926370a0823192602480840193829003018186803b158015610e1257600080fd5b505afa158015610e26573d6000803e3d6000fd5b505050506040513d6020811015610e3c57600080fd5b5051600285015490915042118015610e5357508015155b15610eb0576000610e688560020154426104e2565b90506000610e8960045461067188600101548561111490919063ffffffff16565b9050610eab610ea48461067184670de0b6b3a7640000611114565b85906110b3565b935050505b610edb8360010154610677670de0b6b3a764000061067186886000015461111490919063ffffffff16565b979650505050505050565b6000339050600060028481548110610efa57fe5b600091825260208083208784526003825260408085206001600160a01b0388168652909252922060059091029091019150610f3485610764565b805415610fc0576000610f6c8260010154610677670de0b6b3a76400006106718760030154876000015461111490919063ffffffff16565b90508015610fbe57610f7e84826111d4565b6040805182815290516001600160a01b038616917fe2403640ba68fed3a2f88b7557551d1993f84b99bb10ff833f0cf8db0c5e0486919081900360200190a25b505b8315610fec578154610fdd906001600160a01b0316843087611376565b8054610fe990856110b3565b81555b6003820154815461100a91670de0b6b3a76400009161067191611114565b600182015560408051858152905186916001600160a01b038616917f90890809c654f11d6e72a28fa60149770a0d11ec6c92319d6ceb2bb0a4ea1a159181900360200190a35050505050565b6000828211156110ad576040805162461bcd60e51b815260206004820152601e60248201527f536166654d6174683a207375627472616374696f6e206f766572666c6f770000604482015290519081900360640190fd5b50900390565b60008282018381101561110d576040805162461bcd60e51b815260206004820152601b60248201527f536166654d6174683a206164646974696f6e206f766572666c6f770000000000604482015290519081900360640190fd5b9392505050565b600082611123575060006105a1565b8282028284828161113057fe5b041461110d5760405162461bcd60e51b81526004018080602001828103825260218152602001806116c06021913960400191505060405180910390fd5b60008082116111c3576040805162461bcd60e51b815260206004820152601a60248201527f536166654d6174683a206469766973696f6e206279207a65726f000000000000604482015290519081900360640190fd5b8183816111cc57fe5b049392505050565b600154604080516370a0823160e01b815230600482015290516000926001600160a01b0316916370a08231916024808301926020929190829003018186803b15801561121f57600080fd5b505afa158015611233573d6000803e3d6000fd5b505050506040513d602081101561124957600080fd5b505190508015610aa0578082111561127757600154611272906001600160a01b0316848361128a565b610aa0565b600154610aa0906001600160a01b031684845b604080516001600160a01b038416602482015260448082018490528251808303909101815260649091019091526020810180516001600160e01b031663a9059cbb60e01b179052610aa09084906113d6565b60025460005b81811015610aa057826001600160a01b03166002828154811061130157fe5b60009182526020909120600590910201546001600160a01b0316141561136e576040805162461bcd60e51b815260206004820181905260248201527f535368617265526577617264506f6f6c3a206578697374696e6720706f6f6c3f604482015290519081900360640190fd5b6001016112e2565b604080516001600160a01b0380861660248301528416604482015260648082018490528251808303909101815260849091019091526020810180516001600160e01b03166323b872dd60e01b1790526113d09085906113d6565b50505050565b606061142b826040518060400160405280602081526020017f5361666545524332303a206c6f772d6c6576656c2063616c6c206661696c6564815250856001600160a01b03166114879092919063ffffffff16565b805190915015610aa05780806020019051602081101561144a57600080fd5b5051610aa05760405162461bcd60e51b815260040180806020018281038252602a81526020018061170d602a913960400191505060405180910390fd5b6060611496848460008561149e565b949350505050565b6060824710156114df5760405162461bcd60e51b815260040180806020018281038252602681526020018061169a6026913960400191505060405180910390fd5b6114e8856115ef565b611539576040805162461bcd60e51b815260206004820152601d60248201527f416464726573733a2063616c6c20746f206e6f6e2d636f6e7472616374000000604482015290519081900360640190fd5b60006060866001600160a01b031685876040518082805190602001908083835b602083106115785780518252601f199092019160209182019101611559565b6001836020036101000a03801982511681845116808217855250505050505090500191505060006040518083038185875af1925050503d80600081146115da576040519150601f19603f3d011682016040523d82523d6000602084013e6115df565b606091505b5091509150610edb8282866115f5565b3b151590565b6060831561160457508161110d565b8251156116145782518084602001fd5b8160405162461bcd60e51b81526004018080602001828103825283818151815260200191508051906020019080838360005b8381101561165e578181015183820152602001611646565b50505050905090810190601f16801561168b5780820380516001836020036101000a031916815260200191505b509250505060405180910390fdfe416464726573733a20696e73756666696369656e742062616c616e636520666f722063616c6c536166654d6174683a206d756c7469706c69636174696f6e206f766572666c6f77535368617265526577617264506f6f6c3a2063616c6c6572206973206e6f7420746865206f70657261746f725361666545524332303a204552433230206f7065726174696f6e20646964206e6f742073756363656564a26469706673582212204a21c8301d12aa84cdd1ce72c6e293658133158e584300db73e2c5376aca458c64736f6c634300060c0033",
  "devdoc": {
    "kind": "dev",
    "methods": {},
    "version": 1
  },
  "userdoc": {
    "kind": "user",
    "methods": {},
    "version": 1
  },
  "storageLayout": {
    "storage": [
      {
        "astId": 25047,
        "contract": "contracts/distribution/ShareFarmRewardPool.sol:ShareFarmRewardPool",
        "label": "operator",
        "offset": 0,
        "slot": "0",
        "type": "t_address"
      },
      {
        "astId": 25065,
        "contract": "contracts/distribution/ShareFarmRewardPool.sol:ShareFarmRewardPool",
        "label": "share",
        "offset": 0,
        "slot": "1",
        "type": "t_contract(IERC20)1430"
      },
      {
        "astId": 25068,
        "contract": "contracts/distribution/ShareFarmRewardPool.sol:ShareFarmRewardPool",
        "label": "poolInfo",
        "offset": 0,
        "slot": "2",
        "type": "t_array(t_struct(PoolInfo)25063_storage)dyn_storage"
      },
      {
        "astId": 25074,
        "contract": "contracts/distribution/ShareFarmRewardPool.sol:ShareFarmRewardPool",
        "label": "userInfo",
        "offset": 0,
        "slot": "3",
        "type": "t_mapping(t_uint256,t_mapping(t_address,t_struct(UserInfo)25052_storage))"
      },
      {
        "astId": 25077,
        "contract": "contracts/distribution/ShareFarmRewardPool.sol:ShareFarmRewardPool",
        "label": "totalAllocPoint",
        "offset": 0,
        "slot": "4",
        "type": "t_uint256"
      },
      {
        "astId": 25079,
        "contract": "contracts/distribution/ShareFarmRewardPool.sol:ShareFarmRewardPool",
        "label": "poolStartTime",
        "offset": 0,
        "slot": "5",
        "type": "t_uint256"
      },
      {
        "astId": 25081,
        "contract": "contracts/distribution/ShareFarmRewardPool.sol:ShareFarmRewardPool",
        "label": "poolEndTime",
        "offset": 0,
        "slot": "6",
        "type": "t_uint256"
      },
      {
        "astId": 25084,
        "contract": "contracts/distribution/ShareFarmRewardPool.sol:ShareFarmRewardPool",
        "label": "sharePerSecond",
        "offset": 0,
        "slot": "7",
        "type": "t_uint256"
      },
      {
        "astId": 25087,
        "contract": "contracts/distribution/ShareFarmRewardPool.sol:ShareFarmRewardPool",
        "label": "runningTime",
        "offset": 0,
        "slot": "8",
        "type": "t_uint256"
      }
    ],
    "types": {
      "t_address": {
        "encoding": "inplace",
        "label": "address",
        "numberOfBytes": "20"
      },
      "t_array(t_struct(PoolInfo)25063_storage)dyn_storage": {
        "base": "t_struct(PoolInfo)25063_storage",
        "encoding": "dynamic_array",
        "label": "struct ShareFarmRewardPool.PoolInfo[]",
        "numberOfBytes": "32"
      },
      "t_bool": {
        "encoding": "inplace",
        "label": "bool",
        "numberOfBytes": "1"
      },
      "t_contract(IERC20)1430": {
        "encoding": "inplace",
        "label": "contract IERC20",
        "numberOfBytes": "20"
      },
      "t_mapping(t_address,t_struct(UserInfo)25052_storage)": {
        "encoding": "mapping",
        "key": "t_address",
        "label": "mapping(address => struct ShareFarmRewardPool.UserInfo)",
        "numberOfBytes": "32",
        "value": "t_struct(UserInfo)25052_storage"
      },
      "t_mapping(t_uint256,t_mapping(t_address,t_struct(UserInfo)25052_storage))": {
        "encoding": "mapping",
        "key": "t_uint256",
        "label": "mapping(uint256 => mapping(address => struct ShareFarmRewardPool.UserInfo))",
        "numberOfBytes": "32",
        "value": "t_mapping(t_address,t_struct(UserInfo)25052_storage)"
      },
      "t_struct(PoolInfo)25063_storage": {
        "encoding": "inplace",
        "label": "struct ShareFarmRewardPool.PoolInfo",
        "members": [
          {
            "astId": 25054,
            "contract": "contracts/distribution/ShareFarmRewardPool.sol:ShareFarmRewardPool",
            "label": "token",
            "offset": 0,
            "slot": "0",
            "type": "t_contract(IERC20)1430"
          },
          {
            "astId": 25056,
            "contract": "contracts/distribution/ShareFarmRewardPool.sol:ShareFarmRewardPool",
            "label": "allocPoint",
            "offset": 0,
            "slot": "1",
            "type": "t_uint256"
          },
          {
            "astId": 25058,
            "contract": "contracts/distribution/ShareFarmRewardPool.sol:ShareFarmRewardPool",
            "label": "lastRewardTime",
            "offset": 0,
            "slot": "2",
            "type": "t_uint256"
          },
          {
            "astId": 25060,
            "contract": "contracts/distribution/ShareFarmRewardPool.sol:ShareFarmRewardPool",
            "label": "accSharePerShare",
            "offset": 0,
            "slot": "3",
            "type": "t_uint256"
          },
          {
            "astId": 25062,
            "contract": "contracts/distribution/ShareFarmRewardPool.sol:ShareFarmRewardPool",
            "label": "isStarted",
            "offset": 0,
            "slot": "4",
            "type": "t_bool"
          }
        ],
        "numberOfBytes": "160"
      },
      "t_struct(UserInfo)25052_storage": {
        "encoding": "inplace",
        "label": "struct ShareFarmRewardPool.UserInfo",
        "members": [
          {
            "astId": 25049,
            "contract": "contracts/distribution/ShareFarmRewardPool.sol:ShareFarmRewardPool",
            "label": "amount",
            "offset": 0,
            "slot": "0",
            "type": "t_uint256"
          },
          {
            "astId": 25051,
            "contract": "contracts/distribution/ShareFarmRewardPool.sol:ShareFarmRewardPool",
            "label": "rewardDebt",
            "offset": 0,
            "slot": "1",
            "type": "t_uint256"
          }
        ],
        "numberOfBytes": "64"
      },
      "t_uint256": {
        "encoding": "inplace",
        "label": "uint256",
        "numberOfBytes": "32"
      }
    }
  }
}