{
  "address": "0xFF738aDa86dBdD2A55c3bD9f2019b8e5755BFBD0",
  "abi": [
    {
      "anonymous": false,
      "inputs": [
        {
          "indexed": false,
          "internalType": "uint256",
          "name": "timestamp",
          "type": "uint256"
        },
        {
          "indexed": false,
          "internalType": "uint256",
          "name": "seigniorage",
          "type": "uint256"
        }
      ],
      "name": "BoardroomFunded",
      "type": "event"
    },
    {
      "anonymous": false,
      "inputs": [
        {
          "indexed": true,
          "internalType": "address",
          "name": "from",
          "type": "address"
        },
        {
          "indexed": false,
          "internalType": "uint256",
          "name": "tokenAmount",
          "type": "uint256"
        },
        {
          "indexed": false,
          "internalType": "uint256",
          "name": "bondAmount",
          "type": "uint256"
        }
      ],
      "name": "BoughtBonds",
      "type": "event"
    },
    {
      "anonymous": false,
      "inputs": [
        {
          "indexed": true,
          "internalType": "address",
          "name": "from",
          "type": "address"
        },
        {
          "indexed": false,
          "internalType": "uint256",
          "name": "bondAmount",
          "type": "uint256"
        }
      ],
      "name": "BurnedBonds",
      "type": "event"
    },
    {
      "anonymous": false,
      "inputs": [
        {
          "indexed": false,
          "internalType": "uint256",
          "name": "timestamp",
          "type": "uint256"
        },
        {
          "indexed": false,
          "internalType": "uint256",
          "name": "seigniorage",
          "type": "uint256"
        }
      ],
      "name": "DaoFundFunded",
      "type": "event"
    },
    {
      "anonymous": false,
      "inputs": [
        {
          "indexed": false,
          "internalType": "uint256",
          "name": "timestamp",
          "type": "uint256"
        },
        {
          "indexed": false,
          "internalType": "uint256",
          "name": "seigniorage",
          "type": "uint256"
        }
      ],
      "name": "DevFundFunded",
      "type": "event"
    },
    {
      "anonymous": false,
      "inputs": [
        {
          "indexed": true,
          "internalType": "address",
          "name": "executor",
          "type": "address"
        },
        {
          "indexed": false,
          "internalType": "uint256",
          "name": "at",
          "type": "uint256"
        }
      ],
      "name": "Initialized",
      "type": "event"
    },
    {
      "anonymous": false,
      "inputs": [
        {
          "indexed": false,
          "internalType": "uint256",
          "name": "timestamp",
          "type": "uint256"
        },
        {
          "indexed": false,
          "internalType": "uint256",
          "name": "seigniorage",
          "type": "uint256"
        }
      ],
      "name": "InsuranceFundFunded",
      "type": "event"
    },
    {
      "anonymous": false,
      "inputs": [
        {
          "indexed": true,
          "internalType": "address",
          "name": "from",
          "type": "address"
        },
        {
          "indexed": false,
          "internalType": "uint256",
          "name": "tokenAmount",
          "type": "uint256"
        },
        {
          "indexed": false,
          "internalType": "uint256",
          "name": "bondAmount",
          "type": "uint256"
        }
      ],
      "name": "RedeemedBonds",
      "type": "event"
    },
    {
      "anonymous": false,
      "inputs": [
        {
          "indexed": false,
          "internalType": "uint256",
          "name": "epoch",
          "type": "uint256"
        },
        {
          "indexed": false,
          "internalType": "uint256",
          "name": "twap",
          "type": "uint256"
        },
        {
          "indexed": false,
          "internalType": "uint256",
          "name": "expansion",
          "type": "uint256"
        }
      ],
      "name": "Seigniorage",
      "type": "event"
    },
    {
      "anonymous": false,
      "inputs": [
        {
          "indexed": false,
          "internalType": "uint256",
          "name": "timestamp",
          "type": "uint256"
        },
        {
          "indexed": false,
          "internalType": "uint256",
          "name": "seigniorage",
          "type": "uint256"
        }
      ],
      "name": "TreasuryFunded",
      "type": "event"
    },
    {
      "inputs": [],
      "name": "PERIOD",
      "outputs": [
        {
          "internalType": "uint256",
          "name": "",
          "type": "uint256"
        }
      ],
      "stateMutability": "view",
      "type": "function"
    },
    {
      "inputs": [],
      "name": "allocateSeigniorage",
      "outputs": [],
      "stateMutability": "nonpayable",
      "type": "function"
    },
    {
      "inputs": [],
      "name": "boardroom",
      "outputs": [
        {
          "internalType": "address",
          "name": "",
          "type": "address"
        }
      ],
      "stateMutability": "view",
      "type": "function"
    },
    {
      "inputs": [
        {
          "internalType": "uint256",
          "name": "amount",
          "type": "uint256"
        }
      ],
      "name": "boardroomAllocateSeigniorage",
      "outputs": [],
      "stateMutability": "nonpayable",
      "type": "function"
    },
    {
      "inputs": [
        {
          "internalType": "address",
          "name": "_token",
          "type": "address"
        },
        {
          "internalType": "uint256",
          "name": "_amount",
          "type": "uint256"
        },
        {
          "internalType": "address",
          "name": "_to",
          "type": "address"
        }
      ],
      "name": "boardroomGovernanceRecoverUnsupported",
      "outputs": [],
      "stateMutability": "nonpayable",
      "type": "function"
    },
    {
      "inputs": [
        {
          "internalType": "uint256",
          "name": "_withdrawLockupEpochs",
          "type": "uint256"
        },
        {
          "internalType": "uint256",
          "name": "_rewardLockupEpochs",
          "type": "uint256"
        }
      ],
      "name": "boardroomSetLockUp",
      "outputs": [],
      "stateMutability": "nonpayable",
      "type": "function"
    },
    {
      "inputs": [
        {
          "internalType": "address",
          "name": "_operator",
          "type": "address"
        }
      ],
      "name": "boardroomSetOperator",
      "outputs": [],
      "stateMutability": "nonpayable",
      "type": "function"
    },
    {
      "inputs": [
        {
          "internalType": "address",
          "name": "_reserveFund",
          "type": "address"
        }
      ],
      "name": "boardroomSetReserveFund",
      "outputs": [],
      "stateMutability": "nonpayable",
      "type": "function"
    },
    {
      "inputs": [
        {
          "internalType": "uint256",
          "name": "_amount",
          "type": "uint256"
        }
      ],
      "name": "boardroomSetWithdrawFeeMultiplier",
      "outputs": [],
      "stateMutability": "nonpayable",
      "type": "function"
    },
    {
      "inputs": [],
      "name": "boardroomStakeFee",
      "outputs": [
        {
          "internalType": "uint256",
          "name": "",
          "type": "uint256"
        }
      ],
      "stateMutability": "view",
      "type": "function"
    },
    {
      "inputs": [],
      "name": "boardroomWithdrawFee",
      "outputs": [
        {
          "internalType": "uint256",
          "name": "",
          "type": "uint256"
        }
      ],
      "stateMutability": "view",
      "type": "function"
    },
    {
      "inputs": [],
      "name": "bond",
      "outputs": [
        {
          "internalType": "address",
          "name": "",
          "type": "address"
        }
      ],
      "stateMutability": "view",
      "type": "function"
    },
    {
      "inputs": [],
      "name": "bondDepletionFloorPercent",
      "outputs": [
        {
          "internalType": "uint256",
          "name": "",
          "type": "uint256"
        }
      ],
      "stateMutability": "view",
      "type": "function"
    },
    {
      "inputs": [],
      "name": "bootstrapEpochs",
      "outputs": [
        {
          "internalType": "uint256",
          "name": "",
          "type": "uint256"
        }
      ],
      "stateMutability": "view",
      "type": "function"
    },
    {
      "inputs": [],
      "name": "bootstrapSupplyExpansionPercent",
      "outputs": [
        {
          "internalType": "uint256",
          "name": "",
          "type": "uint256"
        }
      ],
      "stateMutability": "view",
      "type": "function"
    },
    {
      "inputs": [
        {
          "internalType": "uint256",
          "name": "_tokenAmount",
          "type": "uint256"
        },
        {
          "internalType": "uint256",
          "name": "targetPrice",
          "type": "uint256"
        }
      ],
      "name": "buyBonds",
      "outputs": [],
      "stateMutability": "nonpayable",
      "type": "function"
    },
    {
      "inputs": [],
      "name": "daoFund",
      "outputs": [
        {
          "internalType": "address",
          "name": "",
          "type": "address"
        }
      ],
      "stateMutability": "view",
      "type": "function"
    },
    {
      "inputs": [],
      "name": "daoFundSharedPercent",
      "outputs": [
        {
          "internalType": "uint256",
          "name": "",
          "type": "uint256"
        }
      ],
      "stateMutability": "view",
      "type": "function"
    },
    {
      "inputs": [],
      "name": "devFund",
      "outputs": [
        {
          "internalType": "address",
          "name": "",
          "type": "address"
        }
      ],
      "stateMutability": "view",
      "type": "function"
    },
    {
      "inputs": [],
      "name": "devFundSharedPercent",
      "outputs": [
        {
          "internalType": "uint256",
          "name": "",
          "type": "uint256"
        }
      ],
      "stateMutability": "view",
      "type": "function"
    },
    {
      "inputs": [],
      "name": "discountPercent",
      "outputs": [
        {
          "internalType": "uint256",
          "name": "",
          "type": "uint256"
        }
      ],
      "stateMutability": "view",
      "type": "function"
    },
    {
      "inputs": [],
      "name": "epoch",
      "outputs": [
        {
          "internalType": "uint256",
          "name": "",
          "type": "uint256"
        }
      ],
      "stateMutability": "view",
      "type": "function"
    },
    {
      "inputs": [],
      "name": "epochSupplyContractionLeft",
      "outputs": [
        {
          "internalType": "uint256",
          "name": "",
          "type": "uint256"
        }
      ],
      "stateMutability": "view",
      "type": "function"
    },
    {
      "inputs": [
        {
          "internalType": "uint256",
          "name": "",
          "type": "uint256"
        }
      ],
      "name": "excludedFromTotalSupply",
      "outputs": [
        {
          "internalType": "address",
          "name": "",
          "type": "address"
        }
      ],
      "stateMutability": "view",
      "type": "function"
    },
    {
      "inputs": [],
      "name": "getBondDiscountRate",
      "outputs": [
        {
          "internalType": "uint256",
          "name": "_rate",
          "type": "uint256"
        }
      ],
      "stateMutability": "view",
      "type": "function"
    },
    {
      "inputs": [],
      "name": "getBondPremiumRate",
      "outputs": [
        {
          "internalType": "uint256",
          "name": "_rate",
          "type": "uint256"
        }
      ],
      "stateMutability": "view",
      "type": "function"
    },
    {
      "inputs": [],
      "name": "getBurnableTokenLeft",
      "outputs": [
        {
          "internalType": "uint256",
          "name": "_burnableTokenLeft",
          "type": "uint256"
        }
      ],
      "stateMutability": "view",
      "type": "function"
    },
    {
      "inputs": [],
      "name": "getRedeemableBonds",
      "outputs": [
        {
          "internalType": "uint256",
          "name": "_redeemableBonds",
          "type": "uint256"
        }
      ],
      "stateMutability": "view",
      "type": "function"
    },
    {
      "inputs": [],
      "name": "getReserve",
      "outputs": [
        {
          "internalType": "uint256",
          "name": "",
          "type": "uint256"
        }
      ],
      "stateMutability": "view",
      "type": "function"
    },
    {
      "inputs": [],
      "name": "getTokenCirculatingSupply",
      "outputs": [
        {
          "internalType": "uint256",
          "name": "",
          "type": "uint256"
        }
      ],
      "stateMutability": "view",
      "type": "function"
    },
    {
      "inputs": [],
      "name": "getTokenPrice",
      "outputs": [
        {
          "internalType": "uint256",
          "name": "tokenPrice",
          "type": "uint256"
        }
      ],
      "stateMutability": "view",
      "type": "function"
    },
    {
      "inputs": [],
      "name": "getTokenUpdatedPrice",
      "outputs": [
        {
          "internalType": "uint256",
          "name": "_tokenPrice",
          "type": "uint256"
        }
      ],
      "stateMutability": "view",
      "type": "function"
    },
    {
      "inputs": [
        {
          "internalType": "contract IERC20",
          "name": "_token",
          "type": "address"
        },
        {
          "internalType": "uint256",
          "name": "_amount",
          "type": "uint256"
        },
        {
          "internalType": "address",
          "name": "_to",
          "type": "address"
        }
      ],
      "name": "governanceRecoverUnsupported",
      "outputs": [],
      "stateMutability": "nonpayable",
      "type": "function"
    },
    {
      "inputs": [
        {
          "internalType": "address",
          "name": "_token",
          "type": "address"
        },
        {
          "internalType": "address",
          "name": "_bond",
          "type": "address"
        },
        {
          "internalType": "address",
          "name": "_share",
          "type": "address"
        },
        {
          "internalType": "address",
          "name": "_tokenOracle",
          "type": "address"
        },
        {
          "internalType": "address",
          "name": "_boardroom",
          "type": "address"
        },
        {
          "internalType": "uint256",
          "name": "_startTime",
          "type": "uint256"
        }
      ],
      "name": "initialize",
      "outputs": [],
      "stateMutability": "nonpayable",
      "type": "function"
    },
    {
      "inputs": [],
      "name": "initialized",
      "outputs": [
        {
          "internalType": "bool",
          "name": "",
          "type": "bool"
        }
      ],
      "stateMutability": "view",
      "type": "function"
    },
    {
      "inputs": [],
      "name": "insuranceFund",
      "outputs": [
        {
          "internalType": "address",
          "name": "",
          "type": "address"
        }
      ],
      "stateMutability": "view",
      "type": "function"
    },
    {
      "inputs": [],
      "name": "insuranceFundSharedPercent",
      "outputs": [
        {
          "internalType": "uint256",
          "name": "",
          "type": "uint256"
        }
      ],
      "stateMutability": "view",
      "type": "function"
    },
    {
      "inputs": [],
      "name": "isInitialized",
      "outputs": [
        {
          "internalType": "bool",
          "name": "",
          "type": "bool"
        }
      ],
      "stateMutability": "view",
      "type": "function"
    },
    {
      "inputs": [],
      "name": "maxDebtRatioPercent",
      "outputs": [
        {
          "internalType": "uint256",
          "name": "",
          "type": "uint256"
        }
      ],
      "stateMutability": "view",
      "type": "function"
    },
    {
      "inputs": [],
      "name": "maxDiscountRate",
      "outputs": [
        {
          "internalType": "uint256",
          "name": "",
          "type": "uint256"
        }
      ],
      "stateMutability": "view",
      "type": "function"
    },
    {
      "inputs": [
        {
          "internalType": "uint256",
          "name": "",
          "type": "uint256"
        }
      ],
      "name": "maxExpansionTiers",
      "outputs": [
        {
          "internalType": "uint256",
          "name": "",
          "type": "uint256"
        }
      ],
      "stateMutability": "view",
      "type": "function"
    },
    {
      "inputs": [],
      "name": "maxPremiumRate",
      "outputs": [
        {
          "internalType": "uint256",
          "name": "",
          "type": "uint256"
        }
      ],
      "stateMutability": "view",
      "type": "function"
    },
    {
      "inputs": [],
      "name": "maxSupplyContractionPercent",
      "outputs": [
        {
          "internalType": "uint256",
          "name": "",
          "type": "uint256"
        }
      ],
      "stateMutability": "view",
      "type": "function"
    },
    {
      "inputs": [],
      "name": "maxSupplyExpansionPercent",
      "outputs": [
        {
          "internalType": "uint256",
          "name": "",
          "type": "uint256"
        }
      ],
      "stateMutability": "view",
      "type": "function"
    },
    {
      "inputs": [],
      "name": "mintingFactorForPayingDebt",
      "outputs": [
        {
          "internalType": "uint256",
          "name": "",
          "type": "uint256"
        }
      ],
      "stateMutability": "view",
      "type": "function"
    },
    {
      "inputs": [],
      "name": "nextEpochPoint",
      "outputs": [
        {
          "internalType": "uint256",
          "name": "",
          "type": "uint256"
        }
      ],
      "stateMutability": "view",
      "type": "function"
    },
    {
      "inputs": [],
      "name": "operator",
      "outputs": [
        {
          "internalType": "address",
          "name": "",
          "type": "address"
        }
      ],
      "stateMutability": "view",
      "type": "function"
    },
    {
      "inputs": [],
      "name": "premiumPercent",
      "outputs": [
        {
          "internalType": "uint256",
          "name": "",
          "type": "uint256"
        }
      ],
      "stateMutability": "view",
      "type": "function"
    },
    {
      "inputs": [],
      "name": "premiumThreshold",
      "outputs": [
        {
          "internalType": "uint256",
          "name": "",
          "type": "uint256"
        }
      ],
      "stateMutability": "view",
      "type": "function"
    },
    {
      "inputs": [],
      "name": "previousEpochTokenPrice",
      "outputs": [
        {
          "internalType": "uint256",
          "name": "",
          "type": "uint256"
        }
      ],
      "stateMutability": "view",
      "type": "function"
    },
    {
      "inputs": [
        {
          "internalType": "uint256",
          "name": "_bondAmount",
          "type": "uint256"
        },
        {
          "internalType": "uint256",
          "name": "targetPrice",
          "type": "uint256"
        }
      ],
      "name": "redeemBonds",
      "outputs": [],
      "stateMutability": "nonpayable",
      "type": "function"
    },
    {
      "inputs": [],
      "name": "regulationStats",
      "outputs": [
        {
          "internalType": "address",
          "name": "",
          "type": "address"
        }
      ],
      "stateMutability": "view",
      "type": "function"
    },
    {
      "inputs": [],
      "name": "seigniorageExpansionFloorPercent",
      "outputs": [
        {
          "internalType": "uint256",
          "name": "",
          "type": "uint256"
        }
      ],
      "stateMutability": "view",
      "type": "function"
    },
    {
      "inputs": [],
      "name": "seigniorageSaved",
      "outputs": [
        {
          "internalType": "uint256",
          "name": "",
          "type": "uint256"
        }
      ],
      "stateMutability": "view",
      "type": "function"
    },
    {
      "inputs": [
        {
          "internalType": "address",
          "name": "_boardroom",
          "type": "address"
        }
      ],
      "name": "setBoardroom",
      "outputs": [],
      "stateMutability": "nonpayable",
      "type": "function"
    },
    {
      "inputs": [
        {
          "internalType": "uint256",
          "name": "_boardroomStakeFee",
          "type": "uint256"
        }
      ],
      "name": "setBoardroomStakeFee",
      "outputs": [],
      "stateMutability": "nonpayable",
      "type": "function"
    },
    {
      "inputs": [
        {
          "internalType": "uint256",
          "name": "_boardroomWithdrawFee",
          "type": "uint256"
        }
      ],
      "name": "setBoardroomWithdrawFee",
      "outputs": [],
      "stateMutability": "nonpayable",
      "type": "function"
    },
    {
      "inputs": [
        {
          "internalType": "uint256",
          "name": "_bondDepletionFloorPercent",
          "type": "uint256"
        }
      ],
      "name": "setBondDepletionFloorPercent",
      "outputs": [],
      "stateMutability": "nonpayable",
      "type": "function"
    },
    {
      "inputs": [
        {
          "internalType": "uint256",
          "name": "_bootstrapEpochs",
          "type": "uint256"
        },
        {
          "internalType": "uint256",
          "name": "_bootstrapSupplyExpansionPercent",
          "type": "uint256"
        }
      ],
      "name": "setBootstrap",
      "outputs": [],
      "stateMutability": "nonpayable",
      "type": "function"
    },
    {
      "inputs": [
        {
          "internalType": "uint256",
          "name": "_discountPercent",
          "type": "uint256"
        }
      ],
      "name": "setDiscountPercent",
      "outputs": [],
      "stateMutability": "nonpayable",
      "type": "function"
    },
    {
      "inputs": [
        {
          "internalType": "address",
          "name": "_daoFund",
          "type": "address"
        },
        {
          "internalType": "uint256",
          "name": "_daoFundSharedPercent",
          "type": "uint256"
        },
        {
          "internalType": "address",
          "name": "_devFund",
          "type": "address"
        },
        {
          "internalType": "uint256",
          "name": "_devFundSharedPercent",
          "type": "uint256"
        },
        {
          "internalType": "address",
          "name": "_insuranceFund",
          "type": "address"
        },
        {
          "internalType": "uint256",
          "name": "_insuranceFundSharedPercent",
          "type": "uint256"
        }
      ],
      "name": "setExtraFunds",
      "outputs": [],
      "stateMutability": "nonpayable",
      "type": "function"
    },
    {
      "inputs": [
        {
          "internalType": "uint256",
          "name": "_maxDebtRatioPercent",
          "type": "uint256"
        }
      ],
      "name": "setMaxDebtRatioPercent",
      "outputs": [],
      "stateMutability": "nonpayable",
      "type": "function"
    },
    {
      "inputs": [
        {
          "internalType": "uint256",
          "name": "_maxDiscountRate",
          "type": "uint256"
        }
      ],
      "name": "setMaxDiscountRate",
      "outputs": [],
      "stateMutability": "nonpayable",
      "type": "function"
    },
    {
      "inputs": [
        {
          "internalType": "uint8",
          "name": "_index",
          "type": "uint8"
        },
        {
          "internalType": "uint256",
          "name": "_value",
          "type": "uint256"
        }
      ],
      "name": "setMaxExpansionTiersEntry",
      "outputs": [
        {
          "internalType": "bool",
          "name": "",
          "type": "bool"
        }
      ],
      "stateMutability": "nonpayable",
      "type": "function"
    },
    {
      "inputs": [
        {
          "internalType": "uint256",
          "name": "_maxPremiumRate",
          "type": "uint256"
        }
      ],
      "name": "setMaxPremiumRate",
      "outputs": [],
      "stateMutability": "nonpayable",
      "type": "function"
    },
    {
      "inputs": [
        {
          "internalType": "uint256",
          "name": "_maxSupplyContractionPercent",
          "type": "uint256"
        }
      ],
      "name": "setMaxSupplyContractionPercent",
      "outputs": [],
      "stateMutability": "nonpayable",
      "type": "function"
    },
    {
      "inputs": [
        {
          "internalType": "uint256",
          "name": "_maxSupplyExpansionPercent",
          "type": "uint256"
        }
      ],
      "name": "setMaxSupplyExpansionPercents",
      "outputs": [],
      "stateMutability": "nonpayable",
      "type": "function"
    },
    {
      "inputs": [
        {
          "internalType": "uint256",
          "name": "_mintingFactorForPayingDebt",
          "type": "uint256"
        }
      ],
      "name": "setMintingFactorForPayingDebt",
      "outputs": [],
      "stateMutability": "nonpayable",
      "type": "function"
    },
    {
      "inputs": [
        {
          "internalType": "address",
          "name": "_operator",
          "type": "address"
        }
      ],
      "name": "setOperator",
      "outputs": [],
      "stateMutability": "nonpayable",
      "type": "function"
    },
    {
      "inputs": [
        {
          "internalType": "uint256",
          "name": "_premiumPercent",
          "type": "uint256"
        }
      ],
      "name": "setPremiumPercent",
      "outputs": [],
      "stateMutability": "nonpayable",
      "type": "function"
    },
    {
      "inputs": [
        {
          "internalType": "uint256",
          "name": "_premiumThreshold",
          "type": "uint256"
        }
      ],
      "name": "setPremiumThreshold",
      "outputs": [],
      "stateMutability": "nonpayable",
      "type": "function"
    },
    {
      "inputs": [
        {
          "internalType": "address",
          "name": "_regulationStats",
          "type": "address"
        }
      ],
      "name": "setRegulationStats",
      "outputs": [],
      "stateMutability": "nonpayable",
      "type": "function"
    },
    {
      "inputs": [
        {
          "internalType": "uint8",
          "name": "_index",
          "type": "uint8"
        },
        {
          "internalType": "uint256",
          "name": "_value",
          "type": "uint256"
        }
      ],
      "name": "setSupplyTiersEntry",
      "outputs": [
        {
          "internalType": "bool",
          "name": "",
          "type": "bool"
        }
      ],
      "stateMutability": "nonpayable",
      "type": "function"
    },
    {
      "inputs": [
        {
          "internalType": "address",
          "name": "_tokenOracle",
          "type": "address"
        }
      ],
      "name": "setTokenOracle",
      "outputs": [],
      "stateMutability": "nonpayable",
      "type": "function"
    },
    {
      "inputs": [
        {
          "internalType": "uint256",
          "name": "_tokenPriceCeiling",
          "type": "uint256"
        }
      ],
      "name": "setTokenPriceCeiling",
      "outputs": [],
      "stateMutability": "nonpayable",
      "type": "function"
    },
    {
      "inputs": [],
      "name": "share",
      "outputs": [
        {
          "internalType": "address",
          "name": "",
          "type": "address"
        }
      ],
      "stateMutability": "view",
      "type": "function"
    },
    {
      "inputs": [],
      "name": "startTime",
      "outputs": [
        {
          "internalType": "uint256",
          "name": "",
          "type": "uint256"
        }
      ],
      "stateMutability": "view",
      "type": "function"
    },
    {
      "inputs": [
        {
          "internalType": "uint256",
          "name": "",
          "type": "uint256"
        }
      ],
      "name": "supplyTiers",
      "outputs": [
        {
          "internalType": "uint256",
          "name": "",
          "type": "uint256"
        }
      ],
      "stateMutability": "view",
      "type": "function"
    },
    {
      "inputs": [],
      "name": "token",
      "outputs": [
        {
          "internalType": "address",
          "name": "",
          "type": "address"
        }
      ],
      "stateMutability": "view",
      "type": "function"
    },
    {
      "inputs": [],
      "name": "tokenOracle",
      "outputs": [
        {
          "internalType": "address",
          "name": "",
          "type": "address"
        }
      ],
      "stateMutability": "view",
      "type": "function"
    },
    {
      "inputs": [],
      "name": "tokenPriceCeiling",
      "outputs": [
        {
          "internalType": "uint256",
          "name": "",
          "type": "uint256"
        }
      ],
      "stateMutability": "view",
      "type": "function"
    },
    {
      "inputs": [],
      "name": "tokenPriceOne",
      "outputs": [
        {
          "internalType": "uint256",
          "name": "",
          "type": "uint256"
        }
      ],
      "stateMutability": "view",
      "type": "function"
    }
  ],
  "transactionHash": "0x7b1acb424dd4b2bf2afddf673a97318ca0e4098316595cc515abfe2df886c19b",
  "args": [],
  "numDeployments": 1,
  "solcInputHash": "29006ffab887000d5e78f0c1a6133d12",
  "bytecode": "0x6002805460ff60a01b191690556000600481905560055560a0604052731c0fe21e10fe1c1f3a1f23ecc5017f1b353499bc6080908152620000459060069060016200005e565b503480156200005357600080fd5b5060018055620000e9565b828054828255906000526020600020908101928215620000b6579160200282015b82811115620000b657825182546001600160a01b0319166001600160a01b039091161782556020909201916001909101906200007f565b50620000c4929150620000c8565b5090565b5b80821115620000c45780546001600160a01b0319168155600101620000c9565b614cfe80620000f96000396000f3fe608060405234801561001057600080fd5b50600436106104955760003560e01c806381d11eaf11610262578063b4d1d79511610151578063d98f2495116100ce578063f4f102c111610092578063f4f102c114610abb578063f77c9fd814610ac3578063f8cd4d7214610acb578063fc0c546a14610aee578063fcb6f00814610af6578063feaa798f14610afe57610495565b8063d98f249514610a7e578063da3ed41914610a86578063e388ac1014610a8e578063e90b245414610aab578063f14698de14610ab357610495565b8063c8f987f311610115578063c8f987f314610a23578063cecce38e14610a2b578063d1ce75d414610a48578063d4b1494414610a50578063d70613d614610a7657610495565b8063b4d1d795146109fb578063b790230314610a03578063b8a878f914610a0b578063c5967c2614610a13578063c8412d0214610a1b57610495565b806396a6ba20116101df578063a3ec30fe116101a3578063a3ec30fe1461094b578063a8d5fd6514610981578063b06ce14a14610989578063b3ab15fb146109af578063b3ffc777146109d557610495565b806396a6ba20146108b157806398b762a1146108d757806399820025146108f4578063a0487eea14610911578063a204452b1461092e57610495565b80638d934f74116102265780638d934f741461080c578063900cf0cf1461081457806391bbfed51461081c578063940e60641461083f57806395b6ef0c1461086557610495565b806381d11eaf146107ba57806382cad838146107c2578063860c3177146107df578063874106cc146107e75780638c664db6146107ef57610495565b8063392e53cd1161038957806355ebdeef116103065780635b756179116102ca5780635b7561791461078a5780635e02c51e1461079257806364c9ec6f1461079a5780636c5ec25c146107a257806372c054f9146107aa57806378e97925146107b257610495565b806355ebdeef1461074d578063570ca73514610755578063591663e11461075d57806359bf5d391461077a5780635a0fc79c1461078257610495565b80634390d2a81161034d5780634390d2a8146106ab578063499f3f19146106cf5780634b94f50e146106ec57806354575af4146106f457806354f04a111461072a57610495565b8063392e53cd1461063b5780633fc1b0a5146106435780634013a08e1461066057806340af7ba514610668578063419484f41461068557610495565b8063154ec2db1161041757806326f45c6c116103db57806326f45c6c146105fe578063273f7b461461060657806329ef19191461060e5780632e9c7b6514610616578063305ae2161461061e57610495565b8063154ec2db14610558578063158ef93e146105755780631b0fb35f146105915780631eda563a146105d957806322f832cd146105f657610495565b80630b5bcec71161045e5780630b5bcec7146105005780630cf601751461051d5780630db7eb0b146105255780630ef590a61461052d578063118ebbf91461053557610495565b80620321041461049a57806301a93783146104b457806303be7e76146104d357806304e5c7b1146104db5780630595b47c146104f8575b600080fd5b6104a2610b24565b60408051918252519081900360200190f35b6104d1600480360360208110156104ca57600080fd5b5035610bff565b005b6104a2610cb0565b6104d1600480360360208110156104f157600080fd5b5035610cb6565b6104a2610d44565b6104d16004803603602081101561051657600080fd5b5035610e8c565b6104a2610f28565b6104a2610fda565b6104a261107c565b6104d16004803603604081101561054b57600080fd5b5080359060200135611082565b6104d16004803603602081101561056e57600080fd5b50356116de565b61057d611783565b604080519115158252519081900360200190f35b6104d1600480360360c08110156105a757600080fd5b506001600160a01b03813581169160208101359160408201358116916060810135916080820135169060a00135611793565b6104d1600480360360208110156105ef57600080fd5b50356119c9565b6104a2611ab0565b6104a2611ab6565b6104a2611bbd565b6104a2611bc3565b6104a2611bc9565b6104d16004803603602081101561063457600080fd5b5035611bcf565b61057d611c89565b6104d16004803603602081101561065957600080fd5b5035611c99565b6104a2611d2f565b6104d16004803603602081101561067e57600080fd5b5035611d35565b6104d16004803603602081101561069b57600080fd5b50356001600160a01b0316611dda565b6106b3611e45565b604080516001600160a01b039092168252519081900360200190f35b6104d1600480360360208110156106e557600080fd5b5035611e54565b6104a2611ef1565b6104d16004803603606081101561070a57600080fd5b506001600160a01b03813581169160208101359160409091013516611f53565b6104d16004803603604081101561074057600080fd5b5080359060200135612097565b6104a26127d5565b6106b36127db565b6104d16004803603602081101561077357600080fd5b50356127ea565b6104a261288c565b6104a2612892565b6104d1612898565b6106b3612f27565b6106b3612f36565b6106b3612f45565b6104a2612f54565b6104a261300c565b6104a2613012565b6106b3600480360360208110156107d857600080fd5b5035613018565b6104a261303f565b6104a2613045565b6104d16004803603602081101561080557600080fd5b503561304b565b6106b36130ed565b6104a26130fc565b6104d16004803603604081101561083257600080fd5b5080359060200135613102565b61057d6004803603604081101561085557600080fd5b5060ff81351690602001356131fa565b6104d1600480360360c081101561087b57600080fd5b506001600160a01b0381358116916020810135821691604082013581169160608101358216916080820135169060a00135613316565b6104d1600480360360208110156108c757600080fd5b50356001600160a01b03166135b2565b6104d1600480360360208110156108ed57600080fd5b503561361d565b6104a26004803603602081101561090a57600080fd5b503561366b565b6104a26004803603602081101561092757600080fd5b5035613689565b6104d16004803603602081101561094457600080fd5b5035613696565b6104d16004803603606081101561096157600080fd5b506001600160a01b038135811691602081013591604090910135166136e4565b6106b36137a7565b6104d16004803603602081101561099f57600080fd5b50356001600160a01b03166137b6565b6104d1600480360360208110156109c557600080fd5b50356001600160a01b031661384d565b6104d1600480360360208110156109eb57600080fd5b50356001600160a01b03166138b8565b6104a2613923565b6106b3613929565b6104a2613938565b6104a261393e565b6104a2613968565b6104a261396e565b6104d160048036036020811015610a4157600080fd5b5035613974565b6104a2613a15565b61057d60048036036040811015610a6657600080fd5b5060ff8135169060200135613a1b565b6106b3613b15565b6104a2613b24565b6104a2613b2a565b6104d160048036036020811015610aa457600080fd5b5035613b30565b6104a2613c21565b6104a2613c27565b6104a2613c2d565b6104a2613c33565b6104d160048036036040811015610ae157600080fd5b5080359060200135613c39565b6106b3613cf2565b6104a2613d01565b6104d160048036036020811015610b1457600080fd5b50356001600160a01b0316613d07565b600b5460075460408051630d01142560e31b81526001600160a01b039283166004820152670de0b6b3a7640000602482015290516000939290921691636808a12891604480820192602092909190829003018186803b158015610b8657600080fd5b505afa925050508015610bab57506040513d6020811015610ba657600080fd5b505160015b610be65760405162461bcd60e51b8152600401808060200182810382526036815260200180614a296036913960400191505060405180910390fd5b71ffffffffffffffffffffffffffffffffffff16905090565b6002546001600160a01b03163314610c485760405162461bcd60e51b8152600401808060200182810382526024815260200180614bc76024913960400191505060405180910390fd5b600a54604080516397ffe1d760e01b81526004810184905290516001600160a01b03909216916397ffe1d79160248082019260009290919082900301818387803b158015610c9557600080fd5b505af1158015610ca9573d6000803e3d6000fd5b5050505050565b60245481565b6002546001600160a01b03163314610cff5760405162461bcd60e51b8152600401808060200182810382526024815260200180614bc76024913960400191505060405180910390fd5b6096811115610d3f5760405162461bcd60e51b8152600401808060200182810382526024815260200180614a8d6024913960400191505060405180910390fd5b601e55565b600754604080516318160ddd60e01b815290516000926001600160a01b031691839183916318160ddd916004808301926020929190829003018186803b158015610d8d57600080fd5b505afa158015610da1573d6000803e3d6000fd5b505050506040513d6020811015610db757600080fd5b505190506000805b60065460ff82161015610e7957610e6f846001600160a01b03166370a0823160068460ff1681548110610dee57fe5b60009182526020918290200154604080516001600160e01b031960e086901b1681526001600160a01b0390921660048301525160248083019392829003018186803b158015610e3c57600080fd5b505afa158015610e50573d6000803e3d6000fd5b505050506040513d6020811015610e6657600080fd5b50518390613d9e565b9150600101610dbf565b50610e848282613dff565b935050505090565b6002546001600160a01b03163314610ed55760405162461bcd60e51b8152600401808060200182810382526024815260200180614bc76024913960400191505060405180910390fd5b600a8110158015610ee857506103e88111155b610f235760405162461bcd60e51b8152600401808060200182810382526028815260200180614b766028913960400191505060405180910390fd5b601355565b600080610f33611ef1565b9050600e548111610fd657601d54610f4f57600e549150610fd6565b6000610f7882610f72670de0b6b3a7640000600e54613e5c90919063ffffffff16565b90613eb5565b90506000610fa3612710610f72601d54610f9d600e5487613dff90919063ffffffff16565b90613e5c565b600e54909150610fb39082613d9e565b93506000601b54118015610fc85750601b5484115b15610fd357601b5493505b50505b5090565b600080610fe5611ef1565b9050600f54811115610fd657600061100f6064610f72601e54600e54613e5c90919063ffffffff16565b905080821061107157600061103b612710610f72601f54610f9d600e5488613dff90919063ffffffff16565b600e5490915061104b9082613d9e565b93506000601c541180156110605750601c5484115b1561106b57601c5493505b50611077565b600e5492505b505090565b600f5481565b61108a613f1c565b156110c65760405162461bcd60e51b8152600401808060200182810382526026815260200180614c156026913960400191505060405180910390fd5b6110ce613f3b565b1561110a5760405162461bcd60e51b8152600401808060200182810382526026815260200180614c156026913960400191505060405180910390fd5b60035442101561115d576040805162461bcd60e51b8152602060048201526019602482015278151c99585cdd5c9e4e881b9bdd081cdd185c9d1959081e595d603a1b604482015290519081900360640190fd5b6007546040805163570ca73560e01b8152905130926001600160a01b03169163570ca735916004808301926020929190829003018186803b1580156111a157600080fd5b505afa1580156111b5573d6000803e3d6000fd5b505050506040513d60208110156111cb57600080fd5b50516001600160a01b031614801561125957506008546040805163570ca73560e01b8152905130926001600160a01b03169163570ca735916004808301926020929190829003018186803b15801561122257600080fd5b505afa158015611236573d6000803e3d6000fd5b505050506040513d602081101561124c57600080fd5b50516001600160a01b0316145b80156112db5750600a546040805163570ca73560e01b8152905130926001600160a01b03169163570ca735916004808301926020929190829003018186803b1580156112a457600080fd5b505afa1580156112b8573d6000803e3d6000fd5b505050506040513d60208110156112ce57600080fd5b50516001600160a01b0316145b61132c576040805162461bcd60e51b815260206004820152601e60248201527f54726561737572793a206e656564206d6f7265207065726d697373696f6e0000604482015290519081900360640190fd5b6000821161136b5760405162461bcd60e51b815260040180806020018281038252602e815260200180614a5f602e913960400191505060405180910390fd5b6000611375611ef1565b90508181146113cb576040805162461bcd60e51b815260206004820152601a60248201527f54726561737572793a20424f4d42207072696365206d6f766564000000000000604482015290519081900360640190fd5b600f54811161140b5760405162461bcd60e51b81526004018080602001828103825260338152602001806149f66033913960400191505060405180910390fd5b6000611415610fda565b90506000811161146c576040805162461bcd60e51b815260206004820152601b60248201527f54726561737572793a20696e76616c696420626f6e6420726174650000000000604482015290519081900360640190fd5b6000611484670de0b6b3a7640000610f728785613e5c565b600754604080516370a0823160e01b8152306004820152905192935083926001600160a01b03909216916370a0823191602480820192602092909190829003018186803b1580156114d457600080fd5b505afa1580156114e8573d6000803e3d6000fd5b505050506040513d60208110156114fe57600080fd5b5051101561153d5760405162461bcd60e51b8152600401808060200182810382526025815260200180614ad76025913960400191505060405180910390fd5b61155561154c60105483613f5a565b60105490613dff565b6010556008546040805163079cc67960e41b81523360048201526024810188905290516001600160a01b03909216916379cc67909160448082019260009290919082900301818387803b1580156115ab57600080fd5b505af11580156115bf573d6000803e3d6000fd5b50506007546115db92506001600160a01b031690503383613f70565b6115e3613fc2565b6027546001600160a01b031615611664576027546004805460408051635a78027560e01b81529283019190915260248201849052516001600160a01b0390921691635a7802759160448082019260009290919082900301818387803b15801561164b57600080fd5b505af115801561165f573d6000803e3d6000fd5b505050505b6040805182815260208101879052815133927f51e0d16595cabc591e64da08e45bb223577e5b9a39cd947b4ddc3472b2dd8878928290030190a25050436000908152602081815260408083203284529091528082208054600160ff1991821681179092553384529190922080549091169091179055505050565b6002546001600160a01b031633146117275760405162461bcd60e51b8152600401808060200182810382526024815260200180614bc76024913960400191505060405180910390fd5b614e2081111561177e576040805162461bcd60e51b815260206004820152601d60248201527f5f646973636f756e7450657263656e74206973206f7665722032303025000000604482015290519081900360640190fd5b601d55565b600254600160a01b900460ff1681565b6002546001600160a01b031633146117dc5760405162461bcd60e51b8152600401808060200182810382526024815260200180614bc76024913960400191505060405180910390fd5b6001600160a01b038616611820576040805162461bcd60e51b815260206004808301919091526024820152637a65726f60e01b604482015290519081900360640190fd5b611388851115611866576040805162461bcd60e51b815260206004820152600c60248201526b6f7574206f662072616e676560a01b604482015290519081900360640190fd5b6001600160a01b0384166118aa576040805162461bcd60e51b815260206004808301919091526024820152637a65726f60e01b604482015290519081900360640190fd5b6103e88311156118f0576040805162461bcd60e51b815260206004820152600c60248201526b6f7574206f662072616e676560a01b604482015290519081900360640190fd5b6001600160a01b038216611934576040805162461bcd60e51b815260206004808301919091526024820152637a65726f60e01b604482015290519081900360640190fd5b6103e881111561197a576040805162461bcd60e51b815260206004820152600c60248201526b6f7574206f662072616e676560a01b604482015290519081900360640190fd5b602180546001600160a01b03199081166001600160a01b039889161790915560229590955560238054861694871694909417909355602491909155602580549093169316929092179055602655565b6002546001600160a01b03163314611a125760405162461bcd60e51b8152600401808060200182810382526024815260200180614bc76024913960400191505060405180910390fd5b6005811115611a5e576040805162461bcd60e51b81526020600482015260136024820152724d6178207374616b652066656520697320352560681b604482015290519081900360640190fd5b600d819055600a54604080516338b5efb960e21b81526004810184905290516001600160a01b039092169163e2d7bee49160248082019260009290919082900301818387803b158015610c9557600080fd5b60155481565b600080611ac1611ef1565b9050600e548111610fd6576000611ad6610d44565b90506000611af5612710610f7260175485613e5c90919063ffffffff16565b90506000600860009054906101000a90046001600160a01b03166001600160a01b03166318160ddd6040518163ffffffff1660e01b815260040160206040518083038186803b158015611b4757600080fd5b505afa158015611b5b573d6000803e3d6000fd5b505050506040513d6020811015611b7157600080fd5b5051905080821115611bb6576000611b898383613dff565b90506000611ba3670de0b6b3a7640000610f728489613e5c565b9050611bb160055482613f5a565b965050505b5050505090565b601a5481565b601d5481565b601c5481565b6002546001600160a01b03163314611c185760405162461bcd60e51b8152600401808060200182810382526024815260200180614bc76024913960400191505060405180910390fd5b600e548110158015611c445750611c406064610f726078600e54613e5c90919063ffffffff16565b8111155b611c84576040805162461bcd60e51b815260206004820152600c60248201526b6f7574206f662072616e676560a01b604482015290519081900360640190fd5b600f55565b600254600160a01b900460ff1690565b6002546001600160a01b03163314611ce25760405162461bcd60e51b8152600401808060200182810382526024815260200180614bc76024913960400191505060405180910390fd5b600a546040805163038bc61160e11b81526004810184905290516001600160a01b03909216916307178c229160248082019260009290919082900301818387803b158015610c9557600080fd5b60205481565b6002546001600160a01b03163314611d7e5760405162461bcd60e51b8152600401808060200182810382526024815260200180614bc76024913960400191505060405180910390fd5b614e20811115611dd5576040805162461bcd60e51b815260206004820152601c60248201527f5f7072656d69756d50657263656e74206973206f766572203230302500000000604482015290519081900360640190fd5b601f55565b6002546001600160a01b03163314611e235760405162461bcd60e51b8152600401808060200182810382526024815260200180614bc76024913960400191505060405180910390fd5b602780546001600160a01b0319166001600160a01b0392909216919091179055565b6023546001600160a01b031681565b6002546001600160a01b03163314611e9d5760405162461bcd60e51b8152600401808060200182810382526024815260200180614bc76024913960400191505060405180910390fd5b6127108110158015611eb15750614e208111155b611eec5760405162461bcd60e51b8152600401808060200182810382526029815260200180614b4d6029913960400191505060405180910390fd5b602055565b600b5460075460408051633ddac95360e01b81526001600160a01b039283166004820152670de0b6b3a7640000602482015290516000939290921691633ddac95391604480820192602092909190829003018186803b158015610b8657600080fd5b6002546001600160a01b03163314611f9c5760405162461bcd60e51b8152600401808060200182810382526024815260200180614bc76024913960400191505060405180910390fd5b6007546001600160a01b0384811691161415611fe7576040805162461bcd60e51b81526020600482015260056024820152643a37b5b2b760d91b604482015290519081900360640190fd5b6008546001600160a01b0384811691161415612033576040805162461bcd60e51b81526020600480830191909152602482015263189bdb9960e21b604482015290519081900360640190fd5b6009546001600160a01b038481169116141561207e576040805162461bcd60e51b8152602060048201526005602482015264736861726560d81b604482015290519081900360640190fd5b6120926001600160a01b0384168284613f70565b505050565b61209f613f1c565b156120db5760405162461bcd60e51b8152600401808060200182810382526026815260200180614c156026913960400191505060405180910390fd5b6120e3613f3b565b1561211f5760405162461bcd60e51b8152600401808060200182810382526026815260200180614c156026913960400191505060405180910390fd5b600354421015612172576040805162461bcd60e51b8152602060048201526019602482015278151c99585cdd5c9e4e881b9bdd081cdd185c9d1959081e595d603a1b604482015290519081900360640190fd5b6007546040805163570ca73560e01b8152905130926001600160a01b03169163570ca735916004808301926020929190829003018186803b1580156121b657600080fd5b505afa1580156121ca573d6000803e3d6000fd5b505050506040513d60208110156121e057600080fd5b50516001600160a01b031614801561226e57506008546040805163570ca73560e01b8152905130926001600160a01b03169163570ca735916004808301926020929190829003018186803b15801561223757600080fd5b505afa15801561224b573d6000803e3d6000fd5b505050506040513d602081101561226157600080fd5b50516001600160a01b0316145b80156122f05750600a546040805163570ca73560e01b8152905130926001600160a01b03169163570ca735916004808301926020929190829003018186803b1580156122b957600080fd5b505afa1580156122cd573d6000803e3d6000fd5b505050506040513d60208110156122e357600080fd5b50516001600160a01b0316145b612341576040805162461bcd60e51b815260206004820152601e60248201527f54726561737572793a206e656564206d6f7265207065726d697373696f6e0000604482015290519081900360640190fd5b600082116123805760405162461bcd60e51b8152600401808060200182810382526030815260200180614b1d6030913960400191505060405180910390fd5b600061238a611ef1565b90508181146123e0576040805162461bcd60e51b815260206004820152601a60248201527f54726561737572793a20424f4d42207072696365206d6f766564000000000000604482015290519081900360640190fd5b600e5481106124205760405162461bcd60e51b81526004018080602001828103825260338152602001806149f66033913960400191505060405180910390fd5b6005548311156124615760405162461bcd60e51b815260040180806020018281038252602a815260200180614c71602a913960400191505060405180910390fd5b600061246b610f28565b9050600081116124c2576040805162461bcd60e51b815260206004820152601b60248201527f54726561737572793a20696e76616c696420626f6e6420726174650000000000604482015290519081900360640190fd5b60006124da670de0b6b3a7640000610f728785613e5c565b905060006124e6610d44565b9050600061256e83600860009054906101000a90046001600160a01b03166001600160a01b03166318160ddd6040518163ffffffff1660e01b815260040160206040518083038186803b15801561253c57600080fd5b505afa158015612550573d6000803e3d6000fd5b505050506040513d602081101561256657600080fd5b505190613d9e565b905061258b612710610f7260175485613e5c90919063ffffffff16565b8111156125d5576040805162461bcd60e51b81526020600482015260136024820152726f766572206d6178206465627420726174696f60681b604482015290519081900360640190fd5b6007546040805163079cc67960e41b8152336004820152602481018a905290516001600160a01b03909216916379cc67909160448082019260009290919082900301818387803b15801561262857600080fd5b505af115801561263c573d6000803e3d6000fd5b5050600854604080516340c10f1960e01b81523360048201526024810188905290516001600160a01b0390921693506340c10f1992506044808201926020929091908290030181600087803b15801561269457600080fd5b505af11580156126a8573d6000803e3d6000fd5b505050506040513d60208110156126be57600080fd5b50506005546126cd9088613dff565b6005556126d8613fc2565b6027546001600160a01b0316156127595760275460048054604080516368a3fd3160e01b81529283019190915260248201869052516001600160a01b03909216916368a3fd319160448082019260009290919082900301818387803b15801561274057600080fd5b505af1158015612754573d6000803e3d6000fd5b505050505b6040805188815260208101859052815133927f73017f1b70789e2e66759eeb3c7ec11f59e6eedb55d921cfaec5410dd42a4799928290030190a25050436000908152602081815260408083203284529091528082208054600160ff19918216811790925533845291909220805490911690911790555050505050565b60225481565b6002546001600160a01b031681565b6002546001600160a01b031633146128335760405162461bcd60e51b8152600401808060200182810382526024815260200180614bc76024913960400191505060405180910390fd5b6103e8811015801561284757506127108111155b612887576040805162461bcd60e51b815260206004820152600c60248201526b6f7574206f662072616e676560a01b604482015290519081900360640190fd5b601755565b60105490565b60105481565b6128a0613f1c565b156128dc5760405162461bcd60e51b8152600401808060200182810382526026815260200180614c156026913960400191505060405180910390fd5b6128e4613f3b565b156129205760405162461bcd60e51b8152600401808060200182810382526026815260200180614c156026913960400191505060405180910390fd5b600354421015612973576040805162461bcd60e51b8152602060048201526019602482015278151c99585cdd5c9e4e881b9bdd081cdd185c9d1959081e595d603a1b604482015290519081900360640190fd5b61297b61393e565b4210156129cf576040805162461bcd60e51b815260206004820152601860248201527f54726561737572793a206e6f74206f70656e6564207965740000000000000000604482015290519081900360640190fd5b6007546040805163570ca73560e01b8152905130926001600160a01b03169163570ca735916004808301926020929190829003018186803b158015612a1357600080fd5b505afa158015612a27573d6000803e3d6000fd5b505050506040513d6020811015612a3d57600080fd5b50516001600160a01b0316148015612acb57506008546040805163570ca73560e01b8152905130926001600160a01b03169163570ca735916004808301926020929190829003018186803b158015612a9457600080fd5b505afa158015612aa8573d6000803e3d6000fd5b505050506040513d6020811015612abe57600080fd5b50516001600160a01b0316145b8015612b4d5750600a546040805163570ca73560e01b8152905130926001600160a01b03169163570ca735916004808301926020929190829003018186803b158015612b1657600080fd5b505afa158015612b2a573d6000803e3d6000fd5b505050506040513d6020811015612b4057600080fd5b50516001600160a01b0316145b612b9e576040805162461bcd60e51b815260206004820152601e60248201527f54726561737572793a206e656564206d6f7265207065726d697373696f6e0000604482015290519081900360640190fd5b612ba6613fc2565b612bae611ef1565b601a55601054600090612bc990612bc3610d44565b90613dff565b90506018546004541015612c5e57612bfa612bf5612710610f7260195485613e5c90919063ffffffff16565b614026565b7f94a896583ef35ce156f07410cc5a289d003c9a2200539d5282f2557769becb4a600454601a54612c3c612710610f7260195487613e5c90919063ffffffff16565b60408051938452602084019290925282820152519081900360600190a1612eab565b600f54601a541115612eab57600854604080516318160ddd60e01b815290516000926001600160a01b0316916318160ddd916004808301926020929190829003018186803b158015612caf57600080fd5b505afa158015612cc3573d6000803e3d6000fd5b505050506040513d6020811015612cd957600080fd5b5051600e54601a54919250600091612cf091613dff565b90506000806000612d0a655af3107a4000610f9d8861450c565b905080841115612d18578093505b612d33612710610f7260145488613e5c90919063ffffffff16565b60105410612d5857612d51670de0b6b3a7640000610f728887613e5c565b9150612dc4565b6000612d70670de0b6b3a7640000610f728988613e5c565b9050612d8d612710610f7260155484613e5c90919063ffffffff16565b9250612d998184613dff565b60205490945015612dc257612dbf612710610f7260205487613e5c90919063ffffffff16565b93505b505b8115612dd357612dd382614026565b8215612ea557601054612de69084613d9e565b601055600754604080516340c10f1960e01b81523060048201526024810186905290516001600160a01b03909216916340c10f19916044808201926020929091908290030181600087803b158015612e3d57600080fd5b505af1158015612e51573d6000803e3d6000fd5b505050506040513d6020811015612e6757600080fd5b5050604080514281526020810185905281517ff705142bf09f04297640495ddf7c59b7fd6f51894c5aea9602d631cf05f0efc2929181900390910190a15b50505050505b50600454612eba906001613d9e565b600455600f54612ec8611ef1565b11612ee657612ee1612710610f72601654610f9d610d44565b612ee9565b60005b600555436000908152602081815260408083203284529091528082208054600160ff1991821681179092553384529190922080549091169091179055565b600a546001600160a01b031681565b6008546001600160a01b031681565b600b546001600160a01b031681565b600080612f5f611ef1565b9050600f54811115610fd657600754604080516370a0823160e01b815230600482015290516000926001600160a01b0316916370a08231916024808301926020929190829003018186803b158015612fb657600080fd5b505afa158015612fca573d6000803e3d6000fd5b505050506040513d6020811015612fe057600080fd5b505190506000612fee610fda565b90508015610fd357610e8481610f7284670de0b6b3a7640000613e5c565b60035481565b60145481565b6006818154811061302557fe5b6000918252602090912001546001600160a01b0316905081565b60265481565b60195481565b6002546001600160a01b031633146130945760405162461bcd60e51b8152600401808060200182810382526024815260200180614bc76024913960400191505060405180910390fd5b6101f481101580156130a857506127108111155b6130e8576040805162461bcd60e51b815260206004820152600c60248201526b6f7574206f662072616e676560a01b604482015290519081900360640190fd5b601455565b6021546001600160a01b031681565b60045481565b6002546001600160a01b0316331461314b5760405162461bcd60e51b8152600401808060200182810382526024815260200180614bc76024913960400191505060405180910390fd5b60788211156131a1576040805162461bcd60e51b815260206004820152601e60248201527f5f626f6f74737472617045706f6368733a206f7574206f662072616e67650000604482015290519081900360640190fd5b606481101580156131b457506103e88111155b6131ef5760405162461bcd60e51b815260040180806020018281038252602e815260200180614c9b602e913960400191505060405180910390fd5b601891909155601955565b6002546000906001600160a01b031633146132465760405162461bcd60e51b8152600401808060200182810382526024815260200180614bc76024913960400191505060405180910390fd5b60098360ff16106132885760405162461bcd60e51b8152600401808060200182810382526029815260200180614b9e6029913960400191505060405180910390fd5b60ff8316156132ba5760116001840360ff16815481106132a457fe5b906000526020600020015482116132ba57600080fd5b60088360ff1610156132ef5760118360010160ff16815481106132d957fe5b906000526020600020015482106132ef57600080fd5b8160118460ff168154811061330057fe5b6000918252602090912001555060015b92915050565b600254600160a01b900460ff1615613375576040805162461bcd60e51b815260206004820152601d60248201527f54726561737572793a20616c726561647920696e697469616c697a6564000000604482015290519081900360640190fd5b600780546001600160a01b03199081166001600160a01b0389811691909117909255600880548216888416179055600980548216878416179055600b80548216868416179055600a80549091169184169190911790556003819055670de0b6b3a7640000600e8190556133f2906103e890610f72906103e9613e5c565b600f556040805160c0810182526000815269152d02c7e14af680000060208201526934f086f3b33b68400000918101919091526969e10de76676d0800000606082015269d3c21bcecceda100000060808201526a0422ca8b0a00a42500000060a082015261346490601190600661494a565b506040805160c081018252609680825260208201819052918101829052606081018290526080810182905260a08101919091526134a59060129060066149a0565b5061015e6013819055612710601455610dac601581815561012c6016556017919091556069601e55611b58601f55601855601955600754604080516370a0823160e01b815230600482015290516001600160a01b03909216916370a0823191602480820192602092909190829003018186803b15801561352457600080fd5b505afa158015613538573d6000803e3d6000fd5b505050506040513d602081101561354e57600080fd5b5051601055600280546001600160a01b031960ff60a01b19909116600160a01b1716339081179091556040805143815290517f25ff68dd81b34665b5ba7e553ee5511bf6812e12adb4a7e2c0d9e26b3099ce799181900360200190a2505050505050565b6002546001600160a01b031633146135fb5760405162461bcd60e51b8152600401808060200182810382526024815260200180614bc76024913960400191505060405180910390fd5b600b80546001600160a01b0319166001600160a01b0392909216919091179055565b6002546001600160a01b031633146136665760405162461bcd60e51b8152600401808060200182810382526024815260200180614bc76024913960400191505060405180910390fd5b601b55565b6011818154811061367857fe5b600091825260209091200154905081565b6012818154811061367857fe5b6002546001600160a01b031633146136df5760405162461bcd60e51b8152600401808060200182810382526024815260200180614bc76024913960400191505060405180910390fd5b601c55565b6002546001600160a01b0316331461372d5760405162461bcd60e51b8152600401808060200182810382526024815260200180614bc76024913960400191505060405180910390fd5b600a5460408051631515d6bd60e21b81526001600160a01b038681166004830152602482018690528481166044830152915191909216916354575af491606480830192600092919082900301818387803b15801561378a57600080fd5b505af115801561379e573d6000803e3d6000fd5b50505050505050565b6009546001600160a01b031681565b6002546001600160a01b031633146137ff5760405162461bcd60e51b8152600401808060200182810382526024815260200180614bc76024913960400191505060405180910390fd5b600a546040805163b3ab15fb60e01b81526001600160a01b0384811660048301529151919092169163b3ab15fb91602480830192600092919082900301818387803b158015610c9557600080fd5b6002546001600160a01b031633146138965760405162461bcd60e51b8152600401808060200182810382526024815260200180614bc76024913960400191505060405180910390fd5b600280546001600160a01b0319166001600160a01b0392909216919091179055565b6002546001600160a01b031633146139015760405162461bcd60e51b8152600401808060200182810382526024815260200180614bc76024913960400191505060405180910390fd5b600a80546001600160a01b0319166001600160a01b0392909216919091179055565b61708081565b6025546001600160a01b031681565b601b5481565b600061396361395a617080600454613e5c90919063ffffffff16565b60035490613d9e565b905090565b601f5481565b601e5481565b6002546001600160a01b031633146139bd5760405162461bcd60e51b8152600401808060200182810382526024815260200180614bc76024913960400191505060405180910390fd5b606481101580156139d057506105dc8111155b613a10576040805162461bcd60e51b815260206004820152600c60248201526b6f7574206f662072616e676560a01b604482015290519081900360640190fd5b601655565b600c5481565b6002546000906001600160a01b03163314613a675760405162461bcd60e51b8152600401808060200182810382526024815260200180614bc76024913960400191505060405180910390fd5b60098360ff1610613aa95760405162461bcd60e51b8152600401808060200182810382526029815260200180614b9e6029913960400191505060405180910390fd5b600a8210158015613abc57506103e88211155b613b04576040805162461bcd60e51b81526020600482015260146024820152735f76616c75653a206f7574206f662072616e676560601b604482015290519081900360640190fd5b8160128460ff168154811061330057fe5b6027546001600160a01b031681565b60135481565b60175481565b6002546001600160a01b03163314613b795760405162461bcd60e51b8152600401808060200182810382526024815260200180614bc76024913960400191505060405180910390fd5b6014811115613bcf576040805162461bcd60e51b815260206004820152601760248201527f4d61782077697468647261772066656520697320323025000000000000000000604482015290519081900360640190fd5b600c819055600a5460408051635b56321560e11b81526004810184905290516001600160a01b039092169163b6ac642a9160248082019260009290919082900301818387803b158015610c9557600080fd5b60165481565b60185481565b600d5481565b600e5481565b6002546001600160a01b03163314613c825760405162461bcd60e51b8152600401808060200182810382526024815260200180614bc76024913960400191505060405180910390fd5b600a5460408051632ffaaa0960e01b8152600481018590526024810184905290516001600160a01b0390921691632ffaaa099160448082019260009290919082900301818387803b158015613cd657600080fd5b505af1158015613cea573d6000803e3d6000fd5b505050505050565b6007546001600160a01b031681565b60055481565b6002546001600160a01b03163314613d505760405162461bcd60e51b8152600401808060200182810382526024815260200180614bc76024913960400191505060405180910390fd5b600a5460408051637a4c6c5360e11b81526001600160a01b0384811660048301529151919092169163f498d8a691602480830192600092919082900301818387803b158015610c9557600080fd5b600082820183811015613df8576040805162461bcd60e51b815260206004820152601b60248201527f536166654d6174683a206164646974696f6e206f766572666c6f770000000000604482015290519081900360640190fd5b9392505050565b600082821115613e56576040805162461bcd60e51b815260206004820152601e60248201527f536166654d6174683a207375627472616374696f6e206f766572666c6f770000604482015290519081900360640190fd5b50900390565b600082613e6b57506000613310565b82820282848281613e7857fe5b0414613df85760405162461bcd60e51b8152600401808060200182810382526021815260200180614afc6021913960400191505060405180910390fd5b6000808211613f0b576040805162461bcd60e51b815260206004820152601a60248201527f536166654d6174683a206469766973696f6e206279207a65726f000000000000604482015290519081900360640190fd5b818381613f1457fe5b049392505050565b4360009081526020818152604080832032845290915290205460ff1690565b4360009081526020818152604080832033845290915290205460ff1690565b6000818310613f695781613df8565b5090919050565b604080516001600160a01b038416602482015260448082018490528251808303909101815260649091019091526020810180516001600160e01b031663a9059cbb60e01b179052612092908490614569565b600b60009054906101000a90046001600160a01b03166001600160a01b031663a2e620456040518163ffffffff1660e01b8152600401600060405180830381600087803b15801561401257600080fd5b505af1925050508015614023575060015b50565b600754604080516340c10f1960e01b81523060048201526024810184905290516001600160a01b03909216916340c10f19916044808201926020929091908290030181600087803b15801561407a57600080fd5b505af115801561408e573d6000803e3d6000fd5b505050506040513d60208110156140a457600080fd5b50506022546000901561418f576140cc612710610f7260225485613e5c90919063ffffffff16565b6007546021546040805163a9059cbb60e01b81526001600160a01b03928316600482015260248101859052905193945091169163a9059cbb916044808201926020929091908290030181600087803b15801561412757600080fd5b505af115801561413b573d6000803e3d6000fd5b505050506040513d602081101561415157600080fd5b5050604080514281526020810183905281517fcb3f34aaa3445b461e6da5492dc89e5c257a59fa598131f3b6bbc97a3638e409929181900390910190a15b60245460009015614278576141b5612710610f7260245486613e5c90919063ffffffff16565b6007546023546040805163a9059cbb60e01b81526001600160a01b03928316600482015260248101859052905193945091169163a9059cbb916044808201926020929091908290030181600087803b15801561421057600080fd5b505af1158015614224573d6000803e3d6000fd5b505050506040513d602081101561423a57600080fd5b5050604080514281526020810183905281517fdc8b715b18523e58b7fd0da53259dfa91efd91df4a854d94b136e3333a3b9395929181900390910190a15b602654600090156143615761429e612710610f7260265487613e5c90919063ffffffff16565b6007546025546040805163a9059cbb60e01b81526001600160a01b03928316600482015260248101859052905193945091169163a9059cbb916044808201926020929091908290030181600087803b1580156142f957600080fd5b505af115801561430d573d6000803e3d6000fd5b505050506040513d602081101561432357600080fd5b5050604080514281526020810183905281517f3cdb297d43aaa0da840fd0a1f52eadd12f655a7a0002fb2eab8cf8172febc42c929181900390910190a15b61437181612bc384818888613dff565b600a54600754919550614392916001600160a01b039081169116600061461a565b600a546007546143af916001600160a01b0391821691168661461a565b600a54604080516397ffe1d760e01b81526004810187905290516001600160a01b03909216916397ffe1d79160248082019260009290919082900301818387803b1580156143fc57600080fd5b505af1158015614410573d6000803e3d6000fd5b50506027546001600160a01b03161591506144cb9050576027546004546001600160a01b039091169063723985169061444a906001613d9e565b601a5487888888886040518863ffffffff1660e01b815260040180888152602001878152602001868152602001858152602001848152602001838152602001828152602001975050505050505050600060405180830381600087803b1580156144b257600080fd5b505af11580156144c6573d6000803e3d6000fd5b505050505b604080514281526020810186905281517f03ca7276ab7799bf73fb79d27ff0610cd7049574f2508ef8445162833d439aea929181900390910190a150505050565b600060085b60118160ff168154811061452157fe5b906000526020600020015483106145565760128160ff168154811061454257fe5b60009182526020909120015460135561455f565b60001901614511565b5050601354919050565b60606145be826040518060400160405280602081526020017f5361666545524332303a206c6f772d6c6576656c2063616c6c206661696c6564815250856001600160a01b031661472d9092919063ffffffff16565b805190915015612092578080602001905160208110156145dd57600080fd5b50516120925760405162461bcd60e51b815260040180806020018281038252602a815260200180614beb602a913960400191505060405180910390fd5b8015806146a0575060408051636eb1769f60e11b81523060048201526001600160a01b03848116602483015291519185169163dd62ed3e91604480820192602092909190829003018186803b15801561467257600080fd5b505afa158015614686573d6000803e3d6000fd5b505050506040513d602081101561469c57600080fd5b5051155b6146db5760405162461bcd60e51b8152600401808060200182810382526036815260200180614c3b6036913960400191505060405180910390fd5b604080516001600160a01b038416602482015260448082018490528251808303909101815260649091019091526020810180516001600160e01b031663095ea7b360e01b179052612092908490614569565b606061473c8484600085614744565b949350505050565b6060824710156147855760405162461bcd60e51b8152600401808060200182810382526026815260200180614ab16026913960400191505060405180910390fd5b61478e856148a0565b6147df576040805162461bcd60e51b815260206004820152601d60248201527f416464726573733a2063616c6c20746f206e6f6e2d636f6e7472616374000000604482015290519081900360640190fd5b60006060866001600160a01b031685876040518082805190602001908083835b6020831061481e5780518252601f1990920191602091820191016147ff565b6001836020036101000a03801982511681845116808217855250505050505090500191505060006040518083038185875af1925050503d8060008114614880576040519150601f19603f3d011682016040523d82523d6000602084013e614885565b606091505b50915091506148958282866148a6565b979650505050505050565b3b151590565b606083156148b5575081613df8565b8251156148c55782518084602001fd5b8160405162461bcd60e51b81526004018080602001828103825283818151815260200191508051906020019080838360005b8381101561490f5781810151838201526020016148f7565b50505050905090810190601f16801561493c5780820380516001836020036101000a031916815260200191505b509250505060405180910390fd5b828054828255906000526020600020908101928215614994579160200282015b8281111561499457825182906affffffffffffffffffffff1690559160200191906001019061496a565b50610fd69291506149e0565b828054828255906000526020600020908101928215614994579160200282015b82811115614994578251829060ff169055916020019190600101906149c0565b5b80821115610fd657600081556001016149e156fe54726561737572793a20746f6b656e5072696365206e6f7420656c696769626c6520666f7220626f6e6420707572636861736554726561737572793a206661696c656420746f20636f6e73756c7420424f4d422070726963652066726f6d20746865206f7261636c6554726561737572793a2063616e6e6f742072656465656d20626f6e64732077697468207a65726f20616d6f756e745f7072656d69756d5468726573686f6c6420697320686967686572207468616e20312e35416464726573733a20696e73756666696369656e742062616c616e636520666f722063616c6c54726561737572793a20747265617375727920686173206e6f206d6f726520627564676574536166654d6174683a206d756c7469706c69636174696f6e206f766572666c6f7754726561737572793a2063616e6e6f7420707572636861736520626f6e64732077697468207a65726f20616d6f756e745f6d696e74696e67466163746f72466f72506179696e67446562743a206f7574206f662072616e67655f6d6178537570706c79457870616e73696f6e50657263656e743a206f7574206f662072616e6765496e6465782068617320746f206265206c6f776572207468616e20636f756e74206f6620746965727354726561737572793a2063616c6c6572206973206e6f7420746865206f70657261746f725361666545524332303a204552433230206f7065726174696f6e20646964206e6f742073756363656564436f6e747261637447756172643a206f6e6520626c6f636b2c206f6e652066756e6374696f6e5361666545524332303a20617070726f76652066726f6d206e6f6e2d7a65726f20746f206e6f6e2d7a65726f20616c6c6f77616e636554726561737572793a206e6f7420656e6f75676820626f6e64206c65667420746f2070757263686173655f626f6f747374726170537570706c79457870616e73696f6e50657263656e743a206f7574206f662072616e6765a2646970667358221220473105d5ad625f4155f075a084ac533ab42486a64386fc9a7e9d229a972e6f1264736f6c634300060c0033",
  "devdoc": {
    "kind": "dev",
    "methods": {},
    "version": 1
  },
  "userdoc": {
    "kind": "user",
    "methods": {},
    "version": 1
  },
  "storageLayout": {
    "storage": [
      {
        "astId": 27761,
        "contract": "contracts/Treasury/TreasuryBOMB.sol:TreasuryBOMB",
        "label": "_status",
        "offset": 0,
        "slot": "0",
        "type": "t_mapping(t_uint256,t_mapping(t_address,t_bool))"
      },
      {
        "astId": 1973,
        "contract": "contracts/Treasury/TreasuryBOMB.sol:TreasuryBOMB",
        "label": "_status",
        "offset": 0,
        "slot": "1",
        "type": "t_uint256"
      },
      {
        "astId": 17234,
        "contract": "contracts/Treasury/TreasuryBOMB.sol:TreasuryBOMB",
        "label": "operator",
        "offset": 0,
        "slot": "2",
        "type": "t_address"
      },
      {
        "astId": 17237,
        "contract": "contracts/Treasury/TreasuryBOMB.sol:TreasuryBOMB",
        "label": "initialized",
        "offset": 20,
        "slot": "2",
        "type": "t_bool"
      },
      {
        "astId": 17239,
        "contract": "contracts/Treasury/TreasuryBOMB.sol:TreasuryBOMB",
        "label": "startTime",
        "offset": 0,
        "slot": "3",
        "type": "t_uint256"
      },
      {
        "astId": 17242,
        "contract": "contracts/Treasury/TreasuryBOMB.sol:TreasuryBOMB",
        "label": "epoch",
        "offset": 0,
        "slot": "4",
        "type": "t_uint256"
      },
      {
        "astId": 17245,
        "contract": "contracts/Treasury/TreasuryBOMB.sol:TreasuryBOMB",
        "label": "epochSupplyContractionLeft",
        "offset": 0,
        "slot": "5",
        "type": "t_uint256"
      },
      {
        "astId": 17253,
        "contract": "contracts/Treasury/TreasuryBOMB.sol:TreasuryBOMB",
        "label": "excludedFromTotalSupply",
        "offset": 0,
        "slot": "6",
        "type": "t_array(t_address)dyn_storage"
      },
      {
        "astId": 17255,
        "contract": "contracts/Treasury/TreasuryBOMB.sol:TreasuryBOMB",
        "label": "token",
        "offset": 0,
        "slot": "7",
        "type": "t_address"
      },
      {
        "astId": 17257,
        "contract": "contracts/Treasury/TreasuryBOMB.sol:TreasuryBOMB",
        "label": "bond",
        "offset": 0,
        "slot": "8",
        "type": "t_address"
      },
      {
        "astId": 17259,
        "contract": "contracts/Treasury/TreasuryBOMB.sol:TreasuryBOMB",
        "label": "share",
        "offset": 0,
        "slot": "9",
        "type": "t_address"
      },
      {
        "astId": 17261,
        "contract": "contracts/Treasury/TreasuryBOMB.sol:TreasuryBOMB",
        "label": "boardroom",
        "offset": 0,
        "slot": "10",
        "type": "t_address"
      },
      {
        "astId": 17263,
        "contract": "contracts/Treasury/TreasuryBOMB.sol:TreasuryBOMB",
        "label": "tokenOracle",
        "offset": 0,
        "slot": "11",
        "type": "t_address"
      },
      {
        "astId": 17265,
        "contract": "contracts/Treasury/TreasuryBOMB.sol:TreasuryBOMB",
        "label": "boardroomWithdrawFee",
        "offset": 0,
        "slot": "12",
        "type": "t_uint256"
      },
      {
        "astId": 17267,
        "contract": "contracts/Treasury/TreasuryBOMB.sol:TreasuryBOMB",
        "label": "boardroomStakeFee",
        "offset": 0,
        "slot": "13",
        "type": "t_uint256"
      },
      {
        "astId": 17269,
        "contract": "contracts/Treasury/TreasuryBOMB.sol:TreasuryBOMB",
        "label": "tokenPriceOne",
        "offset": 0,
        "slot": "14",
        "type": "t_uint256"
      },
      {
        "astId": 17271,
        "contract": "contracts/Treasury/TreasuryBOMB.sol:TreasuryBOMB",
        "label": "tokenPriceCeiling",
        "offset": 0,
        "slot": "15",
        "type": "t_uint256"
      },
      {
        "astId": 17273,
        "contract": "contracts/Treasury/TreasuryBOMB.sol:TreasuryBOMB",
        "label": "seigniorageSaved",
        "offset": 0,
        "slot": "16",
        "type": "t_uint256"
      },
      {
        "astId": 17276,
        "contract": "contracts/Treasury/TreasuryBOMB.sol:TreasuryBOMB",
        "label": "supplyTiers",
        "offset": 0,
        "slot": "17",
        "type": "t_array(t_uint256)dyn_storage"
      },
      {
        "astId": 17279,
        "contract": "contracts/Treasury/TreasuryBOMB.sol:TreasuryBOMB",
        "label": "maxExpansionTiers",
        "offset": 0,
        "slot": "18",
        "type": "t_array(t_uint256)dyn_storage"
      },
      {
        "astId": 17281,
        "contract": "contracts/Treasury/TreasuryBOMB.sol:TreasuryBOMB",
        "label": "maxSupplyExpansionPercent",
        "offset": 0,
        "slot": "19",
        "type": "t_uint256"
      },
      {
        "astId": 17283,
        "contract": "contracts/Treasury/TreasuryBOMB.sol:TreasuryBOMB",
        "label": "bondDepletionFloorPercent",
        "offset": 0,
        "slot": "20",
        "type": "t_uint256"
      },
      {
        "astId": 17285,
        "contract": "contracts/Treasury/TreasuryBOMB.sol:TreasuryBOMB",
        "label": "seigniorageExpansionFloorPercent",
        "offset": 0,
        "slot": "21",
        "type": "t_uint256"
      },
      {
        "astId": 17287,
        "contract": "contracts/Treasury/TreasuryBOMB.sol:TreasuryBOMB",
        "label": "maxSupplyContractionPercent",
        "offset": 0,
        "slot": "22",
        "type": "t_uint256"
      },
      {
        "astId": 17289,
        "contract": "contracts/Treasury/TreasuryBOMB.sol:TreasuryBOMB",
        "label": "maxDebtRatioPercent",
        "offset": 0,
        "slot": "23",
        "type": "t_uint256"
      },
      {
        "astId": 17291,
        "contract": "contracts/Treasury/TreasuryBOMB.sol:TreasuryBOMB",
        "label": "bootstrapEpochs",
        "offset": 0,
        "slot": "24",
        "type": "t_uint256"
      },
      {
        "astId": 17293,
        "contract": "contracts/Treasury/TreasuryBOMB.sol:TreasuryBOMB",
        "label": "bootstrapSupplyExpansionPercent",
        "offset": 0,
        "slot": "25",
        "type": "t_uint256"
      },
      {
        "astId": 17295,
        "contract": "contracts/Treasury/TreasuryBOMB.sol:TreasuryBOMB",
        "label": "previousEpochTokenPrice",
        "offset": 0,
        "slot": "26",
        "type": "t_uint256"
      },
      {
        "astId": 17297,
        "contract": "contracts/Treasury/TreasuryBOMB.sol:TreasuryBOMB",
        "label": "maxDiscountRate",
        "offset": 0,
        "slot": "27",
        "type": "t_uint256"
      },
      {
        "astId": 17299,
        "contract": "contracts/Treasury/TreasuryBOMB.sol:TreasuryBOMB",
        "label": "maxPremiumRate",
        "offset": 0,
        "slot": "28",
        "type": "t_uint256"
      },
      {
        "astId": 17301,
        "contract": "contracts/Treasury/TreasuryBOMB.sol:TreasuryBOMB",
        "label": "discountPercent",
        "offset": 0,
        "slot": "29",
        "type": "t_uint256"
      },
      {
        "astId": 17303,
        "contract": "contracts/Treasury/TreasuryBOMB.sol:TreasuryBOMB",
        "label": "premiumThreshold",
        "offset": 0,
        "slot": "30",
        "type": "t_uint256"
      },
      {
        "astId": 17305,
        "contract": "contracts/Treasury/TreasuryBOMB.sol:TreasuryBOMB",
        "label": "premiumPercent",
        "offset": 0,
        "slot": "31",
        "type": "t_uint256"
      },
      {
        "astId": 17307,
        "contract": "contracts/Treasury/TreasuryBOMB.sol:TreasuryBOMB",
        "label": "mintingFactorForPayingDebt",
        "offset": 0,
        "slot": "32",
        "type": "t_uint256"
      },
      {
        "astId": 17309,
        "contract": "contracts/Treasury/TreasuryBOMB.sol:TreasuryBOMB",
        "label": "daoFund",
        "offset": 0,
        "slot": "33",
        "type": "t_address"
      },
      {
        "astId": 17311,
        "contract": "contracts/Treasury/TreasuryBOMB.sol:TreasuryBOMB",
        "label": "daoFundSharedPercent",
        "offset": 0,
        "slot": "34",
        "type": "t_uint256"
      },
      {
        "astId": 17313,
        "contract": "contracts/Treasury/TreasuryBOMB.sol:TreasuryBOMB",
        "label": "devFund",
        "offset": 0,
        "slot": "35",
        "type": "t_address"
      },
      {
        "astId": 17315,
        "contract": "contracts/Treasury/TreasuryBOMB.sol:TreasuryBOMB",
        "label": "devFundSharedPercent",
        "offset": 0,
        "slot": "36",
        "type": "t_uint256"
      },
      {
        "astId": 17317,
        "contract": "contracts/Treasury/TreasuryBOMB.sol:TreasuryBOMB",
        "label": "insuranceFund",
        "offset": 0,
        "slot": "37",
        "type": "t_address"
      },
      {
        "astId": 17319,
        "contract": "contracts/Treasury/TreasuryBOMB.sol:TreasuryBOMB",
        "label": "insuranceFundSharedPercent",
        "offset": 0,
        "slot": "38",
        "type": "t_uint256"
      },
      {
        "astId": 17321,
        "contract": "contracts/Treasury/TreasuryBOMB.sol:TreasuryBOMB",
        "label": "regulationStats",
        "offset": 0,
        "slot": "39",
        "type": "t_address"
      }
    ],
    "types": {
      "t_address": {
        "encoding": "inplace",
        "label": "address",
        "numberOfBytes": "20"
      },
      "t_array(t_address)dyn_storage": {
        "base": "t_address",
        "encoding": "dynamic_array",
        "label": "address[]",
        "numberOfBytes": "32"
      },
      "t_array(t_uint256)dyn_storage": {
        "base": "t_uint256",
        "encoding": "dynamic_array",
        "label": "uint256[]",
        "numberOfBytes": "32"
      },
      "t_bool": {
        "encoding": "inplace",
        "label": "bool",
        "numberOfBytes": "1"
      },
      "t_mapping(t_address,t_bool)": {
        "encoding": "mapping",
        "key": "t_address",
        "label": "mapping(address => bool)",
        "numberOfBytes": "32",
        "value": "t_bool"
      },
      "t_mapping(t_uint256,t_mapping(t_address,t_bool))": {
        "encoding": "mapping",
        "key": "t_uint256",
        "label": "mapping(uint256 => mapping(address => bool))",
        "numberOfBytes": "32",
        "value": "t_mapping(t_address,t_bool)"
      },
      "t_uint256": {
        "encoding": "inplace",
        "label": "uint256",
        "numberOfBytes": "32"
      }
    }
  }
}