{
  "address": "0x7ACBCE6544fbA13A95bBe99E807240Fa6394c96B",
  "abi": [
    {
      "anonymous": false,
      "inputs": [
        {
          "indexed": false,
          "internalType": "uint256",
          "name": "timestamp",
          "type": "uint256"
        },
        {
          "indexed": false,
          "internalType": "uint256",
          "name": "seigniorage",
          "type": "uint256"
        }
      ],
      "name": "BoardroomFunded",
      "type": "event"
    },
    {
      "anonymous": false,
      "inputs": [
        {
          "indexed": true,
          "internalType": "address",
          "name": "from",
          "type": "address"
        },
        {
          "indexed": false,
          "internalType": "uint256",
          "name": "tokenAmount",
          "type": "uint256"
        },
        {
          "indexed": false,
          "internalType": "uint256",
          "name": "bondAmount",
          "type": "uint256"
        }
      ],
      "name": "BoughtBonds",
      "type": "event"
    },
    {
      "anonymous": false,
      "inputs": [
        {
          "indexed": true,
          "internalType": "address",
          "name": "from",
          "type": "address"
        },
        {
          "indexed": false,
          "internalType": "uint256",
          "name": "bondAmount",
          "type": "uint256"
        }
      ],
      "name": "BurnedBonds",
      "type": "event"
    },
    {
      "anonymous": false,
      "inputs": [
        {
          "indexed": false,
          "internalType": "uint256",
          "name": "timestamp",
          "type": "uint256"
        },
        {
          "indexed": false,
          "internalType": "uint256",
          "name": "seigniorage",
          "type": "uint256"
        }
      ],
      "name": "DaoFundFunded",
      "type": "event"
    },
    {
      "anonymous": false,
      "inputs": [
        {
          "indexed": false,
          "internalType": "uint256",
          "name": "timestamp",
          "type": "uint256"
        },
        {
          "indexed": false,
          "internalType": "uint256",
          "name": "seigniorage",
          "type": "uint256"
        }
      ],
      "name": "DevFundFunded",
      "type": "event"
    },
    {
      "anonymous": false,
      "inputs": [
        {
          "indexed": true,
          "internalType": "address",
          "name": "executor",
          "type": "address"
        },
        {
          "indexed": false,
          "internalType": "uint256",
          "name": "at",
          "type": "uint256"
        }
      ],
      "name": "Initialized",
      "type": "event"
    },
    {
      "anonymous": false,
      "inputs": [
        {
          "indexed": false,
          "internalType": "uint256",
          "name": "timestamp",
          "type": "uint256"
        },
        {
          "indexed": false,
          "internalType": "uint256",
          "name": "seigniorage",
          "type": "uint256"
        }
      ],
      "name": "InsuranceFundFunded",
      "type": "event"
    },
    {
      "anonymous": false,
      "inputs": [
        {
          "indexed": true,
          "internalType": "address",
          "name": "from",
          "type": "address"
        },
        {
          "indexed": false,
          "internalType": "uint256",
          "name": "tokenAmount",
          "type": "uint256"
        },
        {
          "indexed": false,
          "internalType": "uint256",
          "name": "bondAmount",
          "type": "uint256"
        }
      ],
      "name": "RedeemedBonds",
      "type": "event"
    },
    {
      "anonymous": false,
      "inputs": [
        {
          "indexed": false,
          "internalType": "uint256",
          "name": "epoch",
          "type": "uint256"
        },
        {
          "indexed": false,
          "internalType": "uint256",
          "name": "twap",
          "type": "uint256"
        },
        {
          "indexed": false,
          "internalType": "uint256",
          "name": "expansion",
          "type": "uint256"
        }
      ],
      "name": "Seigniorage",
      "type": "event"
    },
    {
      "anonymous": false,
      "inputs": [
        {
          "indexed": false,
          "internalType": "uint256",
          "name": "timestamp",
          "type": "uint256"
        },
        {
          "indexed": false,
          "internalType": "uint256",
          "name": "seigniorage",
          "type": "uint256"
        }
      ],
      "name": "TreasuryFunded",
      "type": "event"
    },
    {
      "inputs": [],
      "name": "PERIOD",
      "outputs": [
        {
          "internalType": "uint256",
          "name": "",
          "type": "uint256"
        }
      ],
      "stateMutability": "view",
      "type": "function"
    },
    {
      "inputs": [],
      "name": "allocateSeigniorage",
      "outputs": [],
      "stateMutability": "nonpayable",
      "type": "function"
    },
    {
      "inputs": [],
      "name": "boardroom",
      "outputs": [
        {
          "internalType": "address",
          "name": "",
          "type": "address"
        }
      ],
      "stateMutability": "view",
      "type": "function"
    },
    {
      "inputs": [
        {
          "internalType": "uint256",
          "name": "amount",
          "type": "uint256"
        }
      ],
      "name": "boardroomAllocateSeigniorage",
      "outputs": [],
      "stateMutability": "nonpayable",
      "type": "function"
    },
    {
      "inputs": [
        {
          "internalType": "address",
          "name": "_token",
          "type": "address"
        },
        {
          "internalType": "uint256",
          "name": "_amount",
          "type": "uint256"
        },
        {
          "internalType": "address",
          "name": "_to",
          "type": "address"
        }
      ],
      "name": "boardroomGovernanceRecoverUnsupported",
      "outputs": [],
      "stateMutability": "nonpayable",
      "type": "function"
    },
    {
      "inputs": [
        {
          "internalType": "uint256",
          "name": "_withdrawLockupEpochs",
          "type": "uint256"
        },
        {
          "internalType": "uint256",
          "name": "_rewardLockupEpochs",
          "type": "uint256"
        }
      ],
      "name": "boardroomSetLockUp",
      "outputs": [],
      "stateMutability": "nonpayable",
      "type": "function"
    },
    {
      "inputs": [
        {
          "internalType": "address",
          "name": "_operator",
          "type": "address"
        }
      ],
      "name": "boardroomSetOperator",
      "outputs": [],
      "stateMutability": "nonpayable",
      "type": "function"
    },
    {
      "inputs": [
        {
          "internalType": "address",
          "name": "_reserveFund",
          "type": "address"
        }
      ],
      "name": "boardroomSetReserveFund",
      "outputs": [],
      "stateMutability": "nonpayable",
      "type": "function"
    },
    {
      "inputs": [],
      "name": "boardroomStakeFee",
      "outputs": [
        {
          "internalType": "uint256",
          "name": "",
          "type": "uint256"
        }
      ],
      "stateMutability": "view",
      "type": "function"
    },
    {
      "inputs": [],
      "name": "boardroomWithdrawFee",
      "outputs": [
        {
          "internalType": "uint256",
          "name": "",
          "type": "uint256"
        }
      ],
      "stateMutability": "view",
      "type": "function"
    },
    {
      "inputs": [],
      "name": "bond",
      "outputs": [
        {
          "internalType": "address",
          "name": "",
          "type": "address"
        }
      ],
      "stateMutability": "view",
      "type": "function"
    },
    {
      "inputs": [],
      "name": "bondDepletionFloorPercent",
      "outputs": [
        {
          "internalType": "uint256",
          "name": "",
          "type": "uint256"
        }
      ],
      "stateMutability": "view",
      "type": "function"
    },
    {
      "inputs": [],
      "name": "bootstrapEpochs",
      "outputs": [
        {
          "internalType": "uint256",
          "name": "",
          "type": "uint256"
        }
      ],
      "stateMutability": "view",
      "type": "function"
    },
    {
      "inputs": [],
      "name": "bootstrapSupplyExpansionPercent",
      "outputs": [
        {
          "internalType": "uint256",
          "name": "",
          "type": "uint256"
        }
      ],
      "stateMutability": "view",
      "type": "function"
    },
    {
      "inputs": [
        {
          "internalType": "uint256",
          "name": "_tokenAmount",
          "type": "uint256"
        },
        {
          "internalType": "uint256",
          "name": "targetPrice",
          "type": "uint256"
        }
      ],
      "name": "buyBonds",
      "outputs": [],
      "stateMutability": "nonpayable",
      "type": "function"
    },
    {
      "inputs": [],
      "name": "daoFund",
      "outputs": [
        {
          "internalType": "address",
          "name": "",
          "type": "address"
        }
      ],
      "stateMutability": "view",
      "type": "function"
    },
    {
      "inputs": [],
      "name": "daoFundSharedPercent",
      "outputs": [
        {
          "internalType": "uint256",
          "name": "",
          "type": "uint256"
        }
      ],
      "stateMutability": "view",
      "type": "function"
    },
    {
      "inputs": [],
      "name": "devFund",
      "outputs": [
        {
          "internalType": "address",
          "name": "",
          "type": "address"
        }
      ],
      "stateMutability": "view",
      "type": "function"
    },
    {
      "inputs": [],
      "name": "devFundSharedPercent",
      "outputs": [
        {
          "internalType": "uint256",
          "name": "",
          "type": "uint256"
        }
      ],
      "stateMutability": "view",
      "type": "function"
    },
    {
      "inputs": [],
      "name": "discountPercent",
      "outputs": [
        {
          "internalType": "uint256",
          "name": "",
          "type": "uint256"
        }
      ],
      "stateMutability": "view",
      "type": "function"
    },
    {
      "inputs": [],
      "name": "epoch",
      "outputs": [
        {
          "internalType": "uint256",
          "name": "",
          "type": "uint256"
        }
      ],
      "stateMutability": "view",
      "type": "function"
    },
    {
      "inputs": [],
      "name": "epochSupplyContractionLeft",
      "outputs": [
        {
          "internalType": "uint256",
          "name": "",
          "type": "uint256"
        }
      ],
      "stateMutability": "view",
      "type": "function"
    },
    {
      "inputs": [
        {
          "internalType": "uint256",
          "name": "",
          "type": "uint256"
        }
      ],
      "name": "excludedFromTotalSupply",
      "outputs": [
        {
          "internalType": "address",
          "name": "",
          "type": "address"
        }
      ],
      "stateMutability": "view",
      "type": "function"
    },
    {
      "inputs": [],
      "name": "getBondDiscountRate",
      "outputs": [
        {
          "internalType": "uint256",
          "name": "_rate",
          "type": "uint256"
        }
      ],
      "stateMutability": "view",
      "type": "function"
    },
    {
      "inputs": [],
      "name": "getBondPremiumRate",
      "outputs": [
        {
          "internalType": "uint256",
          "name": "_rate",
          "type": "uint256"
        }
      ],
      "stateMutability": "view",
      "type": "function"
    },
    {
      "inputs": [],
      "name": "getBurnableTokenLeft",
      "outputs": [
        {
          "internalType": "uint256",
          "name": "_burnableTokenLeft",
          "type": "uint256"
        }
      ],
      "stateMutability": "view",
      "type": "function"
    },
    {
      "inputs": [],
      "name": "getRedeemableBonds",
      "outputs": [
        {
          "internalType": "uint256",
          "name": "_redeemableBonds",
          "type": "uint256"
        }
      ],
      "stateMutability": "view",
      "type": "function"
    },
    {
      "inputs": [],
      "name": "getReserve",
      "outputs": [
        {
          "internalType": "uint256",
          "name": "",
          "type": "uint256"
        }
      ],
      "stateMutability": "view",
      "type": "function"
    },
    {
      "inputs": [],
      "name": "getTokenCirculatingSupply",
      "outputs": [
        {
          "internalType": "uint256",
          "name": "",
          "type": "uint256"
        }
      ],
      "stateMutability": "view",
      "type": "function"
    },
    {
      "inputs": [],
      "name": "getTokenPrice",
      "outputs": [
        {
          "internalType": "uint256",
          "name": "tokenPrice",
          "type": "uint256"
        }
      ],
      "stateMutability": "view",
      "type": "function"
    },
    {
      "inputs": [],
      "name": "getTokenUpdatedPrice",
      "outputs": [
        {
          "internalType": "uint256",
          "name": "_tokenPrice",
          "type": "uint256"
        }
      ],
      "stateMutability": "view",
      "type": "function"
    },
    {
      "inputs": [
        {
          "internalType": "contract IERC20",
          "name": "_token",
          "type": "address"
        },
        {
          "internalType": "uint256",
          "name": "_amount",
          "type": "uint256"
        },
        {
          "internalType": "address",
          "name": "_to",
          "type": "address"
        }
      ],
      "name": "governanceRecoverUnsupported",
      "outputs": [],
      "stateMutability": "nonpayable",
      "type": "function"
    },
    {
      "inputs": [
        {
          "internalType": "address",
          "name": "_token",
          "type": "address"
        },
        {
          "internalType": "address",
          "name": "_bond",
          "type": "address"
        },
        {
          "internalType": "address",
          "name": "_share",
          "type": "address"
        },
        {
          "internalType": "address",
          "name": "_tokenOracle",
          "type": "address"
        },
        {
          "internalType": "address",
          "name": "_boardroom",
          "type": "address"
        },
        {
          "internalType": "uint256",
          "name": "_startTime",
          "type": "uint256"
        }
      ],
      "name": "initialize",
      "outputs": [],
      "stateMutability": "nonpayable",
      "type": "function"
    },
    {
      "inputs": [],
      "name": "initialized",
      "outputs": [
        {
          "internalType": "bool",
          "name": "",
          "type": "bool"
        }
      ],
      "stateMutability": "view",
      "type": "function"
    },
    {
      "inputs": [],
      "name": "insuranceFund",
      "outputs": [
        {
          "internalType": "address",
          "name": "",
          "type": "address"
        }
      ],
      "stateMutability": "view",
      "type": "function"
    },
    {
      "inputs": [],
      "name": "insuranceFundSharedPercent",
      "outputs": [
        {
          "internalType": "uint256",
          "name": "",
          "type": "uint256"
        }
      ],
      "stateMutability": "view",
      "type": "function"
    },
    {
      "inputs": [],
      "name": "isInitialized",
      "outputs": [
        {
          "internalType": "bool",
          "name": "",
          "type": "bool"
        }
      ],
      "stateMutability": "view",
      "type": "function"
    },
    {
      "inputs": [],
      "name": "maxDebtRatioPercent",
      "outputs": [
        {
          "internalType": "uint256",
          "name": "",
          "type": "uint256"
        }
      ],
      "stateMutability": "view",
      "type": "function"
    },
    {
      "inputs": [],
      "name": "maxDiscountRate",
      "outputs": [
        {
          "internalType": "uint256",
          "name": "",
          "type": "uint256"
        }
      ],
      "stateMutability": "view",
      "type": "function"
    },
    {
      "inputs": [
        {
          "internalType": "uint256",
          "name": "",
          "type": "uint256"
        }
      ],
      "name": "maxExpansionTiers",
      "outputs": [
        {
          "internalType": "uint256",
          "name": "",
          "type": "uint256"
        }
      ],
      "stateMutability": "view",
      "type": "function"
    },
    {
      "inputs": [],
      "name": "maxPremiumRate",
      "outputs": [
        {
          "internalType": "uint256",
          "name": "",
          "type": "uint256"
        }
      ],
      "stateMutability": "view",
      "type": "function"
    },
    {
      "inputs": [],
      "name": "maxSupplyContractionPercent",
      "outputs": [
        {
          "internalType": "uint256",
          "name": "",
          "type": "uint256"
        }
      ],
      "stateMutability": "view",
      "type": "function"
    },
    {
      "inputs": [],
      "name": "maxSupplyExpansionPercent",
      "outputs": [
        {
          "internalType": "uint256",
          "name": "",
          "type": "uint256"
        }
      ],
      "stateMutability": "view",
      "type": "function"
    },
    {
      "inputs": [],
      "name": "mintingFactorForPayingDebt",
      "outputs": [
        {
          "internalType": "uint256",
          "name": "",
          "type": "uint256"
        }
      ],
      "stateMutability": "view",
      "type": "function"
    },
    {
      "inputs": [],
      "name": "nextEpochPoint",
      "outputs": [
        {
          "internalType": "uint256",
          "name": "",
          "type": "uint256"
        }
      ],
      "stateMutability": "view",
      "type": "function"
    },
    {
      "inputs": [],
      "name": "operator",
      "outputs": [
        {
          "internalType": "address",
          "name": "",
          "type": "address"
        }
      ],
      "stateMutability": "view",
      "type": "function"
    },
    {
      "inputs": [],
      "name": "premiumPercent",
      "outputs": [
        {
          "internalType": "uint256",
          "name": "",
          "type": "uint256"
        }
      ],
      "stateMutability": "view",
      "type": "function"
    },
    {
      "inputs": [],
      "name": "premiumThreshold",
      "outputs": [
        {
          "internalType": "uint256",
          "name": "",
          "type": "uint256"
        }
      ],
      "stateMutability": "view",
      "type": "function"
    },
    {
      "inputs": [],
      "name": "previousEpochTokenPrice",
      "outputs": [
        {
          "internalType": "uint256",
          "name": "",
          "type": "uint256"
        }
      ],
      "stateMutability": "view",
      "type": "function"
    },
    {
      "inputs": [
        {
          "internalType": "uint256",
          "name": "_bondAmount",
          "type": "uint256"
        },
        {
          "internalType": "uint256",
          "name": "targetPrice",
          "type": "uint256"
        }
      ],
      "name": "redeemBonds",
      "outputs": [],
      "stateMutability": "nonpayable",
      "type": "function"
    },
    {
      "inputs": [],
      "name": "regulationStats",
      "outputs": [
        {
          "internalType": "address",
          "name": "",
          "type": "address"
        }
      ],
      "stateMutability": "view",
      "type": "function"
    },
    {
      "inputs": [],
      "name": "seigniorageExpansionFloorPercent",
      "outputs": [
        {
          "internalType": "uint256",
          "name": "",
          "type": "uint256"
        }
      ],
      "stateMutability": "view",
      "type": "function"
    },
    {
      "inputs": [],
      "name": "seigniorageSaved",
      "outputs": [
        {
          "internalType": "uint256",
          "name": "",
          "type": "uint256"
        }
      ],
      "stateMutability": "view",
      "type": "function"
    },
    {
      "inputs": [
        {
          "internalType": "address",
          "name": "_boardroom",
          "type": "address"
        }
      ],
      "name": "setBoardroom",
      "outputs": [],
      "stateMutability": "nonpayable",
      "type": "function"
    },
    {
      "inputs": [
        {
          "internalType": "uint256",
          "name": "_boardroomStakeFee",
          "type": "uint256"
        }
      ],
      "name": "setBoardroomStakeFee",
      "outputs": [],
      "stateMutability": "nonpayable",
      "type": "function"
    },
    {
      "inputs": [
        {
          "internalType": "uint256",
          "name": "_boardroomWithdrawFee",
          "type": "uint256"
        }
      ],
      "name": "setBoardroomWithdrawFee",
      "outputs": [],
      "stateMutability": "nonpayable",
      "type": "function"
    },
    {
      "inputs": [
        {
          "internalType": "uint256",
          "name": "_bondDepletionFloorPercent",
          "type": "uint256"
        }
      ],
      "name": "setBondDepletionFloorPercent",
      "outputs": [],
      "stateMutability": "nonpayable",
      "type": "function"
    },
    {
      "inputs": [
        {
          "internalType": "uint256",
          "name": "_bootstrapEpochs",
          "type": "uint256"
        },
        {
          "internalType": "uint256",
          "name": "_bootstrapSupplyExpansionPercent",
          "type": "uint256"
        }
      ],
      "name": "setBootstrap",
      "outputs": [],
      "stateMutability": "nonpayable",
      "type": "function"
    },
    {
      "inputs": [
        {
          "internalType": "uint256",
          "name": "_discountPercent",
          "type": "uint256"
        }
      ],
      "name": "setDiscountPercent",
      "outputs": [],
      "stateMutability": "nonpayable",
      "type": "function"
    },
    {
      "inputs": [
        {
          "internalType": "address",
          "name": "_daoFund",
          "type": "address"
        },
        {
          "internalType": "uint256",
          "name": "_daoFundSharedPercent",
          "type": "uint256"
        },
        {
          "internalType": "address",
          "name": "_devFund",
          "type": "address"
        },
        {
          "internalType": "uint256",
          "name": "_devFundSharedPercent",
          "type": "uint256"
        },
        {
          "internalType": "address",
          "name": "_insuranceFund",
          "type": "address"
        },
        {
          "internalType": "uint256",
          "name": "_insuranceFundSharedPercent",
          "type": "uint256"
        }
      ],
      "name": "setExtraFunds",
      "outputs": [],
      "stateMutability": "nonpayable",
      "type": "function"
    },
    {
      "inputs": [
        {
          "internalType": "uint256",
          "name": "_maxDebtRatioPercent",
          "type": "uint256"
        }
      ],
      "name": "setMaxDebtRatioPercent",
      "outputs": [],
      "stateMutability": "nonpayable",
      "type": "function"
    },
    {
      "inputs": [
        {
          "internalType": "uint256",
          "name": "_maxDiscountRate",
          "type": "uint256"
        }
      ],
      "name": "setMaxDiscountRate",
      "outputs": [],
      "stateMutability": "nonpayable",
      "type": "function"
    },
    {
      "inputs": [
        {
          "internalType": "uint8",
          "name": "_index",
          "type": "uint8"
        },
        {
          "internalType": "uint256",
          "name": "_value",
          "type": "uint256"
        }
      ],
      "name": "setMaxExpansionTiersEntry",
      "outputs": [
        {
          "internalType": "bool",
          "name": "",
          "type": "bool"
        }
      ],
      "stateMutability": "nonpayable",
      "type": "function"
    },
    {
      "inputs": [
        {
          "internalType": "uint256",
          "name": "_maxPremiumRate",
          "type": "uint256"
        }
      ],
      "name": "setMaxPremiumRate",
      "outputs": [],
      "stateMutability": "nonpayable",
      "type": "function"
    },
    {
      "inputs": [
        {
          "internalType": "uint256",
          "name": "_maxSupplyContractionPercent",
          "type": "uint256"
        }
      ],
      "name": "setMaxSupplyContractionPercent",
      "outputs": [],
      "stateMutability": "nonpayable",
      "type": "function"
    },
    {
      "inputs": [
        {
          "internalType": "uint256",
          "name": "_maxSupplyExpansionPercent",
          "type": "uint256"
        }
      ],
      "name": "setMaxSupplyExpansionPercents",
      "outputs": [],
      "stateMutability": "nonpayable",
      "type": "function"
    },
    {
      "inputs": [
        {
          "internalType": "uint256",
          "name": "_mintingFactorForPayingDebt",
          "type": "uint256"
        }
      ],
      "name": "setMintingFactorForPayingDebt",
      "outputs": [],
      "stateMutability": "nonpayable",
      "type": "function"
    },
    {
      "inputs": [
        {
          "internalType": "address",
          "name": "_operator",
          "type": "address"
        }
      ],
      "name": "setOperator",
      "outputs": [],
      "stateMutability": "nonpayable",
      "type": "function"
    },
    {
      "inputs": [
        {
          "internalType": "uint256",
          "name": "_premiumPercent",
          "type": "uint256"
        }
      ],
      "name": "setPremiumPercent",
      "outputs": [],
      "stateMutability": "nonpayable",
      "type": "function"
    },
    {
      "inputs": [
        {
          "internalType": "uint256",
          "name": "_premiumThreshold",
          "type": "uint256"
        }
      ],
      "name": "setPremiumThreshold",
      "outputs": [],
      "stateMutability": "nonpayable",
      "type": "function"
    },
    {
      "inputs": [
        {
          "internalType": "address",
          "name": "_regulationStats",
          "type": "address"
        }
      ],
      "name": "setRegulationStats",
      "outputs": [],
      "stateMutability": "nonpayable",
      "type": "function"
    },
    {
      "inputs": [
        {
          "internalType": "uint8",
          "name": "_index",
          "type": "uint8"
        },
        {
          "internalType": "uint256",
          "name": "_value",
          "type": "uint256"
        }
      ],
      "name": "setSupplyTiersEntry",
      "outputs": [
        {
          "internalType": "bool",
          "name": "",
          "type": "bool"
        }
      ],
      "stateMutability": "nonpayable",
      "type": "function"
    },
    {
      "inputs": [
        {
          "internalType": "address",
          "name": "_tokenOracle",
          "type": "address"
        }
      ],
      "name": "setTokenOracle",
      "outputs": [],
      "stateMutability": "nonpayable",
      "type": "function"
    },
    {
      "inputs": [
        {
          "internalType": "uint256",
          "name": "_tokenPriceCeiling",
          "type": "uint256"
        }
      ],
      "name": "setTokenPriceCeiling",
      "outputs": [],
      "stateMutability": "nonpayable",
      "type": "function"
    },
    {
      "inputs": [],
      "name": "share",
      "outputs": [
        {
          "internalType": "address",
          "name": "",
          "type": "address"
        }
      ],
      "stateMutability": "view",
      "type": "function"
    },
    {
      "inputs": [],
      "name": "startTime",
      "outputs": [
        {
          "internalType": "uint256",
          "name": "",
          "type": "uint256"
        }
      ],
      "stateMutability": "view",
      "type": "function"
    },
    {
      "inputs": [
        {
          "internalType": "uint256",
          "name": "",
          "type": "uint256"
        }
      ],
      "name": "supplyTiers",
      "outputs": [
        {
          "internalType": "uint256",
          "name": "",
          "type": "uint256"
        }
      ],
      "stateMutability": "view",
      "type": "function"
    },
    {
      "inputs": [],
      "name": "token",
      "outputs": [
        {
          "internalType": "address",
          "name": "",
          "type": "address"
        }
      ],
      "stateMutability": "view",
      "type": "function"
    },
    {
      "inputs": [],
      "name": "tokenOracle",
      "outputs": [
        {
          "internalType": "address",
          "name": "",
          "type": "address"
        }
      ],
      "stateMutability": "view",
      "type": "function"
    },
    {
      "inputs": [],
      "name": "tokenPriceCeiling",
      "outputs": [
        {
          "internalType": "uint256",
          "name": "",
          "type": "uint256"
        }
      ],
      "stateMutability": "view",
      "type": "function"
    },
    {
      "inputs": [],
      "name": "tokenPriceOne",
      "outputs": [
        {
          "internalType": "uint256",
          "name": "",
          "type": "uint256"
        }
      ],
      "stateMutability": "view",
      "type": "function"
    }
  ],
  "transactionHash": "0x05eff99ab6fe29005bb7d2b35599335aa23771e846e8f1046f93db289311e874",
  "args": [],
  "numDeployments": 1,
  "solcInputHash": "d2a7bbe40846e68fb0ed2db2af96c568",
  "bytecode": "0x6002805460ff60a01b191681556000600481905560055560c060405273bc0bc07a7e05b9a11a8e504fc29eb49d084454756080908152736e6bb04f91c928fbdc7f036462b0474107d86ef160a0526200005c916006919062000075565b503480156200006a57600080fd5b506001805562000100565b828054828255906000526020600020908101928215620000cd579160200282015b82811115620000cd57825182546001600160a01b0319166001600160a01b0390911617825560209092019160019091019062000096565b50620000db929150620000df565b5090565b5b80821115620000db5780546001600160a01b0319168155600101620000e0565b614c4080620001106000396000f3fe608060405234801561001057600080fd5b506004361061048a5760003560e01c806381d11eaf11610262578063b4d1d79511610151578063d98f2495116100ce578063f4f102c111610092578063f4f102c114610a93578063f77c9fd814610a9b578063f8cd4d7214610aa3578063fc0c546a14610ac6578063fcb6f00814610ace578063feaa798f14610ad65761048a565b8063d98f249514610a56578063da3ed41914610a5e578063e388ac1014610a66578063e90b245414610a83578063f14698de14610a8b5761048a565b8063c8f987f311610115578063c8f987f3146109fb578063cecce38e14610a03578063d1ce75d414610a20578063d4b1494414610a28578063d70613d614610a4e5761048a565b8063b4d1d795146109d3578063b7902303146109db578063b8a878f9146109e3578063c5967c26146109eb578063c8412d02146109f35761048a565b806396a6ba20116101df578063a3ec30fe116101a3578063a3ec30fe14610923578063a8d5fd6514610959578063b06ce14a14610961578063b3ab15fb14610987578063b3ffc777146109ad5761048a565b806396a6ba201461088957806398b762a1146108af57806399820025146108cc578063a0487eea146108e9578063a204452b146109065761048a565b80638d934f74116102265780638d934f74146107e4578063900cf0cf146107ec57806391bbfed5146107f4578063940e60641461081757806395b6ef0c1461083d5761048a565b806381d11eaf1461079257806382cad8381461079a578063860c3177146107b7578063874106cc146107bf5780638c664db6146107c75761048a565b8063392e53cd1161037e578063570ca735116102fb5780635e02c51e116102bf5780635e02c51e1461076a57806364c9ec6f146107725780636c5ec25c1461077a57806372c054f91461078257806378e979251461078a5761048a565b8063570ca7351461072d578063591663e11461073557806359bf5d39146107525780635a0fc79c1461075a5780635b756179146107625761048a565b8063499f3f1911610342578063499f3f19146106a75780634b94f50e146106c457806354575af4146106cc57806354f04a111461070257806355ebdeef146107255761048a565b8063392e53cd146106305780634013a08e1461063857806340af7ba514610640578063419484f41461065d5780634390d2a8146106835761048a565b8063154ec2db1161040c57806326f45c6c116103d057806326f45c6c146105f3578063273f7b46146105fb57806329ef1919146106035780632e9c7b651461060b578063305ae216146106135761048a565b8063154ec2db1461054d578063158ef93e1461056a5780631b0fb35f146105865780631eda563a146105ce57806322f832cd146105eb5761048a565b80630b5bcec7116104535780630b5bcec7146104f55780630cf60175146105125780630db7eb0b1461051a5780630ef590a614610522578063118ebbf91461052a5761048a565b80620321041461048f57806301a93783146104a957806303be7e76146104c857806304e5c7b1146104d05780630595b47c146104ed575b600080fd5b610497610afc565b60408051918252519081900360200190f35b6104c6600480360360208110156104bf57600080fd5b5035610bd7565b005b610497610c88565b6104c6600480360360208110156104e657600080fd5b5035610c8e565b610497610d1c565b6104c66004803603602081101561050b57600080fd5b5035610e64565b610497610f00565b610497610fb2565b610497611054565b6104c66004803603604081101561054057600080fd5b508035906020013561105a565b6104c66004803603602081101561056357600080fd5b50356116b6565b61057261175b565b604080519115158252519081900360200190f35b6104c6600480360360c081101561059c57600080fd5b506001600160a01b03813581169160208101359160408201358116916060810135916080820135169060a0013561176b565b6104c6600480360360208110156105e457600080fd5b50356119a1565b610497611a88565b610497611a8e565b610497611b95565b610497611b9b565b610497611ba1565b6104c66004803603602081101561062957600080fd5b5035611ba7565b610572611c61565b610497611c71565b6104c66004803603602081101561065657600080fd5b5035611c77565b6104c66004803603602081101561067357600080fd5b50356001600160a01b0316611d1c565b61068b611d87565b604080516001600160a01b039092168252519081900360200190f35b6104c6600480360360208110156106bd57600080fd5b5035611d96565b610497611e33565b6104c6600480360360608110156106e257600080fd5b506001600160a01b03813581169160208101359160409091013516611e95565b6104c66004803603604081101561071857600080fd5b5080359060200135611fd9565b610497612717565b61068b61271d565b6104c66004803603602081101561074b57600080fd5b503561272c565b6104976127ce565b6104976127d4565b6104c66127da565b61068b612e69565b61068b612e78565b61068b612e87565b610497612e96565b610497612f4e565b610497612f54565b61068b600480360360208110156107b057600080fd5b5035612f5a565b610497612f81565b610497612f87565b6104c6600480360360208110156107dd57600080fd5b5035612f8d565b61068b61302f565b61049761303e565b6104c66004803603604081101561080a57600080fd5b5080359060200135613044565b6105726004803603604081101561082d57600080fd5b5060ff813516906020013561313c565b6104c6600480360360c081101561085357600080fd5b506001600160a01b0381358116916020810135821691604082013581169160608101358216916080820135169060a00135613258565b6104c66004803603602081101561089f57600080fd5b50356001600160a01b03166134f4565b6104c6600480360360208110156108c557600080fd5b503561355f565b610497600480360360208110156108e257600080fd5b50356135ad565b610497600480360360208110156108ff57600080fd5b50356135cb565b6104c66004803603602081101561091c57600080fd5b50356135d8565b6104c66004803603606081101561093957600080fd5b506001600160a01b03813581169160208101359160409091013516613626565b61068b6136e9565b6104c66004803603602081101561097757600080fd5b50356001600160a01b03166136f8565b6104c66004803603602081101561099d57600080fd5b50356001600160a01b031661378f565b6104c6600480360360208110156109c357600080fd5b50356001600160a01b03166137fa565b610497613865565b61068b61386b565b61049761387a565b610497613880565b6104976138aa565b6104976138b0565b6104c660048036036020811015610a1957600080fd5b50356138b6565b610497613957565b61057260048036036040811015610a3e57600080fd5b5060ff813516906020013561395d565b61068b613a57565b610497613a66565b610497613a6c565b6104c660048036036020811015610a7c57600080fd5b5035613a72565b610497613b63565b610497613b69565b610497613b6f565b610497613b75565b6104c660048036036040811015610ab957600080fd5b5080359060200135613b7b565b61068b613c34565b610497613c43565b6104c660048036036020811015610aec57600080fd5b50356001600160a01b0316613c49565b600b5460075460408051630d01142560e31b81526001600160a01b039283166004820152670de0b6b3a7640000602482015290516000939290921691636808a12891604480820192602092909190829003018186803b158015610b5e57600080fd5b505afa925050508015610b8357506040513d6020811015610b7e57600080fd5b505160015b610bbe5760405162461bcd60e51b815260040180806020018281038252603681526020018061496b6036913960400191505060405180910390fd5b71ffffffffffffffffffffffffffffffffffff16905090565b6002546001600160a01b03163314610c205760405162461bcd60e51b8152600401808060200182810382526024815260200180614b096024913960400191505060405180910390fd5b600a54604080516397ffe1d760e01b81526004810184905290516001600160a01b03909216916397ffe1d79160248082019260009290919082900301818387803b158015610c6d57600080fd5b505af1158015610c81573d6000803e3d6000fd5b5050505050565b60245481565b6002546001600160a01b03163314610cd75760405162461bcd60e51b8152600401808060200182810382526024815260200180614b096024913960400191505060405180910390fd5b6096811115610d175760405162461bcd60e51b81526004018080602001828103825260248152602001806149cf6024913960400191505060405180910390fd5b601e55565b600754604080516318160ddd60e01b815290516000926001600160a01b031691839183916318160ddd916004808301926020929190829003018186803b158015610d6557600080fd5b505afa158015610d79573d6000803e3d6000fd5b505050506040513d6020811015610d8f57600080fd5b505190506000805b60065460ff82161015610e5157610e47846001600160a01b03166370a0823160068460ff1681548110610dc657fe5b60009182526020918290200154604080516001600160e01b031960e086901b1681526001600160a01b0390921660048301525160248083019392829003018186803b158015610e1457600080fd5b505afa158015610e28573d6000803e3d6000fd5b505050506040513d6020811015610e3e57600080fd5b50518390613ce0565b9150600101610d97565b50610e5c8282613d41565b935050505090565b6002546001600160a01b03163314610ead5760405162461bcd60e51b8152600401808060200182810382526024815260200180614b096024913960400191505060405180910390fd5b600a8110158015610ec057506103e88111155b610efb5760405162461bcd60e51b8152600401808060200182810382526028815260200180614ab86028913960400191505060405180910390fd5b601355565b600080610f0b611e33565b9050600e548111610fae57601d54610f2757600e549150610fae565b6000610f5082610f4a670de0b6b3a7640000600e54613d9e90919063ffffffff16565b90613df7565b90506000610f7b612710610f4a601d54610f75600e5487613d4190919063ffffffff16565b90613d9e565b600e54909150610f8b9082613ce0565b93506000601b54118015610fa05750601b5484115b15610fab57601b5493505b50505b5090565b600080610fbd611e33565b9050600f54811115610fae576000610fe76064610f4a601e54600e54613d9e90919063ffffffff16565b9050808210611049576000611013612710610f4a601f54610f75600e5488613d4190919063ffffffff16565b600e549091506110239082613ce0565b93506000601c541180156110385750601c5484115b1561104357601c5493505b5061104f565b600e5492505b505090565b600f5481565b611062613e5e565b1561109e5760405162461bcd60e51b8152600401808060200182810382526026815260200180614b576026913960400191505060405180910390fd5b6110a6613e7d565b156110e25760405162461bcd60e51b8152600401808060200182810382526026815260200180614b576026913960400191505060405180910390fd5b600354421015611135576040805162461bcd60e51b8152602060048201526019602482015278151c99585cdd5c9e4e881b9bdd081cdd185c9d1959081e595d603a1b604482015290519081900360640190fd5b6007546040805163570ca73560e01b8152905130926001600160a01b03169163570ca735916004808301926020929190829003018186803b15801561117957600080fd5b505afa15801561118d573d6000803e3d6000fd5b505050506040513d60208110156111a357600080fd5b50516001600160a01b031614801561123157506008546040805163570ca73560e01b8152905130926001600160a01b03169163570ca735916004808301926020929190829003018186803b1580156111fa57600080fd5b505afa15801561120e573d6000803e3d6000fd5b505050506040513d602081101561122457600080fd5b50516001600160a01b0316145b80156112b35750600a546040805163570ca73560e01b8152905130926001600160a01b03169163570ca735916004808301926020929190829003018186803b15801561127c57600080fd5b505afa158015611290573d6000803e3d6000fd5b505050506040513d60208110156112a657600080fd5b50516001600160a01b0316145b611304576040805162461bcd60e51b815260206004820152601e60248201527f54726561737572793a206e656564206d6f7265207065726d697373696f6e0000604482015290519081900360640190fd5b600082116113435760405162461bcd60e51b815260040180806020018281038252602e8152602001806149a1602e913960400191505060405180910390fd5b600061134d611e33565b90508181146113a3576040805162461bcd60e51b815260206004820152601a60248201527f54726561737572793a20424f4d42207072696365206d6f766564000000000000604482015290519081900360640190fd5b600f5481116113e35760405162461bcd60e51b81526004018080602001828103825260338152602001806149386033913960400191505060405180910390fd5b60006113ed610fb2565b905060008111611444576040805162461bcd60e51b815260206004820152601b60248201527f54726561737572793a20696e76616c696420626f6e6420726174650000000000604482015290519081900360640190fd5b600061145c670de0b6b3a7640000610f4a8785613d9e565b600754604080516370a0823160e01b8152306004820152905192935083926001600160a01b03909216916370a0823191602480820192602092909190829003018186803b1580156114ac57600080fd5b505afa1580156114c0573d6000803e3d6000fd5b505050506040513d60208110156114d657600080fd5b505110156115155760405162461bcd60e51b8152600401808060200182810382526025815260200180614a196025913960400191505060405180910390fd5b61152d61152460105483613e9c565b60105490613d41565b6010556008546040805163079cc67960e41b81523360048201526024810188905290516001600160a01b03909216916379cc67909160448082019260009290919082900301818387803b15801561158357600080fd5b505af1158015611597573d6000803e3d6000fd5b50506007546115b392506001600160a01b031690503383613eb2565b6115bb613f04565b6027546001600160a01b03161561163c576027546004805460408051635a78027560e01b81529283019190915260248201849052516001600160a01b0390921691635a7802759160448082019260009290919082900301818387803b15801561162357600080fd5b505af1158015611637573d6000803e3d6000fd5b505050505b6040805182815260208101879052815133927f51e0d16595cabc591e64da08e45bb223577e5b9a39cd947b4ddc3472b2dd8878928290030190a25050436000908152602081815260408083203284529091528082208054600160ff1991821681179092553384529190922080549091169091179055505050565b6002546001600160a01b031633146116ff5760405162461bcd60e51b8152600401808060200182810382526024815260200180614b096024913960400191505060405180910390fd5b614e20811115611756576040805162461bcd60e51b815260206004820152601d60248201527f5f646973636f756e7450657263656e74206973206f7665722032303025000000604482015290519081900360640190fd5b601d55565b600254600160a01b900460ff1681565b6002546001600160a01b031633146117b45760405162461bcd60e51b8152600401808060200182810382526024815260200180614b096024913960400191505060405180910390fd5b6001600160a01b0386166117f8576040805162461bcd60e51b815260206004808301919091526024820152637a65726f60e01b604482015290519081900360640190fd5b61138885111561183e576040805162461bcd60e51b815260206004820152600c60248201526b6f7574206f662072616e676560a01b604482015290519081900360640190fd5b6001600160a01b038416611882576040805162461bcd60e51b815260206004808301919091526024820152637a65726f60e01b604482015290519081900360640190fd5b6103e88311156118c8576040805162461bcd60e51b815260206004820152600c60248201526b6f7574206f662072616e676560a01b604482015290519081900360640190fd5b6001600160a01b03821661190c576040805162461bcd60e51b815260206004808301919091526024820152637a65726f60e01b604482015290519081900360640190fd5b6103e8811115611952576040805162461bcd60e51b815260206004820152600c60248201526b6f7574206f662072616e676560a01b604482015290519081900360640190fd5b602180546001600160a01b03199081166001600160a01b039889161790915560229590955560238054861694871694909417909355602491909155602580549093169316929092179055602655565b6002546001600160a01b031633146119ea5760405162461bcd60e51b8152600401808060200182810382526024815260200180614b096024913960400191505060405180910390fd5b6005811115611a36576040805162461bcd60e51b81526020600482015260136024820152724d6178207374616b652066656520697320352560681b604482015290519081900360640190fd5b600d819055600a54604080516338b5efb960e21b81526004810184905290516001600160a01b039092169163e2d7bee49160248082019260009290919082900301818387803b158015610c6d57600080fd5b60155481565b600080611a99611e33565b9050600e548111610fae576000611aae610d1c565b90506000611acd612710610f4a60175485613d9e90919063ffffffff16565b90506000600860009054906101000a90046001600160a01b03166001600160a01b03166318160ddd6040518163ffffffff1660e01b815260040160206040518083038186803b158015611b1f57600080fd5b505afa158015611b33573d6000803e3d6000fd5b505050506040513d6020811015611b4957600080fd5b5051905080821115611b8e576000611b618383613d41565b90506000611b7b670de0b6b3a7640000610f4a8489613d9e565b9050611b8960055482613e9c565b965050505b5050505090565b601a5481565b601d5481565b601c5481565b6002546001600160a01b03163314611bf05760405162461bcd60e51b8152600401808060200182810382526024815260200180614b096024913960400191505060405180910390fd5b600e548110158015611c1c5750611c186064610f4a6078600e54613d9e90919063ffffffff16565b8111155b611c5c576040805162461bcd60e51b815260206004820152600c60248201526b6f7574206f662072616e676560a01b604482015290519081900360640190fd5b600f55565b600254600160a01b900460ff1690565b60205481565b6002546001600160a01b03163314611cc05760405162461bcd60e51b8152600401808060200182810382526024815260200180614b096024913960400191505060405180910390fd5b614e20811115611d17576040805162461bcd60e51b815260206004820152601c60248201527f5f7072656d69756d50657263656e74206973206f766572203230302500000000604482015290519081900360640190fd5b601f55565b6002546001600160a01b03163314611d655760405162461bcd60e51b8152600401808060200182810382526024815260200180614b096024913960400191505060405180910390fd5b602780546001600160a01b0319166001600160a01b0392909216919091179055565b6023546001600160a01b031681565b6002546001600160a01b03163314611ddf5760405162461bcd60e51b8152600401808060200182810382526024815260200180614b096024913960400191505060405180910390fd5b6127108110158015611df35750614e208111155b611e2e5760405162461bcd60e51b8152600401808060200182810382526029815260200180614a8f6029913960400191505060405180910390fd5b602055565b600b5460075460408051633ddac95360e01b81526001600160a01b039283166004820152670de0b6b3a7640000602482015290516000939290921691633ddac95391604480820192602092909190829003018186803b158015610b5e57600080fd5b6002546001600160a01b03163314611ede5760405162461bcd60e51b8152600401808060200182810382526024815260200180614b096024913960400191505060405180910390fd5b6007546001600160a01b0384811691161415611f29576040805162461bcd60e51b81526020600482015260056024820152643a37b5b2b760d91b604482015290519081900360640190fd5b6008546001600160a01b0384811691161415611f75576040805162461bcd60e51b81526020600480830191909152602482015263189bdb9960e21b604482015290519081900360640190fd5b6009546001600160a01b0384811691161415611fc0576040805162461bcd60e51b8152602060048201526005602482015264736861726560d81b604482015290519081900360640190fd5b611fd46001600160a01b0384168284613eb2565b505050565b611fe1613e5e565b1561201d5760405162461bcd60e51b8152600401808060200182810382526026815260200180614b576026913960400191505060405180910390fd5b612025613e7d565b156120615760405162461bcd60e51b8152600401808060200182810382526026815260200180614b576026913960400191505060405180910390fd5b6003544210156120b4576040805162461bcd60e51b8152602060048201526019602482015278151c99585cdd5c9e4e881b9bdd081cdd185c9d1959081e595d603a1b604482015290519081900360640190fd5b6007546040805163570ca73560e01b8152905130926001600160a01b03169163570ca735916004808301926020929190829003018186803b1580156120f857600080fd5b505afa15801561210c573d6000803e3d6000fd5b505050506040513d602081101561212257600080fd5b50516001600160a01b03161480156121b057506008546040805163570ca73560e01b8152905130926001600160a01b03169163570ca735916004808301926020929190829003018186803b15801561217957600080fd5b505afa15801561218d573d6000803e3d6000fd5b505050506040513d60208110156121a357600080fd5b50516001600160a01b0316145b80156122325750600a546040805163570ca73560e01b8152905130926001600160a01b03169163570ca735916004808301926020929190829003018186803b1580156121fb57600080fd5b505afa15801561220f573d6000803e3d6000fd5b505050506040513d602081101561222557600080fd5b50516001600160a01b0316145b612283576040805162461bcd60e51b815260206004820152601e60248201527f54726561737572793a206e656564206d6f7265207065726d697373696f6e0000604482015290519081900360640190fd5b600082116122c25760405162461bcd60e51b8152600401808060200182810382526030815260200180614a5f6030913960400191505060405180910390fd5b60006122cc611e33565b9050818114612322576040805162461bcd60e51b815260206004820152601a60248201527f54726561737572793a20424f4d42207072696365206d6f766564000000000000604482015290519081900360640190fd5b600e5481106123625760405162461bcd60e51b81526004018080602001828103825260338152602001806149386033913960400191505060405180910390fd5b6005548311156123a35760405162461bcd60e51b815260040180806020018281038252602a815260200180614bb3602a913960400191505060405180910390fd5b60006123ad610f00565b905060008111612404576040805162461bcd60e51b815260206004820152601b60248201527f54726561737572793a20696e76616c696420626f6e6420726174650000000000604482015290519081900360640190fd5b600061241c670de0b6b3a7640000610f4a8785613d9e565b90506000612428610d1c565b905060006124b083600860009054906101000a90046001600160a01b03166001600160a01b03166318160ddd6040518163ffffffff1660e01b815260040160206040518083038186803b15801561247e57600080fd5b505afa158015612492573d6000803e3d6000fd5b505050506040513d60208110156124a857600080fd5b505190613ce0565b90506124cd612710610f4a60175485613d9e90919063ffffffff16565b811115612517576040805162461bcd60e51b81526020600482015260136024820152726f766572206d6178206465627420726174696f60681b604482015290519081900360640190fd5b6007546040805163079cc67960e41b8152336004820152602481018a905290516001600160a01b03909216916379cc67909160448082019260009290919082900301818387803b15801561256a57600080fd5b505af115801561257e573d6000803e3d6000fd5b5050600854604080516340c10f1960e01b81523360048201526024810188905290516001600160a01b0390921693506340c10f1992506044808201926020929091908290030181600087803b1580156125d657600080fd5b505af11580156125ea573d6000803e3d6000fd5b505050506040513d602081101561260057600080fd5b505060055461260f9088613d41565b60055561261a613f04565b6027546001600160a01b03161561269b5760275460048054604080516368a3fd3160e01b81529283019190915260248201869052516001600160a01b03909216916368a3fd319160448082019260009290919082900301818387803b15801561268257600080fd5b505af1158015612696573d6000803e3d6000fd5b505050505b6040805188815260208101859052815133927f73017f1b70789e2e66759eeb3c7ec11f59e6eedb55d921cfaec5410dd42a4799928290030190a25050436000908152602081815260408083203284529091528082208054600160ff19918216811790925533845291909220805490911690911790555050505050565b60225481565b6002546001600160a01b031681565b6002546001600160a01b031633146127755760405162461bcd60e51b8152600401808060200182810382526024815260200180614b096024913960400191505060405180910390fd5b6103e8811015801561278957506127108111155b6127c9576040805162461bcd60e51b815260206004820152600c60248201526b6f7574206f662072616e676560a01b604482015290519081900360640190fd5b601755565b60105490565b60105481565b6127e2613e5e565b1561281e5760405162461bcd60e51b8152600401808060200182810382526026815260200180614b576026913960400191505060405180910390fd5b612826613e7d565b156128625760405162461bcd60e51b8152600401808060200182810382526026815260200180614b576026913960400191505060405180910390fd5b6003544210156128b5576040805162461bcd60e51b8152602060048201526019602482015278151c99585cdd5c9e4e881b9bdd081cdd185c9d1959081e595d603a1b604482015290519081900360640190fd5b6128bd613880565b421015612911576040805162461bcd60e51b815260206004820152601860248201527f54726561737572793a206e6f74206f70656e6564207965740000000000000000604482015290519081900360640190fd5b6007546040805163570ca73560e01b8152905130926001600160a01b03169163570ca735916004808301926020929190829003018186803b15801561295557600080fd5b505afa158015612969573d6000803e3d6000fd5b505050506040513d602081101561297f57600080fd5b50516001600160a01b0316148015612a0d57506008546040805163570ca73560e01b8152905130926001600160a01b03169163570ca735916004808301926020929190829003018186803b1580156129d657600080fd5b505afa1580156129ea573d6000803e3d6000fd5b505050506040513d6020811015612a0057600080fd5b50516001600160a01b0316145b8015612a8f5750600a546040805163570ca73560e01b8152905130926001600160a01b03169163570ca735916004808301926020929190829003018186803b158015612a5857600080fd5b505afa158015612a6c573d6000803e3d6000fd5b505050506040513d6020811015612a8257600080fd5b50516001600160a01b0316145b612ae0576040805162461bcd60e51b815260206004820152601e60248201527f54726561737572793a206e656564206d6f7265207065726d697373696f6e0000604482015290519081900360640190fd5b612ae8613f04565b612af0611e33565b601a55601054600090612b0b90612b05610d1c565b90613d41565b90506018546004541015612ba057612b3c612b37612710610f4a60195485613d9e90919063ffffffff16565b613f68565b7f94a896583ef35ce156f07410cc5a289d003c9a2200539d5282f2557769becb4a600454601a54612b7e612710610f4a60195487613d9e90919063ffffffff16565b60408051938452602084019290925282820152519081900360600190a1612ded565b600f54601a541115612ded57600854604080516318160ddd60e01b815290516000926001600160a01b0316916318160ddd916004808301926020929190829003018186803b158015612bf157600080fd5b505afa158015612c05573d6000803e3d6000fd5b505050506040513d6020811015612c1b57600080fd5b5051600e54601a54919250600091612c3291613d41565b90506000806000612c4c655af3107a4000610f758861444e565b905080841115612c5a578093505b612c75612710610f4a60145488613d9e90919063ffffffff16565b60105410612c9a57612c93670de0b6b3a7640000610f4a8887613d9e565b9150612d06565b6000612cb2670de0b6b3a7640000610f4a8988613d9e565b9050612ccf612710610f4a60155484613d9e90919063ffffffff16565b9250612cdb8184613d41565b60205490945015612d0457612d01612710610f4a60205487613d9e90919063ffffffff16565b93505b505b8115612d1557612d1582613f68565b8215612de757601054612d289084613ce0565b601055600754604080516340c10f1960e01b81523060048201526024810186905290516001600160a01b03909216916340c10f19916044808201926020929091908290030181600087803b158015612d7f57600080fd5b505af1158015612d93573d6000803e3d6000fd5b505050506040513d6020811015612da957600080fd5b5050604080514281526020810185905281517ff705142bf09f04297640495ddf7c59b7fd6f51894c5aea9602d631cf05f0efc2929181900390910190a15b50505050505b50600454612dfc906001613ce0565b600455600f54612e0a611e33565b11612e2857612e23612710610f4a601654610f75610d1c565b612e2b565b60005b600555436000908152602081815260408083203284529091528082208054600160ff1991821681179092553384529190922080549091169091179055565b600a546001600160a01b031681565b6008546001600160a01b031681565b600b546001600160a01b031681565b600080612ea1611e33565b9050600f54811115610fae57600754604080516370a0823160e01b815230600482015290516000926001600160a01b0316916370a08231916024808301926020929190829003018186803b158015612ef857600080fd5b505afa158015612f0c573d6000803e3d6000fd5b505050506040513d6020811015612f2257600080fd5b505190506000612f30610fb2565b90508015610fab57610e5c81610f4a84670de0b6b3a7640000613d9e565b60035481565b60145481565b60068181548110612f6757fe5b6000918252602090912001546001600160a01b0316905081565b60265481565b60195481565b6002546001600160a01b03163314612fd65760405162461bcd60e51b8152600401808060200182810382526024815260200180614b096024913960400191505060405180910390fd5b6101f48110158015612fea57506127108111155b61302a576040805162461bcd60e51b815260206004820152600c60248201526b6f7574206f662072616e676560a01b604482015290519081900360640190fd5b601455565b6021546001600160a01b031681565b60045481565b6002546001600160a01b0316331461308d5760405162461bcd60e51b8152600401808060200182810382526024815260200180614b096024913960400191505060405180910390fd5b60788211156130e3576040805162461bcd60e51b815260206004820152601e60248201527f5f626f6f74737472617045706f6368733a206f7574206f662072616e67650000604482015290519081900360640190fd5b606481101580156130f657506103e88111155b6131315760405162461bcd60e51b815260040180806020018281038252602e815260200180614bdd602e913960400191505060405180910390fd5b601891909155601955565b6002546000906001600160a01b031633146131885760405162461bcd60e51b8152600401808060200182810382526024815260200180614b096024913960400191505060405180910390fd5b60098360ff16106131ca5760405162461bcd60e51b8152600401808060200182810382526029815260200180614ae06029913960400191505060405180910390fd5b60ff8316156131fc5760116001840360ff16815481106131e657fe5b906000526020600020015482116131fc57600080fd5b60088360ff1610156132315760118360010160ff168154811061321b57fe5b9060005260206000200154821061323157600080fd5b8160118460ff168154811061324257fe5b6000918252602090912001555060015b92915050565b600254600160a01b900460ff16156132b7576040805162461bcd60e51b815260206004820152601d60248201527f54726561737572793a20616c726561647920696e697469616c697a6564000000604482015290519081900360640190fd5b600780546001600160a01b03199081166001600160a01b0389811691909117909255600880548216888416179055600980548216878416179055600b80548216868416179055600a80549091169184169190911790556003819055670de0b6b3a7640000600e819055613334906103e890610f4a906103e9613d9e565b600f556040805160c0810182526000815269152d02c7e14af680000060208201526934f086f3b33b68400000918101919091526969e10de76676d0800000606082015269d3c21bcecceda100000060808201526a0422ca8b0a00a42500000060a08201526133a690601190600661488c565b506040805160c081018252609680825260208201819052918101829052606081018290526080810182905260a08101919091526133e79060129060066148e2565b5061015e6013819055612710601455610dac601581815561012c6016556017919091556069601e55611b58601f55601855601955600754604080516370a0823160e01b815230600482015290516001600160a01b03909216916370a0823191602480820192602092909190829003018186803b15801561346657600080fd5b505afa15801561347a573d6000803e3d6000fd5b505050506040513d602081101561349057600080fd5b5051601055600280546001600160a01b031960ff60a01b19909116600160a01b1716339081179091556040805143815290517f25ff68dd81b34665b5ba7e553ee5511bf6812e12adb4a7e2c0d9e26b3099ce799181900360200190a2505050505050565b6002546001600160a01b0316331461353d5760405162461bcd60e51b8152600401808060200182810382526024815260200180614b096024913960400191505060405180910390fd5b600b80546001600160a01b0319166001600160a01b0392909216919091179055565b6002546001600160a01b031633146135a85760405162461bcd60e51b8152600401808060200182810382526024815260200180614b096024913960400191505060405180910390fd5b601b55565b601181815481106135ba57fe5b600091825260209091200154905081565b601281815481106135ba57fe5b6002546001600160a01b031633146136215760405162461bcd60e51b8152600401808060200182810382526024815260200180614b096024913960400191505060405180910390fd5b601c55565b6002546001600160a01b0316331461366f5760405162461bcd60e51b8152600401808060200182810382526024815260200180614b096024913960400191505060405180910390fd5b600a5460408051631515d6bd60e21b81526001600160a01b038681166004830152602482018690528481166044830152915191909216916354575af491606480830192600092919082900301818387803b1580156136cc57600080fd5b505af11580156136e0573d6000803e3d6000fd5b50505050505050565b6009546001600160a01b031681565b6002546001600160a01b031633146137415760405162461bcd60e51b8152600401808060200182810382526024815260200180614b096024913960400191505060405180910390fd5b600a546040805163b3ab15fb60e01b81526001600160a01b0384811660048301529151919092169163b3ab15fb91602480830192600092919082900301818387803b158015610c6d57600080fd5b6002546001600160a01b031633146137d85760405162461bcd60e51b8152600401808060200182810382526024815260200180614b096024913960400191505060405180910390fd5b600280546001600160a01b0319166001600160a01b0392909216919091179055565b6002546001600160a01b031633146138435760405162461bcd60e51b8152600401808060200182810382526024815260200180614b096024913960400191505060405180910390fd5b600a80546001600160a01b0319166001600160a01b0392909216919091179055565b61708081565b6025546001600160a01b031681565b601b5481565b60006138a561389c617080600454613d9e90919063ffffffff16565b60035490613ce0565b905090565b601f5481565b601e5481565b6002546001600160a01b031633146138ff5760405162461bcd60e51b8152600401808060200182810382526024815260200180614b096024913960400191505060405180910390fd5b6064811015801561391257506105dc8111155b613952576040805162461bcd60e51b815260206004820152600c60248201526b6f7574206f662072616e676560a01b604482015290519081900360640190fd5b601655565b600c5481565b6002546000906001600160a01b031633146139a95760405162461bcd60e51b8152600401808060200182810382526024815260200180614b096024913960400191505060405180910390fd5b60098360ff16106139eb5760405162461bcd60e51b8152600401808060200182810382526029815260200180614ae06029913960400191505060405180910390fd5b600a82101580156139fe57506103e88211155b613a46576040805162461bcd60e51b81526020600482015260146024820152735f76616c75653a206f7574206f662072616e676560601b604482015290519081900360640190fd5b8160128460ff168154811061324257fe5b6027546001600160a01b031681565b60135481565b60175481565b6002546001600160a01b03163314613abb5760405162461bcd60e51b8152600401808060200182810382526024815260200180614b096024913960400191505060405180910390fd5b6014811115613b11576040805162461bcd60e51b815260206004820152601760248201527f4d61782077697468647261772066656520697320323025000000000000000000604482015290519081900360640190fd5b600c819055600a5460408051635b56321560e11b81526004810184905290516001600160a01b039092169163b6ac642a9160248082019260009290919082900301818387803b158015610c6d57600080fd5b60165481565b60185481565b600d5481565b600e5481565b6002546001600160a01b03163314613bc45760405162461bcd60e51b8152600401808060200182810382526024815260200180614b096024913960400191505060405180910390fd5b600a5460408051632ffaaa0960e01b8152600481018590526024810184905290516001600160a01b0390921691632ffaaa099160448082019260009290919082900301818387803b158015613c1857600080fd5b505af1158015613c2c573d6000803e3d6000fd5b505050505050565b6007546001600160a01b031681565b60055481565b6002546001600160a01b03163314613c925760405162461bcd60e51b8152600401808060200182810382526024815260200180614b096024913960400191505060405180910390fd5b600a5460408051637a4c6c5360e11b81526001600160a01b0384811660048301529151919092169163f498d8a691602480830192600092919082900301818387803b158015610c6d57600080fd5b600082820183811015613d3a576040805162461bcd60e51b815260206004820152601b60248201527f536166654d6174683a206164646974696f6e206f766572666c6f770000000000604482015290519081900360640190fd5b9392505050565b600082821115613d98576040805162461bcd60e51b815260206004820152601e60248201527f536166654d6174683a207375627472616374696f6e206f766572666c6f770000604482015290519081900360640190fd5b50900390565b600082613dad57506000613252565b82820282848281613dba57fe5b0414613d3a5760405162461bcd60e51b8152600401808060200182810382526021815260200180614a3e6021913960400191505060405180910390fd5b6000808211613e4d576040805162461bcd60e51b815260206004820152601a60248201527f536166654d6174683a206469766973696f6e206279207a65726f000000000000604482015290519081900360640190fd5b818381613e5657fe5b049392505050565b4360009081526020818152604080832032845290915290205460ff1690565b4360009081526020818152604080832033845290915290205460ff1690565b6000818310613eab5781613d3a565b5090919050565b604080516001600160a01b038416602482015260448082018490528251808303909101815260649091019091526020810180516001600160e01b031663a9059cbb60e01b179052611fd49084906144ab565b600b60009054906101000a90046001600160a01b03166001600160a01b031663a2e620456040518163ffffffff1660e01b8152600401600060405180830381600087803b158015613f5457600080fd5b505af1925050508015613f65575060015b50565b600754604080516340c10f1960e01b81523060048201526024810184905290516001600160a01b03909216916340c10f19916044808201926020929091908290030181600087803b158015613fbc57600080fd5b505af1158015613fd0573d6000803e3d6000fd5b505050506040513d6020811015613fe657600080fd5b5050602254600090156140d15761400e612710610f4a60225485613d9e90919063ffffffff16565b6007546021546040805163a9059cbb60e01b81526001600160a01b03928316600482015260248101859052905193945091169163a9059cbb916044808201926020929091908290030181600087803b15801561406957600080fd5b505af115801561407d573d6000803e3d6000fd5b505050506040513d602081101561409357600080fd5b5050604080514281526020810183905281517fcb3f34aaa3445b461e6da5492dc89e5c257a59fa598131f3b6bbc97a3638e409929181900390910190a15b602454600090156141ba576140f7612710610f4a60245486613d9e90919063ffffffff16565b6007546023546040805163a9059cbb60e01b81526001600160a01b03928316600482015260248101859052905193945091169163a9059cbb916044808201926020929091908290030181600087803b15801561415257600080fd5b505af1158015614166573d6000803e3d6000fd5b505050506040513d602081101561417c57600080fd5b5050604080514281526020810183905281517fdc8b715b18523e58b7fd0da53259dfa91efd91df4a854d94b136e3333a3b9395929181900390910190a15b602654600090156142a3576141e0612710610f4a60265487613d9e90919063ffffffff16565b6007546025546040805163a9059cbb60e01b81526001600160a01b03928316600482015260248101859052905193945091169163a9059cbb916044808201926020929091908290030181600087803b15801561423b57600080fd5b505af115801561424f573d6000803e3d6000fd5b505050506040513d602081101561426557600080fd5b5050604080514281526020810183905281517f3cdb297d43aaa0da840fd0a1f52eadd12f655a7a0002fb2eab8cf8172febc42c929181900390910190a15b6142b381612b0584818888613d41565b600a546007549195506142d4916001600160a01b039081169116600061455c565b600a546007546142f1916001600160a01b0391821691168661455c565b600a54604080516397ffe1d760e01b81526004810187905290516001600160a01b03909216916397ffe1d79160248082019260009290919082900301818387803b15801561433e57600080fd5b505af1158015614352573d6000803e3d6000fd5b50506027546001600160a01b031615915061440d9050576027546004546001600160a01b039091169063723985169061438c906001613ce0565b601a5487888888886040518863ffffffff1660e01b815260040180888152602001878152602001868152602001858152602001848152602001838152602001828152602001975050505050505050600060405180830381600087803b1580156143f457600080fd5b505af1158015614408573d6000803e3d6000fd5b505050505b604080514281526020810186905281517f03ca7276ab7799bf73fb79d27ff0610cd7049574f2508ef8445162833d439aea929181900390910190a150505050565b600060085b60118160ff168154811061446357fe5b906000526020600020015483106144985760128160ff168154811061448457fe5b6000918252602090912001546013556144a1565b60001901614453565b5050601354919050565b6060614500826040518060400160405280602081526020017f5361666545524332303a206c6f772d6c6576656c2063616c6c206661696c6564815250856001600160a01b031661466f9092919063ffffffff16565b805190915015611fd45780806020019051602081101561451f57600080fd5b5051611fd45760405162461bcd60e51b815260040180806020018281038252602a815260200180614b2d602a913960400191505060405180910390fd5b8015806145e2575060408051636eb1769f60e11b81523060048201526001600160a01b03848116602483015291519185169163dd62ed3e91604480820192602092909190829003018186803b1580156145b457600080fd5b505afa1580156145c8573d6000803e3d6000fd5b505050506040513d60208110156145de57600080fd5b5051155b61461d5760405162461bcd60e51b8152600401808060200182810382526036815260200180614b7d6036913960400191505060405180910390fd5b604080516001600160a01b038416602482015260448082018490528251808303909101815260649091019091526020810180516001600160e01b031663095ea7b360e01b179052611fd49084906144ab565b606061467e8484600085614686565b949350505050565b6060824710156146c75760405162461bcd60e51b81526004018080602001828103825260268152602001806149f36026913960400191505060405180910390fd5b6146d0856147e2565b614721576040805162461bcd60e51b815260206004820152601d60248201527f416464726573733a2063616c6c20746f206e6f6e2d636f6e7472616374000000604482015290519081900360640190fd5b60006060866001600160a01b031685876040518082805190602001908083835b602083106147605780518252601f199092019160209182019101614741565b6001836020036101000a03801982511681845116808217855250505050505090500191505060006040518083038185875af1925050503d80600081146147c2576040519150601f19603f3d011682016040523d82523d6000602084013e6147c7565b606091505b50915091506147d78282866147e8565b979650505050505050565b3b151590565b606083156147f7575081613d3a565b8251156148075782518084602001fd5b8160405162461bcd60e51b81526004018080602001828103825283818151815260200191508051906020019080838360005b83811015614851578181015183820152602001614839565b50505050905090810190601f16801561487e5780820380516001836020036101000a031916815260200191505b509250505060405180910390fd5b8280548282559060005260206000209081019282156148d6579160200282015b828111156148d657825182906affffffffffffffffffffff169055916020019190600101906148ac565b50610fae929150614922565b8280548282559060005260206000209081019282156148d6579160200282015b828111156148d6578251829060ff16905591602001919060010190614902565b5b80821115610fae576000815560010161492356fe54726561737572793a20746f6b656e5072696365206e6f7420656c696769626c6520666f7220626f6e6420707572636861736554726561737572793a206661696c656420746f20636f6e73756c7420424f4d422070726963652066726f6d20746865206f7261636c6554726561737572793a2063616e6e6f742072656465656d20626f6e64732077697468207a65726f20616d6f756e745f7072656d69756d5468726573686f6c6420697320686967686572207468616e20312e35416464726573733a20696e73756666696369656e742062616c616e636520666f722063616c6c54726561737572793a20747265617375727920686173206e6f206d6f726520627564676574536166654d6174683a206d756c7469706c69636174696f6e206f766572666c6f7754726561737572793a2063616e6e6f7420707572636861736520626f6e64732077697468207a65726f20616d6f756e745f6d696e74696e67466163746f72466f72506179696e67446562743a206f7574206f662072616e67655f6d6178537570706c79457870616e73696f6e50657263656e743a206f7574206f662072616e6765496e6465782068617320746f206265206c6f776572207468616e20636f756e74206f6620746965727354726561737572793a2063616c6c6572206973206e6f7420746865206f70657261746f725361666545524332303a204552433230206f7065726174696f6e20646964206e6f742073756363656564436f6e747261637447756172643a206f6e6520626c6f636b2c206f6e652066756e6374696f6e5361666545524332303a20617070726f76652066726f6d206e6f6e2d7a65726f20746f206e6f6e2d7a65726f20616c6c6f77616e636554726561737572793a206e6f7420656e6f75676820626f6e64206c65667420746f2070757263686173655f626f6f747374726170537570706c79457870616e73696f6e50657263656e743a206f7574206f662072616e6765a2646970667358221220ebd8c08a695971d4e43778c8fcadfffe99b6f2650dba5b595910098ac7b0391d64736f6c634300060c0033",
  "devdoc": {
    "kind": "dev",
    "methods": {},
    "version": 1
  },
  "userdoc": {
    "kind": "user",
    "methods": {},
    "version": 1
  },
  "storageLayout": {
    "storage": [
      {
        "astId": 18793,
        "contract": "contracts/Treasury.sol:Treasury",
        "label": "_status",
        "offset": 0,
        "slot": "0",
        "type": "t_mapping(t_uint256,t_mapping(t_address,t_bool))"
      },
      {
        "astId": 1973,
        "contract": "contracts/Treasury.sol:Treasury",
        "label": "_status",
        "offset": 0,
        "slot": "1",
        "type": "t_uint256"
      },
      {
        "astId": 8366,
        "contract": "contracts/Treasury.sol:Treasury",
        "label": "operator",
        "offset": 0,
        "slot": "2",
        "type": "t_address"
      },
      {
        "astId": 8369,
        "contract": "contracts/Treasury.sol:Treasury",
        "label": "initialized",
        "offset": 20,
        "slot": "2",
        "type": "t_bool"
      },
      {
        "astId": 8371,
        "contract": "contracts/Treasury.sol:Treasury",
        "label": "startTime",
        "offset": 0,
        "slot": "3",
        "type": "t_uint256"
      },
      {
        "astId": 8374,
        "contract": "contracts/Treasury.sol:Treasury",
        "label": "epoch",
        "offset": 0,
        "slot": "4",
        "type": "t_uint256"
      },
      {
        "astId": 8377,
        "contract": "contracts/Treasury.sol:Treasury",
        "label": "epochSupplyContractionLeft",
        "offset": 0,
        "slot": "5",
        "type": "t_uint256"
      },
      {
        "astId": 8389,
        "contract": "contracts/Treasury.sol:Treasury",
        "label": "excludedFromTotalSupply",
        "offset": 0,
        "slot": "6",
        "type": "t_array(t_address)dyn_storage"
      },
      {
        "astId": 8391,
        "contract": "contracts/Treasury.sol:Treasury",
        "label": "token",
        "offset": 0,
        "slot": "7",
        "type": "t_address"
      },
      {
        "astId": 8393,
        "contract": "contracts/Treasury.sol:Treasury",
        "label": "bond",
        "offset": 0,
        "slot": "8",
        "type": "t_address"
      },
      {
        "astId": 8395,
        "contract": "contracts/Treasury.sol:Treasury",
        "label": "share",
        "offset": 0,
        "slot": "9",
        "type": "t_address"
      },
      {
        "astId": 8397,
        "contract": "contracts/Treasury.sol:Treasury",
        "label": "boardroom",
        "offset": 0,
        "slot": "10",
        "type": "t_address"
      },
      {
        "astId": 8399,
        "contract": "contracts/Treasury.sol:Treasury",
        "label": "tokenOracle",
        "offset": 0,
        "slot": "11",
        "type": "t_address"
      },
      {
        "astId": 8401,
        "contract": "contracts/Treasury.sol:Treasury",
        "label": "boardroomWithdrawFee",
        "offset": 0,
        "slot": "12",
        "type": "t_uint256"
      },
      {
        "astId": 8403,
        "contract": "contracts/Treasury.sol:Treasury",
        "label": "boardroomStakeFee",
        "offset": 0,
        "slot": "13",
        "type": "t_uint256"
      },
      {
        "astId": 8405,
        "contract": "contracts/Treasury.sol:Treasury",
        "label": "tokenPriceOne",
        "offset": 0,
        "slot": "14",
        "type": "t_uint256"
      },
      {
        "astId": 8407,
        "contract": "contracts/Treasury.sol:Treasury",
        "label": "tokenPriceCeiling",
        "offset": 0,
        "slot": "15",
        "type": "t_uint256"
      },
      {
        "astId": 8409,
        "contract": "contracts/Treasury.sol:Treasury",
        "label": "seigniorageSaved",
        "offset": 0,
        "slot": "16",
        "type": "t_uint256"
      },
      {
        "astId": 8412,
        "contract": "contracts/Treasury.sol:Treasury",
        "label": "supplyTiers",
        "offset": 0,
        "slot": "17",
        "type": "t_array(t_uint256)dyn_storage"
      },
      {
        "astId": 8415,
        "contract": "contracts/Treasury.sol:Treasury",
        "label": "maxExpansionTiers",
        "offset": 0,
        "slot": "18",
        "type": "t_array(t_uint256)dyn_storage"
      },
      {
        "astId": 8417,
        "contract": "contracts/Treasury.sol:Treasury",
        "label": "maxSupplyExpansionPercent",
        "offset": 0,
        "slot": "19",
        "type": "t_uint256"
      },
      {
        "astId": 8419,
        "contract": "contracts/Treasury.sol:Treasury",
        "label": "bondDepletionFloorPercent",
        "offset": 0,
        "slot": "20",
        "type": "t_uint256"
      },
      {
        "astId": 8421,
        "contract": "contracts/Treasury.sol:Treasury",
        "label": "seigniorageExpansionFloorPercent",
        "offset": 0,
        "slot": "21",
        "type": "t_uint256"
      },
      {
        "astId": 8423,
        "contract": "contracts/Treasury.sol:Treasury",
        "label": "maxSupplyContractionPercent",
        "offset": 0,
        "slot": "22",
        "type": "t_uint256"
      },
      {
        "astId": 8425,
        "contract": "contracts/Treasury.sol:Treasury",
        "label": "maxDebtRatioPercent",
        "offset": 0,
        "slot": "23",
        "type": "t_uint256"
      },
      {
        "astId": 8427,
        "contract": "contracts/Treasury.sol:Treasury",
        "label": "bootstrapEpochs",
        "offset": 0,
        "slot": "24",
        "type": "t_uint256"
      },
      {
        "astId": 8429,
        "contract": "contracts/Treasury.sol:Treasury",
        "label": "bootstrapSupplyExpansionPercent",
        "offset": 0,
        "slot": "25",
        "type": "t_uint256"
      },
      {
        "astId": 8431,
        "contract": "contracts/Treasury.sol:Treasury",
        "label": "previousEpochTokenPrice",
        "offset": 0,
        "slot": "26",
        "type": "t_uint256"
      },
      {
        "astId": 8433,
        "contract": "contracts/Treasury.sol:Treasury",
        "label": "maxDiscountRate",
        "offset": 0,
        "slot": "27",
        "type": "t_uint256"
      },
      {
        "astId": 8435,
        "contract": "contracts/Treasury.sol:Treasury",
        "label": "maxPremiumRate",
        "offset": 0,
        "slot": "28",
        "type": "t_uint256"
      },
      {
        "astId": 8437,
        "contract": "contracts/Treasury.sol:Treasury",
        "label": "discountPercent",
        "offset": 0,
        "slot": "29",
        "type": "t_uint256"
      },
      {
        "astId": 8439,
        "contract": "contracts/Treasury.sol:Treasury",
        "label": "premiumThreshold",
        "offset": 0,
        "slot": "30",
        "type": "t_uint256"
      },
      {
        "astId": 8441,
        "contract": "contracts/Treasury.sol:Treasury",
        "label": "premiumPercent",
        "offset": 0,
        "slot": "31",
        "type": "t_uint256"
      },
      {
        "astId": 8443,
        "contract": "contracts/Treasury.sol:Treasury",
        "label": "mintingFactorForPayingDebt",
        "offset": 0,
        "slot": "32",
        "type": "t_uint256"
      },
      {
        "astId": 8445,
        "contract": "contracts/Treasury.sol:Treasury",
        "label": "daoFund",
        "offset": 0,
        "slot": "33",
        "type": "t_address"
      },
      {
        "astId": 8447,
        "contract": "contracts/Treasury.sol:Treasury",
        "label": "daoFundSharedPercent",
        "offset": 0,
        "slot": "34",
        "type": "t_uint256"
      },
      {
        "astId": 8449,
        "contract": "contracts/Treasury.sol:Treasury",
        "label": "devFund",
        "offset": 0,
        "slot": "35",
        "type": "t_address"
      },
      {
        "astId": 8451,
        "contract": "contracts/Treasury.sol:Treasury",
        "label": "devFundSharedPercent",
        "offset": 0,
        "slot": "36",
        "type": "t_uint256"
      },
      {
        "astId": 8453,
        "contract": "contracts/Treasury.sol:Treasury",
        "label": "insuranceFund",
        "offset": 0,
        "slot": "37",
        "type": "t_address"
      },
      {
        "astId": 8455,
        "contract": "contracts/Treasury.sol:Treasury",
        "label": "insuranceFundSharedPercent",
        "offset": 0,
        "slot": "38",
        "type": "t_uint256"
      },
      {
        "astId": 8457,
        "contract": "contracts/Treasury.sol:Treasury",
        "label": "regulationStats",
        "offset": 0,
        "slot": "39",
        "type": "t_address"
      }
    ],
    "types": {
      "t_address": {
        "encoding": "inplace",
        "label": "address",
        "numberOfBytes": "20"
      },
      "t_array(t_address)dyn_storage": {
        "base": "t_address",
        "encoding": "dynamic_array",
        "label": "address[]",
        "numberOfBytes": "32"
      },
      "t_array(t_uint256)dyn_storage": {
        "base": "t_uint256",
        "encoding": "dynamic_array",
        "label": "uint256[]",
        "numberOfBytes": "32"
      },
      "t_bool": {
        "encoding": "inplace",
        "label": "bool",
        "numberOfBytes": "1"
      },
      "t_mapping(t_address,t_bool)": {
        "encoding": "mapping",
        "key": "t_address",
        "label": "mapping(address => bool)",
        "numberOfBytes": "32",
        "value": "t_bool"
      },
      "t_mapping(t_uint256,t_mapping(t_address,t_bool))": {
        "encoding": "mapping",
        "key": "t_uint256",
        "label": "mapping(uint256 => mapping(address => bool))",
        "numberOfBytes": "32",
        "value": "t_mapping(t_address,t_bool)"
      },
      "t_uint256": {
        "encoding": "inplace",
        "label": "uint256",
        "numberOfBytes": "32"
      }
    }
  }
}